{
  "contractName": "CivilTCR",
  "abi": [
    {
      "constant": true,
      "inputs": [],
      "name": "judgeAppealPhaseLength",
      "outputs": [
        {
          "name": "",
          "type": "uint256"
        }
      ],
      "payable": false,
      "stateMutability": "view",
      "type": "function"
    },
    {
      "constant": true,
      "inputs": [],
      "name": "appealSupermajorityPercentage",
      "outputs": [
        {
          "name": "",
          "type": "uint256"
        }
      ],
      "payable": false,
      "stateMutability": "view",
      "type": "function"
    },
    {
      "constant": true,
      "inputs": [],
      "name": "requestAppealPhaseLength",
      "outputs": [
        {
          "name": "",
          "type": "uint256"
        }
      ],
      "payable": false,
      "stateMutability": "view",
      "type": "function"
    },
    {
      "constant": false,
      "inputs": [
        {
          "name": "listingAddress",
          "type": "address"
        },
        {
          "name": "amount",
          "type": "uint256"
        }
      ],
      "name": "deposit",
      "outputs": [],
      "payable": false,
      "stateMutability": "nonpayable",
      "type": "function"
    },
    {
      "constant": true,
      "inputs": [],
      "name": "version",
      "outputs": [
        {
          "name": "",
          "type": "uint256"
        }
      ],
      "payable": false,
      "stateMutability": "view",
      "type": "function"
    },
    {
      "constant": false,
      "inputs": [
        {
          "name": "listingAddress",
          "type": "address"
        },
        {
          "name": "amount",
          "type": "uint256"
        },
        {
          "name": "data",
          "type": "string"
        }
      ],
      "name": "apply",
      "outputs": [],
      "payable": false,
      "stateMutability": "nonpayable",
      "type": "function"
    },
    {
      "constant": true,
      "inputs": [
        {
          "name": "listingAddress",
          "type": "address"
        }
      ],
      "name": "appWasMade",
      "outputs": [
        {
          "name": "",
          "type": "bool"
        }
      ],
      "payable": false,
      "stateMutability": "view",
      "type": "function"
    },
    {
      "constant": true,
      "inputs": [
        {
          "name": "",
          "type": "uint256"
        }
      ],
      "name": "challengeRequestAppealExpiries",
      "outputs": [
        {
          "name": "",
          "type": "uint256"
        }
      ],
      "payable": false,
      "stateMutability": "view",
      "type": "function"
    },
    {
      "constant": true,
      "inputs": [
        {
          "name": "",
          "type": "address"
        }
      ],
      "name": "listings",
      "outputs": [
        {
          "name": "applicationExpiry",
          "type": "uint256"
        },
        {
          "name": "isWhitelisted",
          "type": "bool"
        },
        {
          "name": "owner",
          "type": "address"
        },
        {
          "name": "unstakedDeposit",
          "type": "uint256"
        },
        {
          "name": "challengeID",
          "type": "uint256"
        }
      ],
      "payable": false,
      "stateMutability": "view",
      "type": "function"
    },
    {
      "constant": true,
      "inputs": [
        {
          "name": "listingAddress",
          "type": "address"
        }
      ],
      "name": "challengeExists",
      "outputs": [
        {
          "name": "",
          "type": "bool"
        }
      ],
      "payable": false,
      "stateMutability": "view",
      "type": "function"
    },
    {
      "constant": true,
      "inputs": [
        {
          "name": "",
          "type": "uint256"
        }
      ],
      "name": "appealChallenges",
      "outputs": [
        {
          "name": "rewardPool",
          "type": "uint256"
        },
        {
          "name": "challenger",
          "type": "address"
        },
        {
          "name": "resolved",
          "type": "bool"
        },
        {
          "name": "stake",
          "type": "uint256"
        },
        {
          "name": "totalTokens",
          "type": "uint256"
        }
      ],
      "payable": false,
      "stateMutability": "view",
      "type": "function"
    },
    {
      "constant": true,
      "inputs": [],
      "name": "appealFee",
      "outputs": [
        {
          "name": "",
          "type": "uint256"
        }
      ],
      "payable": false,
      "stateMutability": "view",
      "type": "function"
    },
    {
      "constant": true,
      "inputs": [
        {
          "name": "",
          "type": "uint256"
        }
      ],
      "name": "appealOverturned",
      "outputs": [
        {
          "name": "",
          "type": "bool"
        }
      ],
      "payable": false,
      "stateMutability": "view",
      "type": "function"
    },
    {
      "constant": false,
      "inputs": [
        {
          "name": "listingAddress",
          "type": "address"
        }
      ],
      "name": "exitListing",
      "outputs": [],
      "payable": false,
      "stateMutability": "nonpayable",
      "type": "function"
    },
    {
      "constant": true,
      "inputs": [
        {
          "name": "",
          "type": "uint256"
        }
      ],
      "name": "challenges",
      "outputs": [
        {
          "name": "rewardPool",
          "type": "uint256"
        },
        {
          "name": "challenger",
          "type": "address"
        },
        {
          "name": "resolved",
          "type": "bool"
        },
        {
          "name": "stake",
          "type": "uint256"
        },
        {
          "name": "totalTokens",
          "type": "uint256"
        }
      ],
      "payable": false,
      "stateMutability": "view",
      "type": "function"
    },
    {
      "constant": true,
      "inputs": [
        {
          "name": "",
          "type": "uint256"
        }
      ],
      "name": "appealRequested",
      "outputs": [
        {
          "name": "",
          "type": "bool"
        }
      ],
      "payable": false,
      "stateMutability": "view",
      "type": "function"
    },
    {
      "constant": true,
      "inputs": [
        {
          "name": "",
          "type": "uint256"
        }
      ],
      "name": "appeals",
      "outputs": [
        {
          "name": "requester",
          "type": "address"
        },
        {
          "name": "appealFeePaid",
          "type": "uint256"
        },
        {
          "name": "appealPhaseExpiry",
          "type": "uint256"
        },
        {
          "name": "appealGranted",
          "type": "bool"
        },
        {
          "name": "appealOpenToChallengeExpiry",
          "type": "uint256"
        },
        {
          "name": "appealChallengeID",
          "type": "uint256"
        }
      ],
      "payable": false,
      "stateMutability": "view",
      "type": "function"
    },
    {
      "constant": true,
      "inputs": [
        {
          "name": "challengeID",
          "type": "uint256"
        },
        {
          "name": "voter",
          "type": "address"
        }
      ],
      "name": "hasClaimedTokens",
      "outputs": [
        {
          "name": "",
          "type": "bool"
        }
      ],
      "payable": false,
      "stateMutability": "view",
      "type": "function"
    },
    {
      "constant": true,
      "inputs": [
        {
          "name": "challengeID",
          "type": "uint256"
        }
      ],
      "name": "determineReward",
      "outputs": [
        {
          "name": "",
          "type": "uint256"
        }
      ],
      "payable": false,
      "stateMutability": "view",
      "type": "function"
    },
    {
      "constant": true,
      "inputs": [],
      "name": "appellate",
      "outputs": [
        {
          "name": "",
          "type": "address"
        }
      ],
      "payable": false,
      "stateMutability": "view",
      "type": "function"
    },
    {
      "constant": true,
      "inputs": [
        {
          "name": "listingAddress",
          "type": "address"
        }
      ],
      "name": "canBeWhitelisted",
      "outputs": [
        {
          "name": "",
          "type": "bool"
        }
      ],
      "payable": false,
      "stateMutability": "view",
      "type": "function"
    },
    {
      "constant": true,
      "inputs": [],
      "name": "parameterizer",
      "outputs": [
        {
          "name": "",
          "type": "address"
        }
      ],
      "payable": false,
      "stateMutability": "view",
      "type": "function"
    },
    {
      "constant": false,
      "inputs": [
        {
          "name": "listingAddress",
          "type": "address"
        },
        {
          "name": "amount",
          "type": "uint256"
        }
      ],
      "name": "withdraw",
      "outputs": [],
      "payable": false,
      "stateMutability": "nonpayable",
      "type": "function"
    },
    {
      "constant": true,
      "inputs": [],
      "name": "token",
      "outputs": [
        {
          "name": "",
          "type": "address"
        }
      ],
      "payable": false,
      "stateMutability": "view",
      "type": "function"
    },
    {
      "constant": true,
      "inputs": [],
      "name": "voting",
      "outputs": [
        {
          "name": "",
          "type": "address"
        }
      ],
      "payable": false,
      "stateMutability": "view",
      "type": "function"
    },
    {
      "inputs": [
        {
          "name": "tokenAddr",
          "type": "address"
        },
        {
          "name": "plcrAddr",
          "type": "address"
        },
        {
          "name": "paramsAddr",
          "type": "address"
        },
        {
          "name": "appellateAddr",
          "type": "address"
        },
        {
          "name": "appealFeeAmount",
          "type": "uint256"
        },
        {
          "name": "requestAppealLength",
          "type": "uint256"
        },
        {
          "name": "judgeAppealLength",
          "type": "uint256"
        }
      ],
      "payable": false,
      "stateMutability": "nonpayable",
      "type": "constructor"
    },
    {
      "anonymous": false,
      "inputs": [
        {
          "indexed": true,
          "name": "requester",
          "type": "address"
        },
        {
          "indexed": true,
          "name": "listing",
          "type": "address"
        },
        {
          "indexed": true,
          "name": "challengeID",
          "type": "uint256"
        }
      ],
      "name": "AppealRequested",
      "type": "event"
    },
    {
      "anonymous": false,
      "inputs": [
        {
          "indexed": true,
          "name": "listing",
          "type": "address"
        }
      ],
      "name": "AppealGranted",
      "type": "event"
    },
    {
      "anonymous": false,
      "inputs": [
        {
          "indexed": false,
          "name": "fee",
          "type": "uint256"
        }
      ],
      "name": "AppealFeeSet",
      "type": "event"
    },
    {
      "anonymous": false,
      "inputs": [
        {
          "indexed": false,
          "name": "length",
          "type": "uint256"
        }
      ],
      "name": "MakeAppealLengthSet",
      "type": "event"
    },
    {
      "anonymous": false,
      "inputs": [
        {
          "indexed": false,
          "name": "length",
          "type": "uint256"
        }
      ],
      "name": "AppealLengthSet",
      "type": "event"
    },
    {
      "anonymous": false,
      "inputs": [
        {
          "indexed": true,
          "name": "listing",
          "type": "address"
        },
        {
          "indexed": true,
          "name": "challengeID",
          "type": "uint256"
        }
      ],
      "name": "FailedChallengeOverturned",
      "type": "event"
    },
    {
      "anonymous": false,
      "inputs": [
        {
          "indexed": true,
          "name": "listing",
          "type": "address"
        },
        {
          "indexed": true,
          "name": "challengeID",
          "type": "uint256"
        }
      ],
      "name": "SuccessfulChallengeOverturned",
      "type": "event"
    },
    {
      "anonymous": false,
      "inputs": [
        {
          "indexed": true,
          "name": "listing",
          "type": "address"
        },
        {
          "indexed": true,
          "name": "challengeID",
          "type": "uint256"
        },
        {
          "indexed": true,
          "name": "appealChallengeID",
          "type": "uint256"
        },
        {
          "indexed": false,
          "name": "data",
          "type": "string"
        }
      ],
      "name": "GrantedAppealChallenged",
      "type": "event"
    },
    {
      "anonymous": false,
      "inputs": [
        {
          "indexed": true,
          "name": "listing",
          "type": "address"
        },
        {
          "indexed": true,
          "name": "challengeID",
          "type": "uint256"
        },
        {
          "indexed": true,
          "name": "appealChallengeID",
          "type": "uint256"
        }
      ],
      "name": "GrantedAppealOverturned",
      "type": "event"
    },
    {
      "anonymous": false,
      "inputs": [
        {
          "indexed": true,
          "name": "listing",
          "type": "address"
        },
        {
          "indexed": true,
          "name": "challengeID",
          "type": "uint256"
        },
        {
          "indexed": true,
          "name": "appealChallengeID",
          "type": "uint256"
        }
      ],
      "name": "GrantedAppealConfirmed",
      "type": "event"
    },
    {
      "anonymous": false,
      "inputs": [
        {
          "indexed": true,
          "name": "listingAddress",
          "type": "address"
        },
        {
          "indexed": false,
          "name": "deposit",
          "type": "uint256"
        },
        {
          "indexed": false,
          "name": "data",
          "type": "string"
        }
      ],
      "name": "Application",
      "type": "event"
    },
    {
      "anonymous": false,
      "inputs": [
        {
          "indexed": true,
          "name": "listingAddress",
          "type": "address"
        },
        {
          "indexed": false,
          "name": "deposit",
          "type": "uint256"
        },
        {
          "indexed": true,
          "name": "pollID",
          "type": "uint256"
        },
        {
          "indexed": false,
          "name": "data",
          "type": "string"
        }
      ],
      "name": "ChallengeInitiated",
      "type": "event"
    },
    {
      "anonymous": false,
      "inputs": [
        {
          "indexed": true,
          "name": "listingAddress",
          "type": "address"
        },
        {
          "indexed": false,
          "name": "added",
          "type": "uint256"
        },
        {
          "indexed": false,
          "name": "newTotal",
          "type": "uint256"
        }
      ],
      "name": "Deposit",
      "type": "event"
    },
    {
      "anonymous": false,
      "inputs": [
        {
          "indexed": true,
          "name": "listingAddress",
          "type": "address"
        },
        {
          "indexed": false,
          "name": "withdrew",
          "type": "uint256"
        },
        {
          "indexed": false,
          "name": "newTotal",
          "type": "uint256"
        }
      ],
      "name": "Withdrawal",
      "type": "event"
    },
    {
      "anonymous": false,
      "inputs": [
        {
          "indexed": true,
          "name": "listingAddress",
          "type": "address"
        }
      ],
      "name": "NewListingWhitelisted",
      "type": "event"
    },
    {
      "anonymous": false,
      "inputs": [
        {
          "indexed": true,
          "name": "listingAddress",
          "type": "address"
        }
      ],
      "name": "ApplicationRemoved",
      "type": "event"
    },
    {
      "anonymous": false,
      "inputs": [
        {
          "indexed": true,
          "name": "listingAddress",
          "type": "address"
        }
      ],
      "name": "ListingRemoved",
      "type": "event"
    },
    {
      "anonymous": false,
      "inputs": [
        {
          "indexed": true,
          "name": "listingAddress",
          "type": "address"
        },
        {
          "indexed": true,
          "name": "challengeID",
          "type": "uint256"
        }
      ],
      "name": "ChallengeFailed",
      "type": "event"
    },
    {
      "anonymous": false,
      "inputs": [
        {
          "indexed": true,
          "name": "listingAddress",
          "type": "address"
        },
        {
          "indexed": true,
          "name": "challengeID",
          "type": "uint256"
        }
      ],
      "name": "ChallengeSucceeded",
      "type": "event"
    },
    {
      "anonymous": false,
      "inputs": [
        {
          "indexed": true,
          "name": "voter",
          "type": "address"
        },
        {
          "indexed": true,
          "name": "challengeID",
          "type": "uint256"
        },
        {
          "indexed": false,
          "name": "reward",
          "type": "uint256"
        }
      ],
      "name": "RewardClaimed",
      "type": "event"
    },
    {
      "constant": false,
      "inputs": [
        {
          "name": "listingAddress",
          "type": "address"
        }
      ],
      "name": "requestAppeal",
      "outputs": [],
      "payable": false,
      "stateMutability": "nonpayable",
      "type": "function"
    },
    {
      "constant": false,
      "inputs": [
        {
          "name": "listingAddress",
          "type": "address"
        }
      ],
      "name": "grantAppeal",
      "outputs": [],
      "payable": false,
      "stateMutability": "nonpayable",
      "type": "function"
    },
    {
      "constant": false,
      "inputs": [
        {
          "name": "fee",
          "type": "uint256"
        }
      ],
      "name": "setAppealFee",
      "outputs": [],
      "payable": false,
      "stateMutability": "nonpayable",
      "type": "function"
    },
    {
      "constant": false,
      "inputs": [
        {
          "name": "length",
          "type": "uint256"
        }
      ],
      "name": "setMakeAppealLength",
      "outputs": [],
      "payable": false,
      "stateMutability": "nonpayable",
      "type": "function"
    },
    {
      "constant": false,
      "inputs": [
        {
          "name": "length",
          "type": "uint256"
        }
      ],
      "name": "setAppealLength",
      "outputs": [],
      "payable": false,
      "stateMutability": "nonpayable",
      "type": "function"
    },
    {
      "constant": false,
      "inputs": [
        {
          "name": "listingAddress",
          "type": "address"
        }
      ],
      "name": "updateStatus",
      "outputs": [],
      "payable": false,
      "stateMutability": "nonpayable",
      "type": "function"
    },
    {
      "constant": false,
      "inputs": [
        {
          "name": "listingAddress",
          "type": "address"
        },
        {
          "name": "data",
          "type": "string"
        }
      ],
      "name": "challenge",
      "outputs": [
        {
          "name": "challengeID",
          "type": "uint256"
        }
      ],
      "payable": false,
      "stateMutability": "nonpayable",
      "type": "function"
    },
    {
      "constant": false,
      "inputs": [
        {
          "name": "listingAddress",
          "type": "address"
        },
        {
          "name": "data",
          "type": "string"
        }
      ],
      "name": "challengeGrantedAppeal",
      "outputs": [
        {
          "name": "challengeID",
          "type": "uint256"
        }
      ],
      "payable": false,
      "stateMutability": "nonpayable",
      "type": "function"
    },
    {
      "constant": true,
      "inputs": [
        {
          "name": "challengeID",
          "type": "uint256"
        }
      ],
      "name": "determineAppealChallengeReward",
      "outputs": [
        {
          "name": "",
          "type": "uint256"
        }
      ],
      "payable": false,
      "stateMutability": "view",
      "type": "function"
    },
    {
      "constant": false,
      "inputs": [
        {
          "name": "challengeID",
          "type": "uint256"
        },
        {
          "name": "voter",
          "type": "address"
        }
      ],
      "name": "hasClaimedChallengeAppealTokens",
      "outputs": [
        {
          "name": "",
          "type": "bool"
        }
      ],
      "payable": false,
      "stateMutability": "nonpayable",
      "type": "function"
    },
    {
      "constant": false,
      "inputs": [
        {
          "name": "challengeID",
          "type": "uint256"
        },
        {
          "name": "salt",
          "type": "uint256"
        }
      ],
      "name": "claimAppealChallengeReward",
      "outputs": [],
      "payable": false,
      "stateMutability": "nonpayable",
      "type": "function"
    },
    {
      "constant": false,
      "inputs": [
        {
          "name": "challengeID",
          "type": "uint256"
        },
        {
          "name": "salt",
          "type": "uint256"
        }
      ],
      "name": "claimReward",
      "outputs": [],
      "payable": false,
      "stateMutability": "nonpayable",
      "type": "function"
    },
    {
      "constant": true,
      "inputs": [
        {
          "name": "voter",
          "type": "address"
        },
        {
          "name": "challengeID",
          "type": "uint256"
        },
        {
          "name": "salt",
          "type": "uint256"
        }
      ],
      "name": "voterReward",
      "outputs": [
        {
          "name": "",
          "type": "uint256"
        }
      ],
      "payable": false,
      "stateMutability": "view",
      "type": "function"
    },
    {
      "constant": true,
      "inputs": [
        {
          "name": "listingAddress",
          "type": "address"
        }
      ],
      "name": "challengeCanBeResolved",
      "outputs": [
        {
          "name": "canBeResolved",
          "type": "bool"
        }
      ],
      "payable": false,
      "stateMutability": "view",
      "type": "function"
    },
    {
      "constant": true,
      "inputs": [
        {
          "name": "listingAddress",
          "type": "address"
        }
      ],
      "name": "appealCanBeResolved",
      "outputs": [
        {
          "name": "canBeResolved",
          "type": "bool"
        }
      ],
      "payable": false,
      "stateMutability": "view",
      "type": "function"
    }
  ],
  "bytecode": "0x606060405260016005556042600a55341561001957600080fd5b60405160e08062005b5c8339810160405280805190602001909190805190602001909190805190602001909190805190602001909190805190602001909190805190602001909190805190602001909190505086868682828282828282600260006101000a81548173ffffffffffffffffffffffffffffffffffffffff021916908373ffffffffffffffffffffffffffffffffffffffff16021790555081600360006101000a81548173ffffffffffffffffffffffffffffffffffffffff021916908373ffffffffffffffffffffffffffffffffffffffff16021790555080600460006101000a81548173ffffffffffffffffffffffffffffffffffffffff021916908373ffffffffffffffffffffffffffffffffffffffff16021790555050505050505050505083600660006101000a81548173ffffffffffffffffffffffffffffffffffffffff021916908373ffffffffffffffffffffffffffffffffffffffff160217905550816008819055508060098190555082600781905550505050505050506159ae80620001ae6000396000f3006060604052600436106101ee576000357c0100000000000000000000000000000000000000000000000000000000900463ffffffff16806301162b93146101f35780630bcbb5e51461022c578063120c40c6146102555780631599138c146102e557806325ecef041461030e5780632ea9b6961461035f5780633770c25f146103b0578063432261bb146103d3578063463371a31461040c57806347e7ef241461043557806354fd4d501461047757806355246b9c146104a057806361a9a8ca1461052557806364c373181461057657806365d96c82146105ad5780636eefcab9146106465780637421628c1461069757806374317075146106c357806377f364d0146106fa57806379110a471461077d5780637984e6b5146107a057806379886309146107c95780637d3c5d01146108045780637fd57e0b1461083d57806386bb8f37146108765780638f1d3776146108a257806394b2767314610925578063a7aad3db14610960578063acff8687146109bf578063b28a47b914610a49578063bad7740e14610aa3578063bc4b010f14610ac6578063be78533f14610b56578063c8187cf114610bb0578063d5fd9e6614610be7578063dd4e7cfd14610c3c578063e1e3f91514610c8d578063f3fef3a314610ce2578063fc0c546a14610d24578063fce1ccca14610d79575b600080fd5b34156101fe57600080fd5b61022a600480803573ffffffffffffffffffffffffffffffffffffffff16906020019091905050610dce565b005b341561023757600080fd5b61023f610e6f565b6040518082815260200191505060405180910390f35b341561026057600080fd5b6102cf600480803573ffffffffffffffffffffffffffffffffffffffff1690602001909190803590602001908201803590602001908080601f01602080910402602001604051908101604052809392919081815260200183838082843782019150505050505091905050610e75565b6040518082815260200191505060405180910390f35b34156102f057600080fd5b6102f8611498565b6040518082815260200191505060405180910390f35b341561031957600080fd5b610345600480803573ffffffffffffffffffffffffffffffffffffffff1690602001909190505061149e565b604051808215151515815260200191505060405180910390f35b341561036a57600080fd5b610396600480803573ffffffffffffffffffffffffffffffffffffffff169060200190919050506115e7565b604051808215151515815260200191505060405180910390f35b34156103bb57600080fd5b6103d160048080359060200190919050506116d2565b005b34156103de57600080fd5b61040a600480803573ffffffffffffffffffffffffffffffffffffffff1690602001909190505061177e565b005b341561041757600080fd5b61041f611b0c565b6040518082815260200191505060405180910390f35b341561044057600080fd5b610475600480803573ffffffffffffffffffffffffffffffffffffffff16906020019091908035906020019091905050611b12565b005b341561048257600080fd5b61048a611d4b565b6040518082815260200191505060405180910390f35b34156104ab57600080fd5b610523600480803573ffffffffffffffffffffffffffffffffffffffff1690602001909190803590602001909190803590602001908201803590602001908080601f01602080910402602001604051908101604052809392919081815260200183838082843782019150505050505091905050611d51565b005b341561053057600080fd5b61055c600480803573ffffffffffffffffffffffffffffffffffffffff16906020019091905050611e29565b604051808215151515815260200191505060405180910390f35b341561058157600080fd5b6105976004808035906020019091905050611e77565b6040518082815260200191505060405180910390f35b34156105b857600080fd5b6105e4600480803573ffffffffffffffffffffffffffffffffffffffff16906020019091905050611e8f565b60405180868152602001851515151581526020018473ffffffffffffffffffffffffffffffffffffffff1673ffffffffffffffffffffffffffffffffffffffff1681526020018381526020018281526020019550505050505060405180910390f35b341561065157600080fd5b61067d600480803573ffffffffffffffffffffffffffffffffffffffff16906020019091905050611ef2565b604051808215151515815260200191505060405180910390f35b34156106a257600080fd5b6106c16004808035906020019091908035906020019091905050611fb4565b005b34156106ce57600080fd5b6106e46004808035906020019091905050612367565b6040518082815260200191505060405180910390f35b341561070557600080fd5b61071b600480803590602001909190505061256c565b604051808681526020018573ffffffffffffffffffffffffffffffffffffffff1673ffffffffffffffffffffffffffffffffffffffff168152602001841515151581526020018381526020018281526020019550505050505060405180910390f35b341561078857600080fd5b61079e60048080359060200190919050506125cf565b005b34156107ab57600080fd5b6107b361267b565b6040518082815260200191505060405180910390f35b34156107d457600080fd5b6107ea6004808035906020019091905050612681565b604051808215151515815260200191505060405180910390f35b341561080f57600080fd5b61083b600480803573ffffffffffffffffffffffffffffffffffffffff169060200190919050506126a1565b005b341561084857600080fd5b610874600480803573ffffffffffffffffffffffffffffffffffffffff169060200190919050506128de565b005b341561088157600080fd5b6108a06004808035906020019091908035906020019091905050612a28565b005b34156108ad57600080fd5b6108c36004808035906020019091905050612df9565b604051808681526020018573ffffffffffffffffffffffffffffffffffffffff1673ffffffffffffffffffffffffffffffffffffffff168152602001841515151581526020018381526020018281526020019550505050505060405180910390f35b341561093057600080fd5b6109466004808035906020019091905050612e5c565b604051808215151515815260200191505060405180910390f35b341561096b57600080fd5b6109a9600480803573ffffffffffffffffffffffffffffffffffffffff16906020019091908035906020019091908035906020019091905050612e7c565b6040518082815260200191505060405180910390f35b34156109ca57600080fd5b6109e0600480803590602001909190505061301d565b604051808773ffffffffffffffffffffffffffffffffffffffff1673ffffffffffffffffffffffffffffffffffffffff16815260200186815260200185815260200184151515158152602001838152602001828152602001965050505050505060405180910390f35b3415610a5457600080fd5b610a89600480803590602001909190803573ffffffffffffffffffffffffffffffffffffffff16906020019091905050613086565b604051808215151515815260200191505060405180910390f35b3415610aae57600080fd5b610ac460048080359060200190919050506130f1565b005b3415610ad157600080fd5b610b40600480803573ffffffffffffffffffffffffffffffffffffffff1690602001909190803590602001908201803590602001908080601f0160208091040260200160405190810160405280939291908181526020018383808284378201915050505050509190505061319d565b6040518082815260200191505060405180910390f35b3415610b6157600080fd5b610b96600480803590602001909190803573ffffffffffffffffffffffffffffffffffffffff169060200190919050506133af565b604051808215151515815260200191505060405180910390f35b3415610bbb57600080fd5b610bd16004808035906020019091905050613419565b6040518082815260200191505060405180910390f35b3415610bf257600080fd5b610bfa61361a565b604051808273ffffffffffffffffffffffffffffffffffffffff1673ffffffffffffffffffffffffffffffffffffffff16815260200191505060405180910390f35b3415610c4757600080fd5b610c73600480803573ffffffffffffffffffffffffffffffffffffffff16906020019091905050613640565b604051808215151515815260200191505060405180910390f35b3415610c9857600080fd5b610ca061378d565b604051808273ffffffffffffffffffffffffffffffffffffffff1673ffffffffffffffffffffffffffffffffffffffff16815260200191505060405180910390f35b3415610ced57600080fd5b610d22600480803573ffffffffffffffffffffffffffffffffffffffff169060200190919080359060200190919050506137b3565b005b3415610d2f57600080fd5b610d37613ac4565b604051808273ffffffffffffffffffffffffffffffffffffffff1673ffffffffffffffffffffffffffffffffffffffff16815260200191505060405180910390f35b3415610d8457600080fd5b610d8c613aea565b604051808273ffffffffffffffffffffffffffffffffffffffff1673ffffffffffffffffffffffffffffffffffffffff16815260200191505060405180910390f35b610dd781613640565b15610e2d57610de581613b10565b8073ffffffffffffffffffffffffffffffffffffffff167f0be47533fe1d2625f0c1e32e07a77950b8d95efd37b95b8cac0f19a6124d520460405160405180910390a2610e6c565b610e36816115e7565b15610e4957610e4481613b6d565b610e6b565b610e528161149e565b15610e6557610e60816140c3565b610e6a565b600080fd5b5b5b50565b60095481565b600080600080600160008773ffffffffffffffffffffffffffffffffffffffff1673ffffffffffffffffffffffffffffffffffffffff1681526020019081526020016000209250600d60008460030154815260200190815260200160002091508160030160009054906101000a900460ff161515610ef257600080fd5b60008260050154141515610f0557600080fd5b428260040154111515610f1757600080fd5b600260009054906101000a900473ffffffffffffffffffffffffffffffffffffffff1673ffffffffffffffffffffffffffffffffffffffff166323b872dd333085600101546000604051602001526040518463ffffffff167c0100000000000000000000000000000000000000000000000000000000028152600401808473ffffffffffffffffffffffffffffffffffffffff1673ffffffffffffffffffffffffffffffffffffffff1681526020018373ffffffffffffffffffffffffffffffffffffffff1673ffffffffffffffffffffffffffffffffffffffff1681526020018281526020019350505050602060405180830381600087803b151561101c57600080fd5b6102c65a03f1151561102d57600080fd5b50505060405180519050151561104257600080fd5b600360009054906101000a900473ffffffffffffffffffffffffffffffffffffffff1673ffffffffffffffffffffffffffffffffffffffff166332ed3d60600a54600460009054906101000a900473ffffffffffffffffffffffffffffffffffffffff1673ffffffffffffffffffffffffffffffffffffffff1663693ec85e6000604051602001526040518163ffffffff167c01000000000000000000000000000000000000000000000000000000000281526004018080602001828103825260188152602001807f6368616c6c656e676541707065616c436f6d6d69744c656e0000000000000000815250602001915050602060405180830381600087803b151561114d57600080fd5b6102c65a03f1151561115e57600080fd5b50505060405180519050600460009054906101000a900473ffffffffffffffffffffffffffffffffffffffff1673ffffffffffffffffffffffffffffffffffffffff1663693ec85e6000604051602001526040518163ffffffff167c01000000000000000000000000000000000000000000000000000000000281526004018080602001828103825260188152602001807f6368616c6c656e676541707065616c52657665616c4c656e0000000000000000815250602001915050602060405180830381600087803b151561123257600080fd5b6102c65a03f1151561124357600080fd5b505050604051805190506000604051602001526040518463ffffffff167c0100000000000000000000000000000000000000000000000000000000028152600401808481526020018381526020018281526020019350505050602060405180830381600087803b15156112b557600080fd5b6102c65a03f115156112c657600080fd5b50505060405180519050905060a06040519081016040528060648460010154600a54606403028115156112f557fe5b0481526020013373ffffffffffffffffffffffffffffffffffffffff168152602001600015158152602001836001015481526020016000815250600e60008381526020019081526020016000206000820151816000015560208201518160010160006101000a81548173ffffffffffffffffffffffffffffffffffffffff021916908373ffffffffffffffffffffffffffffffffffffffff16021790555060408201518160010160146101000a81548160ff02191690831515021790555060608201518160020155608082015181600301559050508082600501819055508083600301548773ffffffffffffffffffffffffffffffffffffffff167f172a11ccda13c5c90347075d2c5303d48d6bb35d584e1d698fe4f662d245f9f5886040518080602001828103825283818151815260200191508051906020019080838360005b83811015611452578082015181840152602081019050611437565b50505050905090810190601f16801561147f5780820380516001836020036101000a031916815260200191505b509250505060405180910390a480935050505092915050565b600a5481565b600080600160008473ffffffffffffffffffffffffffffffffffffffff1673ffffffffffffffffffffffffffffffffffffffff1681526020019081526020016000206003015490506114ef83611ef2565b15156114fa57600080fd5b60008082815260200190815260200160002060010160149054906101000a900460ff161561152b57600091506115e1565b600c600082815260200190815260200160002060009054906101000a900460ff16151561155b57600091506115e1565b600d600082815260200190815260200160002060030160009054906101000a900460ff1615156115b55742600d60008381526020019081526020016000206002015411156115ac57600091506115e1565b600191506115e1565b42600d60008381526020019081526020016000206004015411156115dc57600091506115e1565b600191505b50919050565b600080600160008473ffffffffffffffffffffffffffffffffffffffff1673ffffffffffffffffffffffffffffffffffffffff16815260200190815260200160002060030154905061163883611ef2565b151561164357600080fd5b42600b600083815260200190815260200160002054111561166757600091506116cc565b60008082815260200190815260200160002060010160149054906101000a900460ff161561169857600091506116cc565b600c600082815260200190815260200160002060009054906101000a900460ff16156116c757600091506116cc565b600191505b50919050565b600660009054906101000a900473ffffffffffffffffffffffffffffffffffffffff1673ffffffffffffffffffffffffffffffffffffffff163373ffffffffffffffffffffffffffffffffffffffff1614151561172e57600080fd5b60008111151561173d57600080fd5b806009819055507facfa781007712808522bc47b0dbc6d7aff970189f76b332ed8fe07b30c5e243a816040518082815260200191505060405180910390a150565b600080600160008473ffffffffffffffffffffffffffffffffffffffff1673ffffffffffffffffffffffffffffffffffffffff1681526020019081526020016000209150600360009054906101000a900473ffffffffffffffffffffffffffffffffffffffff1673ffffffffffffffffffffffffffffffffffffffff1663ee68483083600301546000604051602001526040518263ffffffff167c010000000000000000000000000000000000000000000000000000000002815260040180828152602001915050602060405180830381600087803b151561185f57600080fd5b6102c65a03f1151561187057600080fd5b50505060405180519050151561188557600080fd5b42600b600084600301548152602001908152602001600020541115156118aa57600080fd5b600c60008360030154815260200190815260200160002060009054906101000a900460ff161515156118db57600080fd5b600260009054906101000a900473ffffffffffffffffffffffffffffffffffffffff1673ffffffffffffffffffffffffffffffffffffffff166323b872dd33306007546000604051602001526040518463ffffffff167c0100000000000000000000000000000000000000000000000000000000028152600401808473ffffffffffffffffffffffffffffffffffffffff1673ffffffffffffffffffffffffffffffffffffffff1681526020018373ffffffffffffffffffffffffffffffffffffffff1673ffffffffffffffffffffffffffffffffffffffff1681526020018281526020019350505050602060405180830381600087803b15156119de57600080fd5b6102c65a03f115156119ef57600080fd5b505050604051805190501515611a0457600080fd5b600d6000836003015481526020019081526020016000209050338160000160006101000a81548173ffffffffffffffffffffffffffffffffffffffff021916908373ffffffffffffffffffffffffffffffffffffffff1602179055506007548160010181905550600954420181600201819055506001600c60008460030154815260200190815260200160002060006101000a81548160ff02191690831515021790555081600301548373ffffffffffffffffffffffffffffffffffffffff163373ffffffffffffffffffffffffffffffffffffffff167f7a7923ffd244a11660c8a80e5c5327553e2a666e26cf46566b3ecf10bd345ff860405160405180910390a4505050565b60085481565b6000600160008473ffffffffffffffffffffffffffffffffffffffff1673ffffffffffffffffffffffffffffffffffffffff16815260200190815260200160002090503373ffffffffffffffffffffffffffffffffffffffff168160010160019054906101000a900473ffffffffffffffffffffffffffffffffffffffff1673ffffffffffffffffffffffffffffffffffffffff16141515611bb357600080fd5b600260009054906101000a900473ffffffffffffffffffffffffffffffffffffffff1673ffffffffffffffffffffffffffffffffffffffff166323b872dd3330856000604051602001526040518463ffffffff167c0100000000000000000000000000000000000000000000000000000000028152600401808473ffffffffffffffffffffffffffffffffffffffff1673ffffffffffffffffffffffffffffffffffffffff1681526020018373ffffffffffffffffffffffffffffffffffffffff1673ffffffffffffffffffffffffffffffffffffffff1681526020018281526020019350505050602060405180830381600087803b1515611cb457600080fd5b6102c65a03f11515611cc557600080fd5b505050604051805190501515611cda57600080fd5b8181600201600082825401925050819055508273ffffffffffffffffffffffffffffffffffffffff167f90890809c654f11d6e72a28fa60149770a0d11ec6c92319d6ceb2bb0a4ea1a15838360020154604051808381526020018281526020019250505060405180910390a2505050565b60055481565b8260008190503373ffffffffffffffffffffffffffffffffffffffff168173ffffffffffffffffffffffffffffffffffffffff16638da5cb5b6000604051602001526040518163ffffffff167c0100000000000000000000000000000000000000000000000000000000028152600401602060405180830381600087803b1515611dda57600080fd5b6102c65a03f11515611deb57600080fd5b5050506040518051905073ffffffffffffffffffffffffffffffffffffffff16141515611e1757600080fd5b611e228585856142c9565b5050505050565b600080600160008473ffffffffffffffffffffffffffffffffffffffff1673ffffffffffffffffffffffffffffffffffffffff16815260200190815260200160002060000154119050919050565b600b6020528060005260406000206000915090505481565b60016020528060005260406000206000915090508060000154908060010160009054906101000a900460ff16908060010160019054906101000a900473ffffffffffffffffffffffffffffffffffffffff16908060020154908060030154905085565b600080600160008473ffffffffffffffffffffffffffffffffffffffff1673ffffffffffffffffffffffffffffffffffffffff1681526020019081526020016000206003015490506000600160008573ffffffffffffffffffffffffffffffffffffffff1673ffffffffffffffffffffffffffffffffffffffff16815260200190815260200160002060030154118015611fac575060008082815260200190815260200160002060010160149054906101000a900460ff16155b915050919050565b60008060001515600e600086815260200190815260200160002060040160003373ffffffffffffffffffffffffffffffffffffffff1673ffffffffffffffffffffffffffffffffffffffff16815260200190815260200160002060009054906101000a900460ff16151514151561202a57600080fd5b60011515600e600086815260200190815260200160002060010160149054906101000a900460ff16151514151561206057600080fd5b600360009054906101000a900473ffffffffffffffffffffffffffffffffffffffff1673ffffffffffffffffffffffffffffffffffffffff1663ee8badd7338686600080604051602001526040518563ffffffff167c0100000000000000000000000000000000000000000000000000000000028152600401808573ffffffffffffffffffffffffffffffffffffffff1673ffffffffffffffffffffffffffffffffffffffff16815260200184815260200183815260200182151515158152602001945050505050602060405180830381600087803b151561214157600080fd5b6102c65a03f1151561215257600080fd5b505050604051805190509150612169338585612e7c565b905081600e60008681526020019081526020016000206003016000828254039250508190555080600e600086815260200190815260200160002060000160008282540392505081905550600260009054906101000a900473ffffffffffffffffffffffffffffffffffffffff1673ffffffffffffffffffffffffffffffffffffffff1663a9059cbb33836000604051602001526040518363ffffffff167c0100000000000000000000000000000000000000000000000000000000028152600401808373ffffffffffffffffffffffffffffffffffffffff1673ffffffffffffffffffffffffffffffffffffffff16815260200182815260200192505050602060405180830381600087803b151561228057600080fd5b6102c65a03f1151561229157600080fd5b5050506040518051905015156122a657600080fd5b6001600e600086815260200190815260200160002060040160003373ffffffffffffffffffffffffffffffffffffffff1673ffffffffffffffffffffffffffffffffffffffff16815260200190815260200160002060006101000a81548160ff021916908315150217905550833373ffffffffffffffffffffffffffffffffffffffff167ff01da32686223933d8a18a391060918c7f11a3648639edd87ae013e2e2731743836040518082815260200191505060405180910390a350505050565b6000600e600083815260200190815260200160002060010160149054906101000a900460ff1615801561244a5750600360009054906101000a900473ffffffffffffffffffffffffffffffffffffffff1673ffffffffffffffffffffffffffffffffffffffff1663ee684830836000604051602001526040518263ffffffff167c010000000000000000000000000000000000000000000000000000000002815260040180828152602001915050602060405180830381600087803b151561242e57600080fd5b6102c65a03f1151561243f57600080fd5b505050604051805190505b151561245557600080fd5b6000600360009054906101000a900473ffffffffffffffffffffffffffffffffffffffff1673ffffffffffffffffffffffffffffffffffffffff1663053e71a6846000604051602001526040518263ffffffff167c010000000000000000000000000000000000000000000000000000000002815260040180828152602001915050602060405180830381600087803b15156124f057600080fd5b6102c65a03f1151561250157600080fd5b50505060405180519050141561253257600e6000838152602001908152602001600020600201546002029050612567565b600e600083815260200190815260200160002060000154600e6000848152602001908152602001600020600201546002020390505b919050565b600e6020528060005260406000206000915090508060000154908060010160009054906101000a900473ffffffffffffffffffffffffffffffffffffffff16908060010160149054906101000a900460ff16908060020154908060030154905085565b600660009054906101000a900473ffffffffffffffffffffffffffffffffffffffff1673ffffffffffffffffffffffffffffffffffffffff163373ffffffffffffffffffffffffffffffffffffffff1614151561262b57600080fd5b60008111151561263a57600080fd5b806007819055507ff6374eb73c33cf2a75b7d060f0c97c0ff6efcec0e8844b1746e73034ec9699d0816040518082815260200191505060405180910390a150565b60075481565b600f6020528060005260406000206000915054906101000a900460ff1681565b600080600660009054906101000a900473ffffffffffffffffffffffffffffffffffffffff1673ffffffffffffffffffffffffffffffffffffffff163373ffffffffffffffffffffffffffffffffffffffff1614151561270057600080fd5b600160008473ffffffffffffffffffffffffffffffffffffffff1673ffffffffffffffffffffffffffffffffffffffff1681526020019081526020016000209150600d600083600301548152602001908152602001600020905042816002015411151561276c57600080fd5b8060030160009054906101000a900460ff1615151561278a57600080fd5b60018160030160006101000a81548160ff021916908315150217905550600460009054906101000a900473ffffffffffffffffffffffffffffffffffffffff1673ffffffffffffffffffffffffffffffffffffffff1663693ec85e6000604051602001526040518163ffffffff167c01000000000000000000000000000000000000000000000000000000000281526004018080602001828103825260128152602001807f6368616c6c656e676541707065616c4c656e0000000000000000000000000000815250602001915050602060405180830381600087803b151561287157600080fd5b6102c65a03f1151561288257600080fd5b50505060405180519050420181600401819055508273ffffffffffffffffffffffffffffffffffffffff167f25f5ea68e34f6d6918854432015e5286b3b35476963d7aebf37fbe7f95983c5d60405160405180910390a2505050565b6000600160008373ffffffffffffffffffffffffffffffffffffffff1673ffffffffffffffffffffffffffffffffffffffff16815260200190815260200160002090503373ffffffffffffffffffffffffffffffffffffffff168160010160019054906101000a900473ffffffffffffffffffffffffffffffffffffffff1673ffffffffffffffffffffffffffffffffffffffff1614151561297f57600080fd5b600160008373ffffffffffffffffffffffffffffffffffffffff1673ffffffffffffffffffffffffffffffffffffffff16815260200190815260200160002060010160009054906101000a900460ff1615156129da57600080fd5b600081600301541480612a1057506000808260030154815260200190815260200160002060010160149054906101000a900460ff165b1515612a1b57600080fd5b612a24826142f1565b5050565b6000806000151560008086815260200190815260200160002060040160003373ffffffffffffffffffffffffffffffffffffffff1673ffffffffffffffffffffffffffffffffffffffff16815260200190815260200160002060009054906101000a900460ff161515141515612a9d57600080fd5b6001151560008086815260200190815260200160002060010160149054906101000a900460ff161515141515612ad257600080fd5b600360009054906101000a900473ffffffffffffffffffffffffffffffffffffffff1673ffffffffffffffffffffffffffffffffffffffff1663ee8badd7338686600d60008a815260200190815260200160002060030160009054906101000a900460ff166000604051602001526040518563ffffffff167c0100000000000000000000000000000000000000000000000000000000028152600401808573ffffffffffffffffffffffffffffffffffffffff1673ffffffffffffffffffffffffffffffffffffffff16815260200184815260200183815260200182151515158152602001945050505050602060405180830381600087803b1515612bd657600080fd5b6102c65a03f11515612be757600080fd5b505050604051805190509150612bfe338585612e7c565b905081600080868152602001908152602001600020600301600082825403925050819055508060008086815260200190815260200160002060000160008282540392505081905550600260009054906101000a900473ffffffffffffffffffffffffffffffffffffffff1673ffffffffffffffffffffffffffffffffffffffff1663a9059cbb33836000604051602001526040518363ffffffff167c0100000000000000000000000000000000000000000000000000000000028152600401808373ffffffffffffffffffffffffffffffffffffffff1673ffffffffffffffffffffffffffffffffffffffff16815260200182815260200192505050602060405180830381600087803b1515612d1357600080fd5b6102c65a03f11515612d2457600080fd5b505050604051805190501515612d3957600080fd5b600160008086815260200190815260200160002060040160003373ffffffffffffffffffffffffffffffffffffffff1673ffffffffffffffffffffffffffffffffffffffff16815260200190815260200160002060006101000a81548160ff021916908315150217905550833373ffffffffffffffffffffffffffffffffffffffff167ff01da32686223933d8a18a391060918c7f11a3648639edd87ae013e2e2731743836040518082815260200191505060405180910390a350505050565b60006020528060005260406000206000915090508060000154908060010160009054906101000a900473ffffffffffffffffffffffffffffffffffffffff16908060010160149054906101000a900460ff16908060020154908060030154905085565b600c6020528060005260406000206000915054906101000a900460ff1681565b6000806000806000806000888152602001908152602001600020600301549350600080888152602001908152602001600020600001549250600d600088815260200190815260200160002060030160009054906101000a900460ff168015612f025750600f600088815260200190815260200160002060009054906101000a900460ff16155b9150600360009054906101000a900473ffffffffffffffffffffffffffffffffffffffff1673ffffffffffffffffffffffffffffffffffffffff1663ee8badd7898989866000604051602001526040518563ffffffff167c0100000000000000000000000000000000000000000000000000000000028152600401808573ffffffffffffffffffffffffffffffffffffffff1673ffffffffffffffffffffffffffffffffffffffff16815260200184815260200183815260200182151515158152602001945050505050602060405180830381600087803b1515612fe557600080fd5b6102c65a03f11515612ff657600080fd5b5050506040518051905090508383820281151561300f57fe5b049450505050509392505050565b600d6020528060005260406000206000915090508060000160009054906101000a900473ffffffffffffffffffffffffffffffffffffffff16908060010154908060020154908060030160009054906101000a900460ff16908060040154908060050154905086565b6000600e600084815260200190815260200160002060040160008373ffffffffffffffffffffffffffffffffffffffff1673ffffffffffffffffffffffffffffffffffffffff16815260200190815260200160002060009054906101000a900460ff16905092915050565b600660009054906101000a900473ffffffffffffffffffffffffffffffffffffffff1673ffffffffffffffffffffffffffffffffffffffff163373ffffffffffffffffffffffffffffffffffffffff1614151561314d57600080fd5b60008111151561315c57600080fd5b806008819055507f2c2c75d02a201fbf3127fb9b341df2d73db49e6b29860bd720fdec66f99e16fe816040518082815260200191505060405180910390a150565b60008060006131ac85856144f6565b91506000821415156133a457600854600460009054906101000a900473ffffffffffffffffffffffffffffffffffffffff1673ffffffffffffffffffffffffffffffffffffffff1663693ec85e6000604051602001526040518163ffffffff167c010000000000000000000000000000000000000000000000000000000002815260040180806020018281038252600e8152602001807f72657665616c53746167654c656e000000000000000000000000000000000000815250602001915050602060405180830381600087803b151561328557600080fd5b6102c65a03f1151561329657600080fd5b50505060405180519050600460009054906101000a900473ffffffffffffffffffffffffffffffffffffffff1673ffffffffffffffffffffffffffffffffffffffff1663693ec85e6000604051602001526040518163ffffffff167c010000000000000000000000000000000000000000000000000000000002815260040180806020018281038252600e8152602001807f636f6d6d697453746167654c656e000000000000000000000000000000000000815250602001915050602060405180830381600087803b151561336a57600080fd5b6102c65a03f1151561337b57600080fd5b5050506040518051905001019050804201600b6000848152602001908152602001600020819055505b819250505092915050565b600080600084815260200190815260200160002060040160008373ffffffffffffffffffffffffffffffffffffffff1673ffffffffffffffffffffffffffffffffffffffff16815260200190815260200160002060009054906101000a900460ff16905092915050565b600080600083815260200190815260200160002060010160149054906101000a900460ff161580156134fb5750600360009054906101000a900473ffffffffffffffffffffffffffffffffffffffff1673ffffffffffffffffffffffffffffffffffffffff1663ee684830836000604051602001526040518263ffffffff167c010000000000000000000000000000000000000000000000000000000002815260040180828152602001915050602060405180830381600087803b15156134df57600080fd5b6102c65a03f115156134f057600080fd5b505050604051805190505b151561350657600080fd5b6000600360009054906101000a900473ffffffffffffffffffffffffffffffffffffffff1673ffffffffffffffffffffffffffffffffffffffff1663053e71a6846000604051602001526040518263ffffffff167c010000000000000000000000000000000000000000000000000000000002815260040180828152602001915050602060405180830381600087803b15156135a157600080fd5b6102c65a03f115156135b257600080fd5b5050506040518051905014156135e257600080838152602001908152602001600020600201546002029050613615565b60008083815260200190815260200160002060000154600080848152602001908152602001600020600201546002020390505b919050565b600660009054906101000a900473ffffffffffffffffffffffffffffffffffffffff1681565b600080600160008473ffffffffffffffffffffffffffffffffffffffff1673ffffffffffffffffffffffffffffffffffffffff16815260200190815260200160002060030154905061369183611e29565b80156136de575042600160008573ffffffffffffffffffffffffffffffffffffffff1673ffffffffffffffffffffffffffffffffffffffff16815260200190815260200160002060000154105b80156137375750600160008473ffffffffffffffffffffffffffffffffffffffff1673ffffffffffffffffffffffffffffffffffffffff16815260200190815260200160002060010160009054906101000a900460ff16155b80156137745750600081148061377357506001151560008083815260200190815260200160002060010160149054906101000a900460ff161515145b5b156137825760019150613787565b600091505b50919050565b600460009054906101000a900473ffffffffffffffffffffffffffffffffffffffff1681565b6000600160008473ffffffffffffffffffffffffffffffffffffffff1673ffffffffffffffffffffffffffffffffffffffff16815260200190815260200160002090503373ffffffffffffffffffffffffffffffffffffffff168160010160019054906101000a900473ffffffffffffffffffffffffffffffffffffffff1673ffffffffffffffffffffffffffffffffffffffff1614151561385457600080fd5b8060020154821115151561386757600080fd5b600460009054906101000a900473ffffffffffffffffffffffffffffffffffffffff1673ffffffffffffffffffffffffffffffffffffffff1663693ec85e6000604051602001526040518163ffffffff167c010000000000000000000000000000000000000000000000000000000002815260040180806020018281038252600a8152602001807f6d696e4465706f73697400000000000000000000000000000000000000000000815250602001915050602060405180830381600087803b151561393157600080fd5b6102c65a03f1151561394257600080fd5b50505060405180519050828260020154031015151561396057600080fd5b600260009054906101000a900473ffffffffffffffffffffffffffffffffffffffff1673ffffffffffffffffffffffffffffffffffffffff1663a9059cbb33846000604051602001526040518363ffffffff167c0100000000000000000000000000000000000000000000000000000000028152600401808373ffffffffffffffffffffffffffffffffffffffff1673ffffffffffffffffffffffffffffffffffffffff16815260200182815260200192505050602060405180830381600087803b1515613a2d57600080fd5b6102c65a03f11515613a3e57600080fd5b505050604051805190501515613a5357600080fd5b8181600201600082825403925050819055508273ffffffffffffffffffffffffffffffffffffffff167fdf273cb619d95419a9cd0ec88123a0538c85064229baa6363788f743fff90deb838360020154604051808381526020018281526020019250505060405180910390a2505050565b600260009054906101000a900473ffffffffffffffffffffffffffffffffffffffff1681565b600360009054906101000a900473ffffffffffffffffffffffffffffffffffffffff1681565b60018060008373ffffffffffffffffffffffffffffffffffffffff1673ffffffffffffffffffffffffffffffffffffffff16815260200190815260200160002060010160006101000a81548160ff02191690831515021790555050565b6000806000600160008573ffffffffffffffffffffffffffffffffffffffff1673ffffffffffffffffffffffffffffffffffffffff168152602001908152602001600020600301549250613bc083613419565b9150600160008573ffffffffffffffffffffffffffffffffffffffff1673ffffffffffffffffffffffffffffffffffffffff16815260200190815260200160002060010160009054906101000a900460ff169050600360009054906101000a900473ffffffffffffffffffffffffffffffffffffffff1673ffffffffffffffffffffffffffffffffffffffff166349403183846000604051602001526040518263ffffffff167c010000000000000000000000000000000000000000000000000000000002815260040180828152602001915050602060405180830381600087803b1515613cad57600080fd5b6102c65a03f11515613cbe57600080fd5b5050506040518051905015613dba57613cd684613b10565b81600160008673ffffffffffffffffffffffffffffffffffffffff1673ffffffffffffffffffffffffffffffffffffffff16815260200190815260200160002060020160008282540192505081905550828473ffffffffffffffffffffffffffffffffffffffff167fe5eb7319dd3f024d9f26b0714c4966136f6b7307d3345019df767d4cba3c74a660405160405180910390a3801515613db5578373ffffffffffffffffffffffffffffffffffffffff167f0be47533fe1d2625f0c1e32e07a77950b8d95efd37b95b8cac0f19a6124d520460405160405180910390a25b613fc2565b613dc3846142f1565b600260009054906101000a900473ffffffffffffffffffffffffffffffffffffffff1673ffffffffffffffffffffffffffffffffffffffff1663a9059cbb60008086815260200190815260200160002060010160009054906101000a900473ffffffffffffffffffffffffffffffffffffffff16846000604051602001526040518363ffffffff167c0100000000000000000000000000000000000000000000000000000000028152600401808373ffffffffffffffffffffffffffffffffffffffff1673ffffffffffffffffffffffffffffffffffffffff16815260200182815260200192505050602060405180830381600087803b1515613ec557600080fd5b6102c65a03f11515613ed657600080fd5b505050604051805190501515613eeb57600080fd5b828473ffffffffffffffffffffffffffffffffffffffff167f5605aad1542ddbc8658ce502e0fe64c9566401dcb3041f6a9844a9d82195a27360405160405180910390a38015613f7d578373ffffffffffffffffffffffffffffffffffffffff167feaff2f39998930238b3508c586198a5a51a4d53ea343ce57bbd1556c03256e9160405160405180910390a2613fc1565b8373ffffffffffffffffffffffffffffffffffffffff167f405517e310c96c410ba1acddffb912c6acc98afceb6449c0b8cef3459fb5de1060405160405180910390a25b5b600160008085815260200190815260200160002060010160146101000a81548160ff021916908315150217905550600360009054906101000a900473ffffffffffffffffffffffffffffffffffffffff1673ffffffffffffffffffffffffffffffffffffffff1663053e71a6846000604051602001526040518263ffffffff167c010000000000000000000000000000000000000000000000000000000002815260040180828152602001915050602060405180830381600087803b151561408957600080fd5b6102c65a03f1151561409a57600080fd5b505050604051805190506000808581526020019081526020016000206003018190555050505050565b600080600080600160008673ffffffffffffffffffffffffffffffffffffffff1673ffffffffffffffffffffffffffffffffffffffff1681526020019081526020016000209350600d60008560030154815260200190815260200160002092508260030160009054906101000a900460ff161561426357600260009054906101000a900473ffffffffffffffffffffffffffffffffffffffff1673ffffffffffffffffffffffffffffffffffffffff1663a9059cbb8460000160009054906101000a900473ffffffffffffffffffffffffffffffffffffffff1685600101546000604051602001526040518363ffffffff167c0100000000000000000000000000000000000000000000000000000000028152600401808373ffffffffffffffffffffffffffffffffffffffff1673ffffffffffffffffffffffffffffffffffffffff16815260200182815260200192505050602060405180830381600087803b151561422f57600080fd5b6102c65a03f1151561424057600080fd5b50505060405180519050151561425557600080fd5b61425e85614e7a565b6142c2565b6000808560030154815260200190815260200160002091506002836001015481151561428b57fe5b0490508082600001600082825401925050819055508083600101540382600201600082825401925050819055506142c185613b6d565b5b5050505050565b826000813b90506000811115156142df57600080fd5b6142ea8585856153c4565b5050505050565b6000600160008373ffffffffffffffffffffffffffffffffffffffff1673ffffffffffffffffffffffffffffffffffffffff168152602001908152602001600020905060008160020154111561445d57600260009054906101000a900473ffffffffffffffffffffffffffffffffffffffff1673ffffffffffffffffffffffffffffffffffffffff1663a9059cbb8260010160019054906101000a900473ffffffffffffffffffffffffffffffffffffffff1683600201546000604051602001526040518363ffffffff167c0100000000000000000000000000000000000000000000000000000000028152600401808373ffffffffffffffffffffffffffffffffffffffff1673ffffffffffffffffffffffffffffffffffffffff16815260200182815260200192505050602060405180830381600087803b151561443657600080fd5b6102c65a03f1151561444757600080fd5b50505060405180519050151561445c57600080fd5b5b600160008373ffffffffffffffffffffffffffffffffffffffff1673ffffffffffffffffffffffffffffffffffffffff1681526020019081526020016000206000808201600090556001820160006101000a81549060ff02191690556001820160016101000a81549073ffffffffffffffffffffffffffffffffffffffff02191690556002820160009055600382016000905550505050565b600080600080600160008773ffffffffffffffffffffffffffffffffffffffff1673ffffffffffffffffffffffffffffffffffffffff1681526020019081526020016000209250600460009054906101000a900473ffffffffffffffffffffffffffffffffffffffff1673ffffffffffffffffffffffffffffffffffffffff1663693ec85e6000604051602001526040518163ffffffff167c010000000000000000000000000000000000000000000000000000000002815260040180806020018281038252600a8152602001807f6d696e4465706f73697400000000000000000000000000000000000000000000815250602001915050602060405180830381600087803b151561460757600080fd5b6102c65a03f1151561461857600080fd5b50505060405180519050915061462d86611e29565b8061464657508260010160009054906101000a900460ff165b151561465157600080fd5b60008360030154148061468757506000808460030154815260200190815260200160002060010160149054906101000a900460ff165b151561469257600080fd5b81836002015410156146b0576146a7866142f1565b60009350614e71565b600260009054906101000a900473ffffffffffffffffffffffffffffffffffffffff1673ffffffffffffffffffffffffffffffffffffffff166323b872dd3330856000604051602001526040518463ffffffff167c0100000000000000000000000000000000000000000000000000000000028152600401808473ffffffffffffffffffffffffffffffffffffffff1673ffffffffffffffffffffffffffffffffffffffff1681526020018373ffffffffffffffffffffffffffffffffffffffff1673ffffffffffffffffffffffffffffffffffffffff1681526020018281526020019350505050602060405180830381600087803b15156147b157600080fd5b6102c65a03f115156147c257600080fd5b5050506040518051905015156147d757600080fd5b600360009054906101000a900473ffffffffffffffffffffffffffffffffffffffff1673ffffffffffffffffffffffffffffffffffffffff166332ed3d60600460009054906101000a900473ffffffffffffffffffffffffffffffffffffffff1673ffffffffffffffffffffffffffffffffffffffff1663693ec85e6000604051602001526040518163ffffffff167c010000000000000000000000000000000000000000000000000000000002815260040180806020018281038252600a8152602001807f766f746551756f72756d00000000000000000000000000000000000000000000815250602001915050602060405180830381600087803b15156148df57600080fd5b6102c65a03f115156148f057600080fd5b50505060405180519050600460009054906101000a900473ffffffffffffffffffffffffffffffffffffffff1673ffffffffffffffffffffffffffffffffffffffff1663693ec85e6000604051602001526040518163ffffffff167c010000000000000000000000000000000000000000000000000000000002815260040180806020018281038252600e8152602001807f636f6d6d697453746167654c656e000000000000000000000000000000000000815250602001915050602060405180830381600087803b15156149c457600080fd5b6102c65a03f115156149d557600080fd5b50505060405180519050600460009054906101000a900473ffffffffffffffffffffffffffffffffffffffff1673ffffffffffffffffffffffffffffffffffffffff1663693ec85e6000604051602001526040518163ffffffff167c010000000000000000000000000000000000000000000000000000000002815260040180806020018281038252600e8152602001807f72657665616c53746167654c656e000000000000000000000000000000000000815250602001915050602060405180830381600087803b1515614aa957600080fd5b6102c65a03f11515614aba57600080fd5b505050604051805190506000604051602001526040518463ffffffff167c0100000000000000000000000000000000000000000000000000000000028152600401808481526020018381526020018281526020019350505050602060405180830381600087803b1515614b2c57600080fd5b6102c65a03f11515614b3d57600080fd5b50505060405180519050905060a060405190810160405280606484600460009054906101000a900473ffffffffffffffffffffffffffffffffffffffff1673ffffffffffffffffffffffffffffffffffffffff1663693ec85e6000604051602001526040518163ffffffff167c010000000000000000000000000000000000000000000000000000000002815260040180806020018281038252600f8152602001807f64697370656e736174696f6e5063740000000000000000000000000000000000815250602001915050602060405180830381600087803b1515614c2257600080fd5b6102c65a03f11515614c3357600080fd5b5050506040518051905060640302811515614c4a57fe5b0481526020013373ffffffffffffffffffffffffffffffffffffffff16815260200160001515815260200183815260200160008152506000808381526020019081526020016000206000820151816000015560208201518160010160006101000a81548173ffffffffffffffffffffffffffffffffffffffff021916908373ffffffffffffffffffffffffffffffffffffffff16021790555060408201518160010160146101000a81548160ff021916908315150217905550606082015181600201556080820151816003015590505080600160008873ffffffffffffffffffffffffffffffffffffffff1673ffffffffffffffffffffffffffffffffffffffff1681526020019081526020016000206003018190555081600160008873ffffffffffffffffffffffffffffffffffffffff1673ffffffffffffffffffffffffffffffffffffffff16815260200190815260200160002060020160008282540392505081905550808673ffffffffffffffffffffffffffffffffffffffff167fba4fed76bf6f631503eec96cf182e07300945e578c5abd54d73d9794448de9a484886040518083815260200180602001828103825283818151815260200191508051906020019080838360005b83811015614e32578082015181840152602081019050614e17565b50505050905090810190601f168015614e5f5780820380516001836020036101000a031916815260200191505b50935050505060405180910390a38093505b50505092915050565b600080600080600160008673ffffffffffffffffffffffffffffffffffffffff1673ffffffffffffffffffffffffffffffffffffffff1681526020019081526020016000206003015493506000808581526020019081526020016000209250614ee284613419565b9150600160008673ffffffffffffffffffffffffffffffffffffffff1673ffffffffffffffffffffffffffffffffffffffff16815260200190815260200160002060010160009054906101000a900460ff169050600360009054906101000a900473ffffffffffffffffffffffffffffffffffffffff1673ffffffffffffffffffffffffffffffffffffffff166349403183856000604051602001526040518263ffffffff167c010000000000000000000000000000000000000000000000000000000002815260040180828152602001915050602060405180830381600087803b1515614fcf57600080fd5b6102c65a03f11515614fe057600080fd5b50505060405180519050156151fb57614ff8856142f1565b600260009054906101000a900473ffffffffffffffffffffffffffffffffffffffff1673ffffffffffffffffffffffffffffffffffffffff1663a9059cbb60008087815260200190815260200160002060010160009054906101000a900473ffffffffffffffffffffffffffffffffffffffff16846000604051602001526040518363ffffffff167c0100000000000000000000000000000000000000000000000000000000028152600401808373ffffffffffffffffffffffffffffffffffffffff1673ffffffffffffffffffffffffffffffffffffffff16815260200182815260200192505050602060405180830381600087803b15156150fa57600080fd5b6102c65a03f1151561510b57600080fd5b50505060405180519050151561512057600080fd5b838573ffffffffffffffffffffffffffffffffffffffff167f268bcfa4a7f7ac3640368646c7cc78cd07140645b51c36136cd5b4e5b37bb23b60405160405180910390a380156151b2578473ffffffffffffffffffffffffffffffffffffffff167feaff2f39998930238b3508c586198a5a51a4d53ea343ce57bbd1556c03256e9160405160405180910390a26151f6565b8473ffffffffffffffffffffffffffffffffffffffff167f405517e310c96c410ba1acddffb912c6acc98afceb6449c0b8cef3459fb5de1060405160405180910390a25b6152e4565b61520485613b10565b81600160008773ffffffffffffffffffffffffffffffffffffffff1673ffffffffffffffffffffffffffffffffffffffff16815260200190815260200160002060020160008282540192505081905550838573ffffffffffffffffffffffffffffffffffffffff167f74c6a897d4e4c4bce8d0ba0c3756973373bbe74a0346b76185b55732cb373cae60405160405180910390a38015156152e3578473ffffffffffffffffffffffffffffffffffffffff167f0be47533fe1d2625f0c1e32e07a77950b8d95efd37b95b8cac0f19a6124d520460405160405180910390a25b5b60018360010160146101000a81548160ff021916908315150217905550600360009054906101000a900473ffffffffffffffffffffffffffffffffffffffff1673ffffffffffffffffffffffffffffffffffffffff1663e8cfa3f0856000604051602001526040518263ffffffff167c010000000000000000000000000000000000000000000000000000000002815260040180828152602001915050602060405180830381600087803b151561539a57600080fd5b6102c65a03f115156153ab57600080fd5b5050506040518051905083600301819055505050505050565b6000600160008573ffffffffffffffffffffffffffffffffffffffff1673ffffffffffffffffffffffffffffffffffffffff16815260200190815260200160002060010160009054906101000a900460ff1615151561542257600080fd5b61542b84611e29565b15151561543757600080fd5b600460009054906101000a900473ffffffffffffffffffffffffffffffffffffffff1673ffffffffffffffffffffffffffffffffffffffff1663693ec85e6000604051602001526040518163ffffffff167c010000000000000000000000000000000000000000000000000000000002815260040180806020018281038252600a8152602001807f6d696e4465706f73697400000000000000000000000000000000000000000000815250602001915050602060405180830381600087803b151561550157600080fd5b6102c65a03f1151561551257600080fd5b50505060405180519050831015151561552a57600080fd5b42600460009054906101000a900473ffffffffffffffffffffffffffffffffffffffff1673ffffffffffffffffffffffffffffffffffffffff1663693ec85e6000604051602001526040518163ffffffff167c010000000000000000000000000000000000000000000000000000000002815260040180806020018281038252600d8152602001807f6170706c7953746167654c656e00000000000000000000000000000000000000815250602001915050602060405180830381600087803b15156155f557600080fd5b6102c65a03f1151561560657600080fd5b50505060405180519050420111151561561e57600080fd5b600160008573ffffffffffffffffffffffffffffffffffffffff1673ffffffffffffffffffffffffffffffffffffffff1681526020019081526020016000209050338160010160016101000a81548173ffffffffffffffffffffffffffffffffffffffff021916908373ffffffffffffffffffffffffffffffffffffffff160217905550600260009054906101000a900473ffffffffffffffffffffffffffffffffffffffff1673ffffffffffffffffffffffffffffffffffffffff166323b872dd3330866000604051602001526040518463ffffffff167c0100000000000000000000000000000000000000000000000000000000028152600401808473ffffffffffffffffffffffffffffffffffffffff1673ffffffffffffffffffffffffffffffffffffffff1681526020018373ffffffffffffffffffffffffffffffffffffffff1673ffffffffffffffffffffffffffffffffffffffff1681526020018281526020019350505050602060405180830381600087803b15156157a357600080fd5b6102c65a03f115156157b457600080fd5b5050506040518051905015156157c957600080fd5b600460009054906101000a900473ffffffffffffffffffffffffffffffffffffffff1673ffffffffffffffffffffffffffffffffffffffff1663693ec85e6000604051602001526040518163ffffffff167c010000000000000000000000000000000000000000000000000000000002815260040180806020018281038252600d8152602001807f6170706c7953746167654c656e00000000000000000000000000000000000000815250602001915050602060405180830381600087803b151561589357600080fd5b6102c65a03f115156158a457600080fd5b50505060405180519050420181600001819055508281600201819055508373ffffffffffffffffffffffffffffffffffffffff167f4620cb889f28e046fa2dc2a5a1f58d13dd1d89e30b4edbea3c66a6285719b94984846040518083815260200180602001828103825283818151815260200191508051906020019080838360005b83811015615941578082015181840152602081019050615926565b50505050905090810190601f16801561596e5780820380516001836020036101000a031916815260200191505b50935050505060405180910390a2505050505600a165627a7a723058207d50f57d5156db05895659996101833d6ccc97d51a73805a77aa77577ce20b380029",
  "source": "pragma solidity ^0.4.19;\n\nimport \"./RestrictedAddressRegistry.sol\";\n\n/**\n@title TCR with appeallate functionality and restrictions on application \n@author Nick Reynolds - nick@joincivil.com\n@notice The CivilTCR is a TCR with restrictions (contracts must have IACL\nimplementation, and only the ACL superuser of a contract can apply on behalf of that contract)\nand an appeallate entity that can overturn challenges if someone requests an appeal, and a process\nby which granted appeals can be vetoed by a supermajority vote\n\"Listing\" refers to the data associated with an address at any stage of the lifecycle (e.g.\n\"Listing in Application\", \"Listing in Challenge\", \"Listing on Whitelist\", \"Denied Listing\", etc).\n*/\ncontract CivilTCR is RestrictedAddressRegistry {\n\n  event AppealRequested(address indexed requester, address indexed listing, uint indexed challengeID);\n  event AppealGranted(address indexed listing);\n  event AppealFeeSet(uint fee);\n  event MakeAppealLengthSet(uint length);\n  event AppealLengthSet(uint length);\n  event FailedChallengeOverturned(address indexed listing, uint indexed challengeID);\n  event SuccessfulChallengeOverturned(address indexed listing, uint indexed challengeID);\n  event GrantedAppealChallenged(address indexed listing, uint indexed challengeID, uint indexed appealChallengeID, string data);\n  event GrantedAppealOverturned(address indexed listing, uint indexed challengeID, uint indexed appealChallengeID);\n  event GrantedAppealConfirmed(address indexed listing, uint indexed challengeID, uint indexed appealChallengeID);\n\n  modifier onlyAppellate {\n    require(msg.sender == appellate);\n    _;\n  }\n\n  address public appellate;\n  uint public appealFee;\n  uint public requestAppealPhaseLength;\n  uint public judgeAppealPhaseLength;\n\n  uint public appealSupermajorityPercentage = 66;\n\n  /*\n  @notice this struct handles the state of an appeal. It is first initialized \n          when updateStatus is called after a successful challenge.\n  */\n  struct Appeal {\n    address requester;\n    uint appealFeePaid;\n    uint appealPhaseExpiry;\n    bool appealGranted;\n    uint appealOpenToChallengeExpiry;\n    uint appealChallengeID;\n  }\n\n  mapping(uint => uint) public challengeRequestAppealExpiries;\n  mapping(uint => bool) public appealRequested; // map challengeID to was appeal requested\n  mapping(uint => Appeal) public appeals; // map challengeID to appeal\n  mapping(uint => Challenge) public appealChallenges; // map challengeID to Challenges of the original Challenge's Appeal\n  mapping(uint => bool) public appealOverturned; // map challengeID to whether or not the appeal of that challenge was overturned\n\n  /**\n  @dev Contructor           Sets the addresses for token, voting, parameterizer, appellate, and fee recipient\n  @param tokenAddr          Address of the TCR's intrinsic ERC20 token\n  @param plcrAddr           Address of a PLCR voting contract for the provided token\n  @param paramsAddr         Address of a Parameterizer contract \n  @param appellateAddr      Address of appellate entity, which could be a regular user, although multisig is recommended\n  */\n  function CivilTCR(\n    address tokenAddr,\n    address plcrAddr,\n    address paramsAddr,\n    address appellateAddr,\n    uint appealFeeAmount,\n    uint requestAppealLength,\n    uint judgeAppealLength\n  ) public RestrictedAddressRegistry(tokenAddr, plcrAddr, paramsAddr)\n  {\n    appellate = appellateAddr;\n    requestAppealPhaseLength = requestAppealLength;\n    judgeAppealPhaseLength = judgeAppealLength;\n    appealFee = appealFeeAmount;\n  }\n\n  // --------------------\n  // LISTING OWNER INTERFACE:\n  // --------------------\n\n  /**\n  @notice Requests an appeal for a listing that has been successfully challenged (and had state updated)\n  In order to request appeal, the following conditions must be met:\n  - voting for challenge has ended\n  - (now < request appeal expiry) \n  - appeal not already requested\n  - appeal requester transfers appealFee to TCR\n  @param listingAddress address of listing that has challenged result that the user wants to appeal\n  */\n  function requestAppeal(address listingAddress) external {\n    Listing storage listing = listings[listingAddress];\n    require(voting.pollEnded(listing.challengeID));\n    require(challengeRequestAppealExpiries[listing.challengeID] > now); // \"Request Appeal Phase\" active\n    require(!appealRequested[listing.challengeID]);\n    require(token.transferFrom(msg.sender, this, appealFee));\n\n    Appeal storage appeal = appeals[listing.challengeID];\n    appeal.requester = msg.sender;\n    appeal.appealFeePaid = appealFee;\n    appeal.appealPhaseExpiry = now + judgeAppealPhaseLength;\n    appealRequested[listing.challengeID] = true;\n    AppealRequested(msg.sender, listingAddress, listing.challengeID);\n  }\n\n  // --------\n  // APPELLATE INTERFACE:\n  // --------\n\n  /**\n  @notice Grants a requested appeal, if the appeal has not expired (or already been granted)\n  Can only be called by appellate (JEC)\n  @param listingAddress The address of the listing associated with the appeal\n  */\n  function grantAppeal(address listingAddress) external onlyAppellate {\n    Listing storage listing = listings[listingAddress];\n    Appeal storage appeal = appeals[listing.challengeID];\n    require(appeal.appealPhaseExpiry > now); // \"Judge Appeal Phase\" active\n    require(!appeal.appealGranted); // don't grant twice\n\n    appeal.appealGranted = true;    \n    appeal.appealOpenToChallengeExpiry = now + parameterizer.get(\"challengeAppealLen\");\n    AppealGranted(listingAddress);\n  }\n\n  /**\n  @notice Set new value for appeal fee\n          Can only be called by Appellate, since only they can decide what fee they require\n  @param fee The new value for the appeal fee\n  */\n  function setAppealFee(uint fee) external onlyAppellate {\n    require(fee > 0); // safety check\n    appealFee = fee;\n    AppealFeeSet(fee);\n  }\n\n  /**\n  @notice Set new value for the length of \"Request Appeal Phase\"\n          Can only be called by Appellate, allowing this to be controlled \n          by community adds complexity and seems unnecessary\n  @param length The new value for the \"Request Appeal Phase\" length\n  */\n  function setMakeAppealLength(uint length) external onlyAppellate {\n    require(length > 0); // safety check\n    requestAppealPhaseLength = length;\n    MakeAppealLengthSet(length);\n  }\n\n  /**\n  @notice Set new value for the length of \"Judge Appeal Phase\"\n          Can only be called by Appellate, since only they can decide how long they need to process appeals\n  @param length The new value for the \"Judge Appeal Phase\" length\n  */\n  function setAppealLength(uint length) external onlyAppellate {\n    require(length > 0); // safety check\n    judgeAppealPhaseLength = length;\n    AppealLengthSet(length);\n  }\n\n  // --------\n  // ANY USER INTERFACE\n  // ANYONE CAN CALL THESE FUNCTIONS FOR A LISTING\n  // --------\n\n/**\n  @notice Updates a listing's status from 'application' to 'listing' or resolves a challenge or appeal \n  or appeal challenge if one exists.\n  @param listingAddress Address of the listing of which the status is being updated\n  */\n  function updateStatus(address listingAddress) public {\n    if (canBeWhitelisted(listingAddress)) {\n      whitelistApplication(listingAddress);\n      NewListingWhitelisted(listingAddress);\n    } else if (challengeCanBeResolved(listingAddress)) {\n      resolveChallenge(listingAddress);\n    } else if (appealCanBeResolved(listingAddress)) {\n      resolvePostAppealPhase(listingAddress);\n    } else {\n      revert();\n    }\n  }\n\n  /** \n  @notice Update state of listing after \"Judge Appeal Phase\" has ended. Reverts if cannot be processed yet.\n  @param listingAddress Address of listing associated with appeal\n  */\n  function resolvePostAppealPhase(address listingAddress) internal {\n    Listing storage listing = listings[listingAddress];\n    Appeal storage appeal = appeals[listing.challengeID];\n    if (appeal.appealGranted) {\n      // return appeal fee to appeal requester\n      require(token.transfer(appeal.requester, appeal.appealFeePaid));\n      // appeal granted. override decision of voters.\n      resolveOverturnedChallenge(listingAddress);\n    } else {\n      // appeal fee is split between original winning voters and challenger\n      Challenge storage challenge = challenges[listing.challengeID];\n      uint extraReward = appeal.appealFeePaid / 2;\n      challenge.rewardPool += extraReward;\n      challenge.stake += appeal.appealFeePaid - extraReward;\n      // appeal not granted, confirm original decision of voters.\n      super.resolveChallenge(listingAddress);\n    }\n  }\n\n  // --------------------\n  // TOKEN OWNER INTERFACE:\n  // --------------------\n\n  /**\n  @notice Starts a poll for a listingAddress which is either in the apply stage or already in the whitelist. \n  Tokens are taken from the challenger and the applicant's deposits are locked. \n  Delists listing and returns NO_CHALLENGE if listing's unstakedDeposit is less than current minDeposit\n  @dev  Differs from base implementation in that it stores a timestamp in a mapping\n  corresponding to the end of the request appeal phase, at which point a challenge\n  can be resolved, if no appeal was requested\n  @param listingAddress The listingAddress being challenged, whether listed or in application\n  @param data Extra data relevant to the challenge. Think IPFS hashes.\n  */\n  function challenge(address listingAddress, string data) public returns (uint challengeID) {\n    uint id = super.challenge(listingAddress, data);\n    if (id != NO_CHALLENGE) {\n      uint challengeLength = parameterizer.get(\"commitStageLen\") + parameterizer.get(\"revealStageLen\") + requestAppealPhaseLength;\n      challengeRequestAppealExpiries[id] = now + challengeLength;\n    }\n    return id;\n  }\n\n  /**\n  @notice Starts a poll for a listingAddress which has recently been granted a challenge. If\n  the poll passes, the granted appeal will be overturned. In order to start a challenge,\n  the following conditions must be met:\n  - There is an active appeal on the listing\n  - This appeal was granted\n  - This appeal has not yet been challenged\n  - The expiry time of the appeal challenge is greater than the current time\n  - The challenger transfers tokens to the TCR equal to appeal fee paid by appeal requester\n  @return challengeID associated with the appeal challenge\n  @dev challengeID is a nonce created by the PLCRVoting contract, regular challenges and appeal challenges share the same nonce variable\n  @param listingAddress The listingAddress associated with the appeal\n  @param data Extra data relevant to the appeal challenge. Think URLs.\n  */\n  function challengeGrantedAppeal(address listingAddress, string data) public returns (uint challengeID) {\n    Listing storage listing = listings[listingAddress];\n    Appeal storage appeal = appeals[listing.challengeID];\n\n    require(appeal.appealGranted);\n    require(appeal.appealChallengeID == NO_CHALLENGE);\n    require(appeal.appealOpenToChallengeExpiry > now);\n    require(token.transferFrom(msg.sender, this, appeal.appealFeePaid));\n\n    uint pollID = voting.startPoll(\n      appealSupermajorityPercentage,\n      parameterizer.get(\"challengeAppealCommitLen\"),\n      parameterizer.get(\"challengeAppealRevealLen\")\n    );\n\n    appealChallenges[pollID] = Challenge({\n      challenger: msg.sender,\n      rewardPool: ((100 - appealSupermajorityPercentage) * appeal.appealFeePaid) / 100,\n      stake: appeal.appealFeePaid,\n      resolved: false,\n      totalTokens: 0\n    });\n\n    appeal.appealChallengeID = pollID;\n\n    GrantedAppealChallenged(listingAddress, listing.challengeID, pollID, data);\n    return pollID;\n  }\n\n  /**\n  @notice Determines the number of tokens awarded to the winning party in a challenge.\n  @param challengeID The ID of an appeal challenge to determine a reward for\n  */\n  function determineAppealChallengeReward(uint challengeID) public view returns (uint) {\n    require(!appealChallenges[challengeID].resolved && voting.pollEnded(challengeID));\n\n    // Edge case, nobody voted, give all tokens to the challenger.\n    if (voting.getTotalNumberOfTokensForWinningOption(challengeID) == 0) {\n      return 2 * appealChallenges[challengeID].stake;\n    }\n\n    return (2 * appealChallenges[challengeID].stake) - appealChallenges[challengeID].rewardPool;\n  }\n\n  /**\n  @notice Getter for Challenge hasClaimedTokens mappings inside an appeal challenge\n  @param challengeID The ID of the appeal challenge to query\n  @param voter The voter whose claim status to query for the provided challengeID\n  */\n  function hasClaimedChallengeAppealTokens(uint challengeID, address voter) public returns (bool) {\n    return appealChallenges[challengeID].hasClaimedTokens[voter];\n  }\n\n  /**\n  @notice Determines the winner in an appeal challenge. Rewards the winner tokens and\n  either whitelists or de-whitelists the listingAddress. Also resolves the underlying\n  challenge that was originally appealed.\n  @param listingAddress A listingAddress with a challenge that is to be resolved\n  */\n  function resolveAppealChallenge(address listingAddress) internal {\n    Listing storage listing = listings[listingAddress];\n    uint challengeID = listings[listingAddress].challengeID;\n    Appeal storage appeal = appeals[listing.challengeID];\n    uint appealChallengeID = appeal.appealChallengeID;\n    Challenge storage appealChallenge = appealChallenges[appeal.appealChallengeID];\n\n    // Calculates the winner's reward,\n    // which is: (winner's full stake) + (dispensationPct * loser's stake)\n    uint reward = determineAppealChallengeReward(appealChallengeID);\n\n    if (voting.isPassed(appealChallengeID)) { // Case: appeal challenge failed, don't overturn appeal\n      require(token.transfer(appeal.requester, reward));\n      resolveOverturnedChallenge(listingAddress);\n      GrantedAppealConfirmed(listingAddress, challengeID, appealChallengeID);\n    } else { // Case: appeal challenge succeeded, overturn appeal\n      require(token.transfer(appealChallenge.challenger, reward));\n      super.resolveChallenge(listingAddress);\n      appealOverturned[challengeID] = true;\n      GrantedAppealOverturned(listingAddress, challengeID, appealChallengeID);\n    }\n\n    // Sets flag on challenge being processed\n    appealChallenge.resolved = true;\n\n    // Stores the total tokens used for voting by the winning side for reward purposes\n    appealChallenge.totalTokens = voting.getTotalNumberOfTokensForWinningOption(challengeID);\n  }\n\n  /**\n  @notice Called by a voter to claim their reward for each completed vote. Someone\n          must call updateStatus() before this can be called.\n  @param challengeID The PLCR pollID of the challenge a reward is being claimed for\n  @param salt        The salt of a voter's commit hash in the given poll\n  */\n  function claimAppealChallengeReward(uint challengeID, uint salt) public {\n    // Ensures the voter has not already claimed tokens and challenge results have been processed\n    require(appealChallenges[challengeID].hasClaimedTokens[msg.sender] == false);\n    require(appealChallenges[challengeID].resolved == true);\n\n    uint voterTokens = voting.getNumPassingTokens(msg.sender, challengeID, salt, false);\n    uint reward = voterReward(msg.sender, challengeID, salt);\n\n    // Subtracts the voter's information to preserve the participation ratios\n    // of other voters compared to the remaining pool of rewards\n    appealChallenges[challengeID].totalTokens -= voterTokens;\n    appealChallenges[challengeID].rewardPool -= reward;\n\n    require(token.transfer(msg.sender, reward));\n\n    // Ensures a voter cannot claim tokens again\n    appealChallenges[challengeID].hasClaimedTokens[msg.sender] = true;\n\n    RewardClaimed(msg.sender, challengeID, reward);\n  }\n\n  /**\n  @notice Called by a voter to claim their reward for each completed vote. Someone\n          must call updateStatus() before this can be called.\n  @param challengeID The PLCR pollID of the challenge a reward is being claimed for\n  @param salt        The salt of a voter's commit hash in the given poll\n  */\n  function claimReward(uint challengeID, uint salt) public {\n    // Ensures the voter has not already claimed tokens and challenge results have been processed\n    require(challenges[challengeID].hasClaimedTokens[msg.sender] == false);\n    require(challenges[challengeID].resolved == true);\n\n    uint voterTokens = voting.getNumPassingTokens(msg.sender, challengeID, salt, appeals[challengeID].appealGranted);\n    uint reward = voterReward(msg.sender, challengeID, salt);\n\n    // Subtracts the voter's information to preserve the participation ratios\n    // of other voters compared to the remaining pool of rewards\n    challenges[challengeID].totalTokens -= voterTokens;\n    challenges[challengeID].rewardPool -= reward;\n\n    require(token.transfer(msg.sender, reward));\n\n    // Ensures a voter cannot claim tokens again\n    challenges[challengeID].hasClaimedTokens[msg.sender] = true;\n\n    RewardClaimed(msg.sender, challengeID, reward);\n  }\n\n  /**\n  @dev                Calculates the provided voter's token reward for the given poll.\n  @param voter       The address of the voter whose reward balance is to be returned\n  @param challengeID The pollID of the challenge a reward balance is being queried for\n  @param salt        The salt of the voter's commit hash in the given poll\n  @return             The uint indicating the voter's reward\n  */\n  function voterReward(\n    address voter,\n    uint challengeID,\n    uint salt\n  ) public view returns (uint)\n  {\n    uint totalTokens = challenges[challengeID].totalTokens;\n    uint rewardPool = challenges[challengeID].rewardPool;\n    bool overturnOriginalResult = appeals[challengeID].appealGranted && !appealOverturned[challengeID];\n    uint voterTokens = voting.getNumPassingTokens(voter, challengeID, salt, overturnOriginalResult);\n    return (voterTokens * rewardPool) / totalTokens;\n  }\n\n  /**\n  @notice Updates the state of a listing to \"whitelisted\", and pay out \n          reward (including appeal fee) to applicant\n  @param listingAddress Address of listing with a challenge that is to be resolved\n  */\n  function resolveOverturnedChallenge(address listingAddress) private {\n    uint challengeID = listings[listingAddress].challengeID;\n    Challenge storage listingChallenge = challenges[challengeID];\n\n    // Calculates the winner's reward,\n    uint reward = determineReward(challengeID);\n\n    bool wasWhitelisted = listings[listingAddress].isWhitelisted;\n\n    // challenge is overturned, behavior here is opposite resolveChallenge\n    if (voting.isPassed(challengeID)) {\n      resetListing(listingAddress);\n      // Transfer the reward to the challenger\n      require(token.transfer(challenges[challengeID].challenger, reward));\n\n      FailedChallengeOverturned(listingAddress, challengeID);\n      if (wasWhitelisted) {\n        ListingRemoved(listingAddress);\n      } else {\n        ApplicationRemoved(listingAddress);\n      }\n    } else {\n      whitelistApplication(listingAddress);\n      // Unlock stake so that it can be retrieved by the applicant\n      listings[listingAddress].unstakedDeposit += reward;\n\n      SuccessfulChallengeOverturned(listingAddress, challengeID);\n      if (!wasWhitelisted) {\n        NewListingWhitelisted(listingAddress);\n      }\n    }\n\n    listingChallenge.resolved = true;\n    // Stores the total tokens used for voting by the losing side for reward purposes\n    listingChallenge.totalTokens = voting.getTotalNumberOfTokensForLosingOption(challengeID);\n  }\n\n  /**\n  @dev                Determines whether voting has concluded in a challenge for a given\n                      listingAddress. Throws if no challenge exists.\n  @param listingAddress A listingAddress with an unresolved challenge\n  */\n  function challengeCanBeResolved(address listingAddress) view public returns (bool canBeResolved) {\n    uint challengeID = listings[listingAddress].challengeID;\n    require(challengeExists(listingAddress));\n    if (challengeRequestAppealExpiries[challengeID] > now) {\n      return false;\n    }\n    if (challenges[challengeID].resolved) {\n      return false;\n    }\n    if (appealRequested[challengeID]) {\n      return false;\n    }\n    return true;\n  }\n\n  function appealCanBeResolved(address listingAddress) view public returns (bool canBeResolved) {\n    uint challengeID = listings[listingAddress].challengeID;\n    require(challengeExists(listingAddress));\n\n    if (challenges[challengeID].resolved) {\n      return false;\n    }\n    if (!appealRequested[challengeID]) {\n      return false;\n    }\n    if (!appeals[challengeID].appealGranted) {\n      if (appeals[challengeID].appealPhaseExpiry > now) {\n        return false;\n      }\n      return true;\n    } else {\n      if (appeals[challengeID].appealOpenToChallengeExpiry > now) {\n        return false;\n      } else {\n        return true;\n      }\n    }\n  }\n}\n",
  "sourcePath": "/Users/walkerflynn/civil/Civil/packages/contracts/contracts/tcr/CivilTCR.sol",
  "compiler": {
    "name": "solc",
    "version": "0.4.19+commit.c4cbbb05.Emscripten.clang"
  },
  "schemaVersion": "2.0.0",
  "updatedAt": "2018-04-19T02:12:19.311Z"
}