{
  "contractName": "MultiSigWallet",
  "abi": [
    {
      "constant": true,
      "inputs": [
        {
          "name": "",
          "type": "uint256"
        }
      ],
      "name": "owners",
      "outputs": [
        {
          "name": "",
          "type": "address"
        }
      ],
      "payable": false,
      "stateMutability": "view",
      "type": "function"
    },
    {
      "constant": true,
      "inputs": [
        {
          "name": "",
          "type": "address"
        }
      ],
      "name": "isOwner",
      "outputs": [
        {
          "name": "",
          "type": "bool"
        }
      ],
      "payable": false,
      "stateMutability": "view",
      "type": "function"
    },
    {
      "constant": true,
      "inputs": [
        {
          "name": "",
          "type": "uint256"
        },
        {
          "name": "",
          "type": "address"
        }
      ],
      "name": "confirmations",
      "outputs": [
        {
          "name": "",
          "type": "bool"
        }
      ],
      "payable": false,
      "stateMutability": "view",
      "type": "function"
    },
    {
      "constant": true,
      "inputs": [
        {
          "name": "",
          "type": "uint256"
        }
      ],
      "name": "transactions",
      "outputs": [
        {
          "name": "destination",
          "type": "address"
        },
        {
          "name": "value",
          "type": "uint256"
        },
        {
          "name": "data",
          "type": "bytes"
        },
        {
          "name": "executed",
          "type": "bool"
        }
      ],
      "payable": false,
      "stateMutability": "view",
      "type": "function"
    },
    {
      "constant": true,
      "inputs": [],
      "name": "transactionCount",
      "outputs": [
        {
          "name": "",
          "type": "uint256"
        }
      ],
      "payable": false,
      "stateMutability": "view",
      "type": "function"
    },
    {
      "constant": true,
      "inputs": [],
      "name": "MAX_OWNER_COUNT",
      "outputs": [
        {
          "name": "",
          "type": "uint256"
        }
      ],
      "payable": false,
      "stateMutability": "view",
      "type": "function"
    },
    {
      "constant": true,
      "inputs": [],
      "name": "required",
      "outputs": [
        {
          "name": "",
          "type": "uint256"
        }
      ],
      "payable": false,
      "stateMutability": "view",
      "type": "function"
    },
    {
      "inputs": [
        {
          "name": "initialOwners",
          "type": "address[]"
        },
        {
          "name": "initialRequired",
          "type": "uint256"
        }
      ],
      "payable": false,
      "stateMutability": "nonpayable",
      "type": "constructor"
    },
    {
      "payable": true,
      "stateMutability": "payable",
      "type": "fallback"
    },
    {
      "anonymous": false,
      "inputs": [
        {
          "indexed": true,
          "name": "sender",
          "type": "address"
        },
        {
          "indexed": true,
          "name": "transactionId",
          "type": "uint256"
        }
      ],
      "name": "Confirmation",
      "type": "event"
    },
    {
      "anonymous": false,
      "inputs": [
        {
          "indexed": true,
          "name": "sender",
          "type": "address"
        },
        {
          "indexed": true,
          "name": "transactionId",
          "type": "uint256"
        }
      ],
      "name": "Revocation",
      "type": "event"
    },
    {
      "anonymous": false,
      "inputs": [
        {
          "indexed": true,
          "name": "transactionId",
          "type": "uint256"
        }
      ],
      "name": "Submission",
      "type": "event"
    },
    {
      "anonymous": false,
      "inputs": [
        {
          "indexed": true,
          "name": "transactionId",
          "type": "uint256"
        }
      ],
      "name": "Execution",
      "type": "event"
    },
    {
      "anonymous": false,
      "inputs": [
        {
          "indexed": true,
          "name": "transactionId",
          "type": "uint256"
        }
      ],
      "name": "ExecutionFailure",
      "type": "event"
    },
    {
      "anonymous": false,
      "inputs": [
        {
          "indexed": true,
          "name": "sender",
          "type": "address"
        },
        {
          "indexed": false,
          "name": "value",
          "type": "uint256"
        }
      ],
      "name": "Deposit",
      "type": "event"
    },
    {
      "anonymous": false,
      "inputs": [
        {
          "indexed": true,
          "name": "owner",
          "type": "address"
        }
      ],
      "name": "OwnerAddition",
      "type": "event"
    },
    {
      "anonymous": false,
      "inputs": [
        {
          "indexed": true,
          "name": "owner",
          "type": "address"
        }
      ],
      "name": "OwnerRemoval",
      "type": "event"
    },
    {
      "anonymous": false,
      "inputs": [
        {
          "indexed": false,
          "name": "required",
          "type": "uint256"
        }
      ],
      "name": "RequirementChange",
      "type": "event"
    },
    {
      "constant": false,
      "inputs": [
        {
          "name": "owner",
          "type": "address"
        }
      ],
      "name": "addOwner",
      "outputs": [],
      "payable": false,
      "stateMutability": "nonpayable",
      "type": "function"
    },
    {
      "constant": false,
      "inputs": [
        {
          "name": "owner",
          "type": "address"
        }
      ],
      "name": "removeOwner",
      "outputs": [],
      "payable": false,
      "stateMutability": "nonpayable",
      "type": "function"
    },
    {
      "constant": false,
      "inputs": [
        {
          "name": "owner",
          "type": "address"
        },
        {
          "name": "newOwner",
          "type": "address"
        }
      ],
      "name": "replaceOwner",
      "outputs": [],
      "payable": false,
      "stateMutability": "nonpayable",
      "type": "function"
    },
    {
      "constant": false,
      "inputs": [
        {
          "name": "newRequired",
          "type": "uint256"
        }
      ],
      "name": "changeRequirement",
      "outputs": [],
      "payable": false,
      "stateMutability": "nonpayable",
      "type": "function"
    },
    {
      "constant": false,
      "inputs": [
        {
          "name": "destination",
          "type": "address"
        },
        {
          "name": "value",
          "type": "uint256"
        },
        {
          "name": "data",
          "type": "bytes"
        }
      ],
      "name": "submitTransaction",
      "outputs": [
        {
          "name": "transactionId",
          "type": "uint256"
        }
      ],
      "payable": false,
      "stateMutability": "nonpayable",
      "type": "function"
    },
    {
      "constant": false,
      "inputs": [
        {
          "name": "transactionId",
          "type": "uint256"
        }
      ],
      "name": "confirmTransaction",
      "outputs": [],
      "payable": false,
      "stateMutability": "nonpayable",
      "type": "function"
    },
    {
      "constant": false,
      "inputs": [
        {
          "name": "transactionId",
          "type": "uint256"
        }
      ],
      "name": "revokeConfirmation",
      "outputs": [],
      "payable": false,
      "stateMutability": "nonpayable",
      "type": "function"
    },
    {
      "constant": false,
      "inputs": [
        {
          "name": "transactionId",
          "type": "uint256"
        }
      ],
      "name": "executeTransaction",
      "outputs": [],
      "payable": false,
      "stateMutability": "nonpayable",
      "type": "function"
    },
    {
      "constant": true,
      "inputs": [
        {
          "name": "transactionId",
          "type": "uint256"
        }
      ],
      "name": "isConfirmed",
      "outputs": [
        {
          "name": "",
          "type": "bool"
        }
      ],
      "payable": false,
      "stateMutability": "view",
      "type": "function"
    },
    {
      "constant": true,
      "inputs": [
        {
          "name": "transactionId",
          "type": "uint256"
        }
      ],
      "name": "getConfirmationCount",
      "outputs": [
        {
          "name": "count",
          "type": "uint256"
        }
      ],
      "payable": false,
      "stateMutability": "view",
      "type": "function"
    },
    {
      "constant": true,
      "inputs": [
        {
          "name": "pending",
          "type": "bool"
        },
        {
          "name": "executed",
          "type": "bool"
        }
      ],
      "name": "getTransactionCount",
      "outputs": [
        {
          "name": "count",
          "type": "uint256"
        }
      ],
      "payable": false,
      "stateMutability": "view",
      "type": "function"
    },
    {
      "constant": true,
      "inputs": [],
      "name": "getOwners",
      "outputs": [
        {
          "name": "",
          "type": "address[]"
        }
      ],
      "payable": false,
      "stateMutability": "view",
      "type": "function"
    },
    {
      "constant": true,
      "inputs": [
        {
          "name": "transactionId",
          "type": "uint256"
        }
      ],
      "name": "getConfirmations",
      "outputs": [
        {
          "name": "_confirmations",
          "type": "address[]"
        }
      ],
      "payable": false,
      "stateMutability": "view",
      "type": "function"
    },
    {
      "constant": true,
      "inputs": [
        {
          "name": "from",
          "type": "uint256"
        },
        {
          "name": "to",
          "type": "uint256"
        },
        {
          "name": "pending",
          "type": "bool"
        },
        {
          "name": "executed",
          "type": "bool"
        }
      ],
      "name": "getTransactionIds",
      "outputs": [
        {
          "name": "_transactionIds",
          "type": "uint256[]"
        }
      ],
      "payable": false,
      "stateMutability": "view",
      "type": "function"
    }
  ],
  "bytecode": "0x606060405234156200001057600080fd5b6040516200238d3803806200238d833981016040528080518201919060200180519060200190919050506000825182603282111515156200005057600080fd5b8181111515156200006057600080fd5b600081141515156200007157600080fd5b600082141515156200008257600080fd5b600092505b8451831015620001bd57600260008685815181101515620000a457fe5b9060200190602002015173ffffffffffffffffffffffffffffffffffffffff1673ffffffffffffffffffffffffffffffffffffffff16815260200190815260200160002060009054906101000a900460ff16158015620001335750600085848151811015156200011057fe5b9060200190602002015173ffffffffffffffffffffffffffffffffffffffff1614155b15156200013f57600080fd5b60016002600087868151811015156200015457fe5b9060200190602002015173ffffffffffffffffffffffffffffffffffffffff1673ffffffffffffffffffffffffffffffffffffffff16815260200190815260200160002060006101000a81548160ff021916908315150217905550828060010193505062000087565b8460039080519060200190620001d5929190620001e8565b50836004819055505050505050620002bd565b82805482825590600052602060002090810192821562000264579160200282015b82811115620002635782518260006101000a81548173ffffffffffffffffffffffffffffffffffffffff021916908373ffffffffffffffffffffffffffffffffffffffff1602179055509160200191906001019062000209565b5b50905062000273919062000277565b5090565b620002ba91905b80821115620002b657600081816101000a81549073ffffffffffffffffffffffffffffffffffffffff0219169055506001016200027e565b5090565b90565b6120c080620002cd6000396000f30060606040526004361061011d576000357c0100000000000000000000000000000000000000000000000000000000900463ffffffff168063025e7c2714610177578063173825d9146101da57806320ea8d86146102135780632f54bf6e146102365780633411c81c1461028757806354741525146102e15780637065cb4814610325578063784547a71461035e5780638b51d13f146103995780639ace38c2146103d0578063a0e67e2b146104ce578063a8abe69a14610538578063b5dc40c3146105cf578063b77bf60014610647578063ba51a6df14610670578063c01a8c8414610693578063c6427474146106b6578063d74f8edd1461074f578063dc8452cd14610778578063e20056e6146107a1578063ee22610b146107f9575b6000341115610175573373ffffffffffffffffffffffffffffffffffffffff167fe1fffcc4923d04b559f4d29a8bfc6cda04eb5b0d3c460751c2402c5c5cc9109c346040518082815260200191505060405180910390a25b005b341561018257600080fd5b610198600480803590602001909190505061081c565b604051808273ffffffffffffffffffffffffffffffffffffffff1673ffffffffffffffffffffffffffffffffffffffff16815260200191505060405180910390f35b34156101e557600080fd5b610211600480803573ffffffffffffffffffffffffffffffffffffffff1690602001909190505061085b565b005b341561021e57600080fd5b6102346004808035906020019091905050610af7565b005b341561024157600080fd5b61026d600480803573ffffffffffffffffffffffffffffffffffffffff16906020019091905050610c9f565b604051808215151515815260200191505060405180910390f35b341561029257600080fd5b6102c7600480803590602001909190803573ffffffffffffffffffffffffffffffffffffffff16906020019091905050610cbf565b604051808215151515815260200191505060405180910390f35b34156102ec57600080fd5b61030f600480803515159060200190919080351515906020019091905050610cee565b6040518082815260200191505060405180910390f35b341561033057600080fd5b61035c600480803573ffffffffffffffffffffffffffffffffffffffff16906020019091905050610d80565b005b341561036957600080fd5b61037f6004808035906020019091905050610f8b565b604051808215151515815260200191505060405180910390f35b34156103a457600080fd5b6103ba6004808035906020019091905050611071565b6040518082815260200191505060405180910390f35b34156103db57600080fd5b6103f1600480803590602001909190505061113d565b604051808573ffffffffffffffffffffffffffffffffffffffff1673ffffffffffffffffffffffffffffffffffffffff16815260200184815260200180602001831515151581526020018281038252848181546001816001161561010002031660029004815260200191508054600181600116156101000203166002900480156104bc5780601f10610491576101008083540402835291602001916104bc565b820191906000526020600020905b81548152906001019060200180831161049f57829003601f168201915b50509550505050505060405180910390f35b34156104d957600080fd5b6104e1611199565b6040518080602001828103825283818151815260200191508051906020019060200280838360005b83811015610524578082015181840152602081019050610509565b505050509050019250505060405180910390f35b341561054357600080fd5b61057860048080359060200190919080359060200190919080351515906020019091908035151590602001909190505061122d565b6040518080602001828103825283818151815260200191508051906020019060200280838360005b838110156105bb5780820151818401526020810190506105a0565b505050509050019250505060405180910390f35b34156105da57600080fd5b6105f06004808035906020019091905050611389565b6040518080602001828103825283818151815260200191508051906020019060200280838360005b83811015610633578082015181840152602081019050610618565b505050509050019250505060405180910390f35b341561065257600080fd5b61065a6115b3565b6040518082815260200191505060405180910390f35b341561067b57600080fd5b61069160048080359060200190919050506115b9565b005b341561069e57600080fd5b6106b4600480803590602001909190505061167c565b005b34156106c157600080fd5b610739600480803573ffffffffffffffffffffffffffffffffffffffff1690602001909190803590602001909190803590602001908201803590602001908080601f01602080910402602001604051908101604052809392919081815260200183838082843782019150505050505091905050611859565b6040518082815260200191505060405180910390f35b341561075a57600080fd5b610762611878565b6040518082815260200191505060405180910390f35b341561078357600080fd5b61078b61187d565b6040518082815260200191505060405180910390f35b34156107ac57600080fd5b6107f7600480803573ffffffffffffffffffffffffffffffffffffffff1690602001909190803573ffffffffffffffffffffffffffffffffffffffff16906020019091905050611883565b005b341561080457600080fd5b61081a6004808035906020019091905050611b9a565b005b60038181548110151561082b57fe5b90600052602060002090016000915054906101000a900473ffffffffffffffffffffffffffffffffffffffff1681565b60003073ffffffffffffffffffffffffffffffffffffffff163373ffffffffffffffffffffffffffffffffffffffff1614151561089757600080fd5b81600260008273ffffffffffffffffffffffffffffffffffffffff1673ffffffffffffffffffffffffffffffffffffffff16815260200190815260200160002060009054906101000a900460ff1615156108f057600080fd5b6000600260008573ffffffffffffffffffffffffffffffffffffffff1673ffffffffffffffffffffffffffffffffffffffff16815260200190815260200160002060006101000a81548160ff021916908315150217905550600091505b600160038054905003821015610a78578273ffffffffffffffffffffffffffffffffffffffff1660038381548110151561098357fe5b906000526020600020900160009054906101000a900473ffffffffffffffffffffffffffffffffffffffff1673ffffffffffffffffffffffffffffffffffffffff161415610a6b5760036001600380549050038154811015156109e257fe5b906000526020600020900160009054906101000a900473ffffffffffffffffffffffffffffffffffffffff16600383815481101515610a1d57fe5b906000526020600020900160006101000a81548173ffffffffffffffffffffffffffffffffffffffff021916908373ffffffffffffffffffffffffffffffffffffffff160217905550610a78565b818060010192505061094d565b6001600381818054905003915081610a909190611f6f565b506003805490506004541115610aaf57610aae6003805490506115b9565b5b8273ffffffffffffffffffffffffffffffffffffffff167f8001553a916ef2f495d26a907cc54d96ed840d7bda71e73194bf5a9df7a76b9060405160405180910390a2505050565b33600260008273ffffffffffffffffffffffffffffffffffffffff1673ffffffffffffffffffffffffffffffffffffffff16815260200190815260200160002060009054906101000a900460ff161515610b5057600080fd5b81336001600083815260200190815260200160002060008273ffffffffffffffffffffffffffffffffffffffff1673ffffffffffffffffffffffffffffffffffffffff16815260200190815260200160002060009054906101000a900460ff161515610bbb57600080fd5b8360008082815260200190815260200160002060030160009054906101000a900460ff16151515610beb57600080fd5b60006001600087815260200190815260200160002060003373ffffffffffffffffffffffffffffffffffffffff1673ffffffffffffffffffffffffffffffffffffffff16815260200190815260200160002060006101000a81548160ff021916908315150217905550843373ffffffffffffffffffffffffffffffffffffffff167ff6a317157440607f36269043eb55f1287a5a19ba2216afeab88cd46cbcfb88e960405160405180910390a35050505050565b60026020528060005260406000206000915054906101000a900460ff1681565b60016020528160005260406000206020528060005260406000206000915091509054906101000a900460ff1681565b600080600090505b600554811015610d7957838015610d2d575060008082815260200190815260200160002060030160009054906101000a900460ff16155b80610d605750828015610d5f575060008082815260200190815260200160002060030160009054906101000a900460ff165b5b15610d6c576001820191505b8080600101915050610cf6565b5092915050565b3073ffffffffffffffffffffffffffffffffffffffff163373ffffffffffffffffffffffffffffffffffffffff16141515610dba57600080fd5b80600260008273ffffffffffffffffffffffffffffffffffffffff1673ffffffffffffffffffffffffffffffffffffffff16815260200190815260200160002060009054906101000a900460ff16151515610e1457600080fd5b8160008173ffffffffffffffffffffffffffffffffffffffff1614151515610e3b57600080fd5b60016003805490500160045460328211151515610e5757600080fd5b818111151515610e6657600080fd5b60008114151515610e7657600080fd5b60008214151515610e8657600080fd5b6001600260008773ffffffffffffffffffffffffffffffffffffffff1673ffffffffffffffffffffffffffffffffffffffff16815260200190815260200160002060006101000a81548160ff02191690831515021790555060038054806001018281610ef29190611f9b565b9160005260206000209001600087909190916101000a81548173ffffffffffffffffffffffffffffffffffffffff021916908373ffffffffffffffffffffffffffffffffffffffff160217905550508473ffffffffffffffffffffffffffffffffffffffff167ff39e6e1eb0edcf53c221607b54b00cd28f3196fed0a24994dc308b8f611b682d60405160405180910390a25050505050565b6000806000809150600090505b60038054905081101561106957600160008581526020019081526020016000206000600383815481101515610fc957fe5b906000526020600020900160009054906101000a900473ffffffffffffffffffffffffffffffffffffffff1673ffffffffffffffffffffffffffffffffffffffff1673ffffffffffffffffffffffffffffffffffffffff16815260200190815260200160002060009054906101000a900460ff1615611049576001820191505b60045482141561105c576001925061106a565b8080600101915050610f98565b5b5050919050565b600080600090505b600380549050811015611137576001600084815260200190815260200160002060006003838154811015156110aa57fe5b906000526020600020900160009054906101000a900473ffffffffffffffffffffffffffffffffffffffff1673ffffffffffffffffffffffffffffffffffffffff1673ffffffffffffffffffffffffffffffffffffffff16815260200190815260200160002060009054906101000a900460ff161561112a576001820191505b8080600101915050611079565b50919050565b60006020528060005260406000206000915090508060000160009054906101000a900473ffffffffffffffffffffffffffffffffffffffff169080600101549080600201908060030160009054906101000a900460ff16905084565b6111a1611fc7565b600380548060200260200160405190810160405280929190818152602001828054801561122357602002820191906000526020600020905b8160009054906101000a900473ffffffffffffffffffffffffffffffffffffffff1673ffffffffffffffffffffffffffffffffffffffff16815260200190600101908083116111d9575b5050505050905090565b611235611fdb565b61123d611fdb565b6000806005546040518059106112505750595b9080825280602002602001820160405250925060009150600090505b60055481101561130c578580156112a3575060008082815260200190815260200160002060030160009054906101000a900460ff16155b806112d657508480156112d5575060008082815260200190815260200160002060030160009054906101000a900460ff165b5b156112ff578083838151811015156112ea57fe5b90602001906020020181815250506001820191505b808060010191505061126c565b87870360405180591061131c5750595b908082528060200260200182016040525093508790505b8681101561137e57828181518110151561134957fe5b906020019060200201518489830381518110151561136357fe5b90602001906020020181815250508080600101915050611333565b505050949350505050565b611391611fc7565b611399611fc7565b6000806003805490506040518059106113af5750595b9080825280602002602001820160405250925060009150600090505b60038054905081101561150e576001600086815260200190815260200160002060006003838154811015156113fc57fe5b906000526020600020900160009054906101000a900473ffffffffffffffffffffffffffffffffffffffff1673ffffffffffffffffffffffffffffffffffffffff1673ffffffffffffffffffffffffffffffffffffffff16815260200190815260200160002060009054906101000a900460ff16156115015760038181548110151561148457fe5b906000526020600020900160009054906101000a900473ffffffffffffffffffffffffffffffffffffffff1683838151811015156114be57fe5b9060200190602002019073ffffffffffffffffffffffffffffffffffffffff16908173ffffffffffffffffffffffffffffffffffffffff16815250506001820191505b80806001019150506113cb565b8160405180591061151c5750595b90808252806020026020018201604052509350600090505b818110156115ab57828181518110151561154a57fe5b90602001906020020151848281518110151561156257fe5b9060200190602002019073ffffffffffffffffffffffffffffffffffffffff16908173ffffffffffffffffffffffffffffffffffffffff16815250508080600101915050611534565b505050919050565b60055481565b3073ffffffffffffffffffffffffffffffffffffffff163373ffffffffffffffffffffffffffffffffffffffff161415156115f357600080fd5b600380549050816032821115151561160a57600080fd5b81811115151561161957600080fd5b6000811415151561162957600080fd5b6000821415151561163957600080fd5b826004819055507fa3f1ee9126a074d9326c682f561767f710e927faa811f7a99829d49dc421797a836040518082815260200191505060405180910390a1505050565b33600260008273ffffffffffffffffffffffffffffffffffffffff1673ffffffffffffffffffffffffffffffffffffffff16815260200190815260200160002060009054906101000a900460ff1615156116d557600080fd5b81600080600083815260200190815260200160002060000160009054906101000a900473ffffffffffffffffffffffffffffffffffffffff1673ffffffffffffffffffffffffffffffffffffffff161415151561173157600080fd5b82336001600083815260200190815260200160002060008273ffffffffffffffffffffffffffffffffffffffff1673ffffffffffffffffffffffffffffffffffffffff16815260200190815260200160002060009054906101000a900460ff1615151561179d57600080fd5b600180600087815260200190815260200160002060003373ffffffffffffffffffffffffffffffffffffffff1673ffffffffffffffffffffffffffffffffffffffff16815260200190815260200160002060006101000a81548160ff021916908315150217905550843373ffffffffffffffffffffffffffffffffffffffff167f4a504a94899432a9846e1aa406dceb1bcfd538bb839071d49d1e5e23f5be30ef60405160405180910390a361185285611b9a565b5050505050565b6000611866848484611e1d565b90506118718161167c565b9392505050565b603281565b60045481565b60003073ffffffffffffffffffffffffffffffffffffffff163373ffffffffffffffffffffffffffffffffffffffff161415156118bf57600080fd5b82600260008273ffffffffffffffffffffffffffffffffffffffff1673ffffffffffffffffffffffffffffffffffffffff16815260200190815260200160002060009054906101000a900460ff16151561191857600080fd5b82600260008273ffffffffffffffffffffffffffffffffffffffff1673ffffffffffffffffffffffffffffffffffffffff16815260200190815260200160002060009054906101000a900460ff1615151561197257600080fd5b600092505b600380549050831015611a5d578473ffffffffffffffffffffffffffffffffffffffff166003848154811015156119aa57fe5b906000526020600020900160009054906101000a900473ffffffffffffffffffffffffffffffffffffffff1673ffffffffffffffffffffffffffffffffffffffff161415611a505783600384815481101515611a0257fe5b906000526020600020900160006101000a81548173ffffffffffffffffffffffffffffffffffffffff021916908373ffffffffffffffffffffffffffffffffffffffff160217905550611a5d565b8280600101935050611977565b6000600260008773ffffffffffffffffffffffffffffffffffffffff1673ffffffffffffffffffffffffffffffffffffffff16815260200190815260200160002060006101000a81548160ff0219169083151502179055506001600260008673ffffffffffffffffffffffffffffffffffffffff1673ffffffffffffffffffffffffffffffffffffffff16815260200190815260200160002060006101000a81548160ff0219169083151502179055508473ffffffffffffffffffffffffffffffffffffffff167f8001553a916ef2f495d26a907cc54d96ed840d7bda71e73194bf5a9df7a76b9060405160405180910390a28373ffffffffffffffffffffffffffffffffffffffff167ff39e6e1eb0edcf53c221607b54b00cd28f3196fed0a24994dc308b8f611b682d60405160405180910390a25050505050565b600033600260008273ffffffffffffffffffffffffffffffffffffffff1673ffffffffffffffffffffffffffffffffffffffff16815260200190815260200160002060009054906101000a900460ff161515611bf557600080fd5b82336001600083815260200190815260200160002060008273ffffffffffffffffffffffffffffffffffffffff1673ffffffffffffffffffffffffffffffffffffffff16815260200190815260200160002060009054906101000a900460ff161515611c6057600080fd5b8460008082815260200190815260200160002060030160009054906101000a900460ff16151515611c9057600080fd5b611c9986610f8b565b15611e1557600080878152602001908152602001600020945060018560030160006101000a81548160ff0219169083151502179055508460000160009054906101000a900473ffffffffffffffffffffffffffffffffffffffff1673ffffffffffffffffffffffffffffffffffffffff168560010154866002016040518082805460018160011615610100020316600290048015611d785780601f10611d4d57610100808354040283529160200191611d78565b820191906000526020600020905b815481529060010190602001808311611d5b57829003601f168201915b505091505060006040518083038185876187965a03f19250505015611dc957857f33e13ecb54c3076d8e8bb8c2881800a4d972b792045ffae98fdf46df365fed7560405160405180910390a2611e14565b857f526441bb6c1aba3c9a4a6ca1d6545da9c2333c8c48343ef398eb858d72b7923660405160405180910390a260008560030160006101000a81548160ff0219169083151502179055505b5b505050505050565b60008360008173ffffffffffffffffffffffffffffffffffffffff1614151515611e4657600080fd5b60055491506080604051908101604052808673ffffffffffffffffffffffffffffffffffffffff1681526020018581526020018481526020016000151581525060008084815260200190815260200160002060008201518160000160006101000a81548173ffffffffffffffffffffffffffffffffffffffff021916908373ffffffffffffffffffffffffffffffffffffffff160217905550602082015181600101556040820151816002019080519060200190611f05929190611fef565b5060608201518160030160006101000a81548160ff0219169083151502179055509050506001600560008282540192505081905550817fc0ba8fe4b176c1714197d43b9cc6bcf797a4a7461c5fe8d0ef6e184ae7601e5160405160405180910390a2509392505050565b815481835581811511611f9657818360005260206000209182019101611f95919061206f565b5b505050565b815481835581811511611fc257818360005260206000209182019101611fc1919061206f565b5b505050565b602060405190810160405280600081525090565b602060405190810160405280600081525090565b828054600181600116156101000203166002900490600052602060002090601f016020900481019282601f1061203057805160ff191683800117855561205e565b8280016001018555821561205e579182015b8281111561205d578251825591602001919060010190612042565b5b50905061206b919061206f565b5090565b61209191905b8082111561208d576000816000905550600101612075565b5090565b905600a165627a7a723058207f53137256f82159dc470cc4897f1cdc57d3577a8da2c90c902ea435b77627ca0029",
  "source": "pragma solidity ^0.4.19;\n\n\n/// @title Multisignature wallet - Allows multiple parties to agree on transactions before execution.\n/// @author Stefan George - <stefan.george@consensys.net>\ncontract MultiSigWallet {\n\n  /*\n    *  Events\n    */\n  event Confirmation(address indexed sender, uint indexed transactionId);\n  event Revocation(address indexed sender, uint indexed transactionId);\n  event Submission(uint indexed transactionId);\n  event Execution(uint indexed transactionId);\n  event ExecutionFailure(uint indexed transactionId);\n  event Deposit(address indexed sender, uint value);\n  event OwnerAddition(address indexed owner);\n  event OwnerRemoval(address indexed owner);\n  event RequirementChange(uint required);\n\n  /*\n    *  Constants\n    */\n  uint constant public MAX_OWNER_COUNT = 50;\n\n  /*\n    *  Storage\n    */\n  mapping (uint => Transaction) public transactions;\n  mapping (uint => mapping (address => bool)) public confirmations;\n  mapping (address => bool) public isOwner;\n  address[] public owners;\n  uint public required;\n  uint public transactionCount;\n\n  struct Transaction {\n    address destination;\n    uint value;\n    bytes data;\n    bool executed;\n  }\n\n  /*\n    *  Modifiers\n    */\n  modifier onlyWallet() {\n    require(msg.sender == address(this));\n    _;\n  }\n\n  modifier ownerDoesNotExist(address owner) {\n    require(!isOwner[owner]);\n    _;\n  }\n\n  modifier ownerExists(address owner) {\n    require(isOwner[owner]);\n    _;\n  }\n\n  modifier transactionExists(uint transactionId) {\n    require(transactions[transactionId].destination != 0);\n    _;\n  }\n\n  modifier confirmed(uint transactionId, address owner) {\n    require(confirmations[transactionId][owner]);\n    _;\n  }\n\n  modifier notConfirmed(uint transactionId, address owner) {\n    require(!confirmations[transactionId][owner]);\n    _;\n  }\n\n  modifier notExecuted(uint transactionId) {\n    require(!transactions[transactionId].executed);\n    _;\n  }\n\n  modifier notNull(address verifiedAddress) {\n    require(verifiedAddress != 0);\n    _;\n  }\n\n  modifier validRequirement(uint ownerCount, uint proposedConfirmations) {\n    require(ownerCount <= MAX_OWNER_COUNT);\n    require(proposedConfirmations <= ownerCount);\n    require(proposedConfirmations != 0);\n    require(ownerCount != 0);\n    _;\n  }\n\n  /// @dev Fallback function allows to deposit ether.\n  function()\n    payable\n    public\n  {\n    if (msg.value > 0) {\n      Deposit(msg.sender, msg.value);\n    }\n  }\n\n  /*\n    * Public functions\n    */\n  /// @dev Contract constructor sets initial owners and required number of confirmations.\n  /// @param initialOwners List of initial owners.\n  /// @param initialRequired Number of required confirmations.\n  function MultiSigWallet(address[] initialOwners, uint initialRequired)\n    public\n    validRequirement(initialOwners.length, initialRequired)\n  {\n    for (uint i = 0; i < initialOwners.length; i++) {\n      require(!isOwner[initialOwners[i]] && initialOwners[i] != 0);\n      isOwner[initialOwners[i]] = true;\n    }\n    owners = initialOwners;\n    required = initialRequired;\n  }\n\n  /// @dev Allows to add a new owner. Transaction has to be sent by wallet.\n  /// @param owner Address of new owner.\n  function addOwner(address owner)\n    public\n    onlyWallet\n    ownerDoesNotExist(owner)\n    notNull(owner)\n    validRequirement(owners.length + 1, required)\n  {\n    isOwner[owner] = true;\n    owners.push(owner);\n    OwnerAddition(owner);\n  }\n\n  /// @dev Allows to remove an owner. Transaction has to be sent by wallet.\n  /// @param owner Address of owner.\n  function removeOwner(address owner)\n    public\n    onlyWallet\n    ownerExists(owner)\n  {\n    isOwner[owner] = false;\n    for (uint i = 0; i < owners.length - 1; i++) {\n      if (owners[i] == owner) {\n        owners[i] = owners[owners.length - 1];\n        break;\n      }\n    }\n    owners.length -= 1;\n    if (required > owners.length) {\n      changeRequirement(owners.length);\n    }\n    OwnerRemoval(owner);\n  }\n\n  /// @dev Allows to replace an owner with a new owner. Transaction has to be sent by wallet.\n  /// @param owner Address of owner to be replaced.\n  /// @param newOwner Address of new owner.\n  function replaceOwner(address owner, address newOwner)\n    public\n    onlyWallet\n    ownerExists(owner)\n    ownerDoesNotExist(newOwner)\n  {\n    for (uint i = 0; i < owners.length; i++) {\n      if (owners[i] == owner) {\n        owners[i] = newOwner;\n        break;\n      }\n    }\n    isOwner[owner] = false;\n    isOwner[newOwner] = true;\n    OwnerRemoval(owner);\n    OwnerAddition(newOwner);\n  }\n\n  /// @dev Allows to change the number of required confirmations. Transaction has to be sent by wallet.\n  /// @param newRequired Number of required confirmations.\n  function changeRequirement(uint newRequired)\n    public\n    onlyWallet\n    validRequirement(owners.length, newRequired)\n  {\n    required = newRequired;\n    RequirementChange(newRequired);\n  }\n\n  /// @dev Allows an owner to submit and confirm a transaction.\n  /// @param destination Transaction target address.\n  /// @param value Transaction ether value.\n  /// @param data Transaction data payload.\n  /// @return Returns transaction ID.\n  function submitTransaction(address destination, uint value, bytes data)\n    public\n    returns (uint transactionId)\n  {\n    transactionId = addTransaction(destination, value, data);\n    confirmTransaction(transactionId);\n  }\n\n  /// @dev Allows an owner to confirm a transaction.\n  /// @param transactionId Transaction ID.\n  function confirmTransaction(uint transactionId)\n    public\n    ownerExists(msg.sender)\n    transactionExists(transactionId)\n    notConfirmed(transactionId, msg.sender)\n  {\n    confirmations[transactionId][msg.sender] = true;\n    Confirmation(msg.sender, transactionId);\n    executeTransaction(transactionId);\n  }\n\n  /// @dev Allows an owner to revoke a confirmation for a transaction.\n  /// @param transactionId Transaction ID.\n  function revokeConfirmation(uint transactionId)\n    public\n    ownerExists(msg.sender)\n    confirmed(transactionId, msg.sender)\n    notExecuted(transactionId)\n  {\n    confirmations[transactionId][msg.sender] = false;\n    Revocation(msg.sender, transactionId);\n  }\n\n  /// @dev Allows anyone to execute a confirmed transaction.\n  /// @param transactionId Transaction ID.\n  function executeTransaction(uint transactionId)\n    public\n    ownerExists(msg.sender)\n    confirmed(transactionId, msg.sender)\n    notExecuted(transactionId)\n  {\n    if (isConfirmed(transactionId)) {\n      Transaction storage txn = transactions[transactionId];\n      txn.executed = true;\n      // solium-disable-next-line security/no-call-value\n      if (txn.destination.call.value(txn.value)(txn.data)) {\n        Execution(transactionId);\n      } else {\n        ExecutionFailure(transactionId);\n        txn.executed = false;\n      }\n    }\n  }\n\n  /// @dev Returns the confirmation status of a transaction.\n  /// @param transactionId Transaction ID.\n  /// @return Confirmation status.\n  function isConfirmed(uint transactionId)\n    public\n    constant\n    returns (bool)\n  {\n    uint count = 0;\n    for (uint i = 0; i < owners.length; i++) {\n      if (confirmations[transactionId][owners[i]]) {\n        count += 1;\n      }\n      if (count == required) {\n        return true;\n      }\n    }\n  }\n\n  /*\n    * Internal functions\n    */\n  /// @dev Adds a new transaction to the transaction mapping, if transaction does not exist yet.\n  /// @param destination Transaction target address.\n  /// @param value Transaction ether value.\n  /// @param data Transaction data payload.\n  /// @return Returns transaction ID.\n  function addTransaction(address destination, uint value, bytes data)\n    internal\n    notNull(destination)\n    returns (uint transactionId)\n  {\n    transactionId = transactionCount;\n    transactions[transactionId] = Transaction({\n      destination: destination,\n      value: value,\n      data: data,\n      executed: false\n    });\n    transactionCount += 1;\n    Submission(transactionId);\n  }\n\n  /*\n    * Web3 call functions\n    */\n  /// @dev Returns number of confirmations of a transaction.\n  /// @param transactionId Transaction ID.\n  /// @return Number of confirmations.\n  function getConfirmationCount(uint transactionId)\n    public\n    constant\n    returns (uint count)\n  {\n    for (uint i = 0; i < owners.length; i++) {\n      if (confirmations[transactionId][owners[i]]) {\n        count += 1;\n      }\n    }\n  }\n\n  /// @dev Returns total number of transactions after filers are applied.\n  /// @param pending Include pending transactions.\n  /// @param executed Include executed transactions.\n  /// @return Total number of transactions after filters are applied.\n  function getTransactionCount(bool pending, bool executed)\n    public\n    constant\n    returns (uint count)\n  {\n    for (uint i = 0; i < transactionCount; i++) {\n      if (pending && !transactions[i].executed || executed && transactions[i].executed) {\n        count += 1;\n      }\n    }\n  }\n\n  /// @dev Returns list of owners.\n  /// @return List of owner addresses.\n  function getOwners()\n    public\n    constant\n    returns (address[])\n  {\n    return owners;\n  }\n\n  /// @dev Returns array with owner addresses, which confirmed transaction.\n  /// @param transactionId Transaction ID.\n  /// @return Returns array of owner addresses.\n  function getConfirmations(uint transactionId)\n    public\n    constant\n    returns (address[] _confirmations)\n  {\n    address[] memory confirmationsTemp = new address[](owners.length);\n    uint count = 0;\n    uint i;\n    for (i = 0; i < owners.length; i++) {\n      if (confirmations[transactionId][owners[i]]) {\n        confirmationsTemp[count] = owners[i];\n        count += 1;\n      }\n    }\n    _confirmations = new address[](count);\n    for (i = 0; i < count; i++) {\n      _confirmations[i] = confirmationsTemp[i];\n    }\n  }\n\n  /// @dev Returns list of transaction IDs in defined range.\n  /// @param from Index start position of transaction array.\n  /// @param to Index end position of transaction array.\n  /// @param pending Include pending transactions.\n  /// @param executed Include executed transactions.\n  /// @return Returns array of transaction IDs.\n  function getTransactionIds(uint from, uint to, bool pending, bool executed)\n    public\n    constant\n    returns (uint[] _transactionIds)\n  {\n    uint[] memory transactionIdsTemp = new uint[](transactionCount);\n    uint count = 0;\n    uint i;\n    for (i = 0; i < transactionCount; i++) {\n      if (pending && !transactions[i].executed || executed && transactions[i].executed) {\n        transactionIdsTemp[count] = i;\n        count += 1;\n      }\n    }\n    _transactionIds = new uint[](to - from);\n    for (i = from; i < to; i++) {\n      _transactionIds[i - from] = transactionIdsTemp[i];\n    }\n  }\n}\n",
  "sourcePath": "/Users/walkerflynn/civil/Civil/packages/contracts/contracts/multisig/MultiSigWallet.sol",
  "compiler": {
    "name": "solc",
    "version": "0.4.19+commit.c4cbbb05.Emscripten.clang"
  },
  "schemaVersion": "2.0.0",
  "updatedAt": "2018-04-19T02:09:58.172Z"
}