{
  "contractName": "Newsroom",
  "abi": [
    {
      "constant": true,
      "inputs": [],
      "name": "name",
      "outputs": [
        {
          "name": "",
          "type": "string"
        }
      ],
      "payable": false,
      "stateMutability": "view",
      "type": "function"
    },
    {
      "constant": true,
      "inputs": [
        {
          "name": "user",
          "type": "address"
        },
        {
          "name": "role",
          "type": "string"
        }
      ],
      "name": "hasRole",
      "outputs": [
        {
          "name": "",
          "type": "bool"
        }
      ],
      "payable": false,
      "stateMutability": "view",
      "type": "function"
    },
    {
      "constant": true,
      "inputs": [
        {
          "name": "user",
          "type": "address"
        }
      ],
      "name": "isOwner",
      "outputs": [
        {
          "name": "",
          "type": "bool"
        }
      ],
      "payable": false,
      "stateMutability": "view",
      "type": "function"
    },
    {
      "constant": true,
      "inputs": [],
      "name": "owner",
      "outputs": [
        {
          "name": "",
          "type": "address"
        }
      ],
      "payable": false,
      "stateMutability": "view",
      "type": "function"
    },
    {
      "constant": true,
      "inputs": [
        {
          "name": "",
          "type": "uint256"
        }
      ],
      "name": "content",
      "outputs": [
        {
          "name": "hash",
          "type": "bytes32"
        },
        {
          "name": "uri",
          "type": "string"
        },
        {
          "name": "timestamp",
          "type": "uint256"
        },
        {
          "name": "author",
          "type": "address"
        }
      ],
      "payable": false,
      "stateMutability": "view",
      "type": "function"
    },
    {
      "constant": false,
      "inputs": [
        {
          "name": "newOwner",
          "type": "address"
        }
      ],
      "name": "transferOwnership",
      "outputs": [],
      "payable": false,
      "stateMutability": "nonpayable",
      "type": "function"
    },
    {
      "inputs": [
        {
          "name": "newsroomName",
          "type": "string"
        }
      ],
      "payable": false,
      "stateMutability": "nonpayable",
      "type": "constructor"
    },
    {
      "anonymous": false,
      "inputs": [
        {
          "indexed": true,
          "name": "editor",
          "type": "address"
        },
        {
          "indexed": true,
          "name": "id",
          "type": "uint256"
        },
        {
          "indexed": false,
          "name": "uri",
          "type": "string"
        }
      ],
      "name": "RevisionPublished",
      "type": "event"
    },
    {
      "anonymous": false,
      "inputs": [
        {
          "indexed": false,
          "name": "newName",
          "type": "string"
        }
      ],
      "name": "NameChanged",
      "type": "event"
    },
    {
      "anonymous": false,
      "inputs": [
        {
          "indexed": true,
          "name": "granter",
          "type": "address"
        },
        {
          "indexed": true,
          "name": "grantee",
          "type": "address"
        },
        {
          "indexed": false,
          "name": "role",
          "type": "string"
        }
      ],
      "name": "RoleAdded",
      "type": "event"
    },
    {
      "anonymous": false,
      "inputs": [
        {
          "indexed": true,
          "name": "granter",
          "type": "address"
        },
        {
          "indexed": true,
          "name": "grantee",
          "type": "address"
        },
        {
          "indexed": false,
          "name": "role",
          "type": "string"
        }
      ],
      "name": "RoleRemoved",
      "type": "event"
    },
    {
      "anonymous": false,
      "inputs": [
        {
          "indexed": true,
          "name": "previousOwner",
          "type": "address"
        },
        {
          "indexed": true,
          "name": "newOwner",
          "type": "address"
        }
      ],
      "name": "OwnershipTransferred",
      "type": "event"
    },
    {
      "constant": false,
      "inputs": [
        {
          "name": "newName",
          "type": "string"
        }
      ],
      "name": "setName",
      "outputs": [],
      "payable": false,
      "stateMutability": "nonpayable",
      "type": "function"
    },
    {
      "constant": false,
      "inputs": [
        {
          "name": "who",
          "type": "address"
        },
        {
          "name": "role",
          "type": "string"
        }
      ],
      "name": "addRole",
      "outputs": [],
      "payable": false,
      "stateMutability": "nonpayable",
      "type": "function"
    },
    {
      "constant": false,
      "inputs": [
        {
          "name": "who",
          "type": "address"
        },
        {
          "name": "role",
          "type": "string"
        }
      ],
      "name": "removeRole",
      "outputs": [],
      "payable": false,
      "stateMutability": "nonpayable",
      "type": "function"
    },
    {
      "constant": false,
      "inputs": [
        {
          "name": "contentUri",
          "type": "string"
        },
        {
          "name": "contentHash",
          "type": "bytes32"
        }
      ],
      "name": "publishRevision",
      "outputs": [
        {
          "name": "",
          "type": "uint256"
        }
      ],
      "payable": false,
      "stateMutability": "nonpayable",
      "type": "function"
    }
  ],
  "bytecode": "0x606060405234156200001057600080fd5b604051620014423803806200144283398101604052808051820191905050336000806101000a81548173ffffffffffffffffffffffffffffffffffffffff021916908373ffffffffffffffffffffffffffffffffffffffff1602179055506200008d81620000946401000000000262000aa9176401000000009004565b506200028a565b6000809054906101000a900473ffffffffffffffffffffffffffffffffffffffff1673ffffffffffffffffffffffffffffffffffffffff163373ffffffffffffffffffffffffffffffffffffffff16141515620000f057600080fd5b600081511115156200010157600080fd5b806004908051906020019062000119929190620001db565b507f4737457377f528cc8afd815f73ecb8b05df80d047dbffc41c17750a4033592bc60046040518080602001828103825283818154600181600116156101000203166002900481526020019150805460018160011615610100020316600290048015620001ca5780601f106200019e57610100808354040283529160200191620001ca565b820191906000526020600020905b815481529060010190602001808311620001ac57829003601f168201915b50509250505060405180910390a150565b828054600181600116156101000203166002900490600052602060002090601f016020900481019282601f106200021e57805160ff19168380011785556200024f565b828001600101855582156200024f579182015b828111156200024e57825182559160200191906001019062000231565b5b5090506200025e919062000262565b5090565b6200028791905b808211156200028357600081600090555060010162000269565b5090565b90565b6111a8806200029a6000396000f3006060604052600436106100a4576000357c0100000000000000000000000000000000000000000000000000000000900463ffffffff16806306fdde03146100a95780631bfe030814610137578063217fe6c6146101b35780632f54bf6e146102475780637d72aa65146102985780638da5cb5b146103145780639815b39814610369578063baa0b806146103e7578063c47f0027146104e9578063f2fde38b14610546575b600080fd5b34156100b457600080fd5b6100bc61057f565b6040518080602001828103825283818151815260200191508051906020019080838360005b838110156100fc5780820151818401526020810190506100e1565b50505050905090810190601f1680156101295780820380516001836020036101000a031916815260200191505b509250505060405180910390f35b341561014257600080fd5b6101b1600480803573ffffffffffffffffffffffffffffffffffffffff1690602001909190803590602001908201803590602001908080601f0160208091040260200160405190810160405280939291908181526020018383808284378201915050505050509190505061061d565b005b34156101be57600080fd5b61022d600480803573ffffffffffffffffffffffffffffffffffffffff1690602001909190803590602001908201803590602001908080601f01602080910402602001604051908101604052809392919081815260200183838082843782019150505050505091905050610687565b604051808215151515815260200191505060405180910390f35b341561025257600080fd5b61027e600480803573ffffffffffffffffffffffffffffffffffffffff1690602001909190505061074a565b604051808215151515815260200191505060405180910390f35b34156102a357600080fd5b610312600480803573ffffffffffffffffffffffffffffffffffffffff1690602001909190803590602001908201803590602001908080601f016020809104026020016040519081016040528093929190818152602001838380828437820191505050505050919050506107a3565b005b341561031f57600080fd5b61032761080d565b604051808273ffffffffffffffffffffffffffffffffffffffff1673ffffffffffffffffffffffffffffffffffffffff16815260200191505060405180910390f35b341561037457600080fd5b6103d1600480803590602001908201803590602001908080601f0160208091040260200160405190810160405280939291908181526020018383808284378201915050505050509190803560001916906020019091905050610832565b6040518082815260200191505060405180910390f35b34156103f257600080fd5b6104086004808035906020019091905050610a5a565b604051808560001916600019168152602001806020018481526020018373ffffffffffffffffffffffffffffffffffffffff1673ffffffffffffffffffffffffffffffffffffffff1681526020018281038252858181546001816001161561010002031660029004815260200191508054600181600116156101000203166002900480156104d75780601f106104ac576101008083540402835291602001916104d7565b820191906000526020600020905b8154815290600101906020018083116104ba57829003601f168201915b50509550505050505060405180910390f35b34156104f457600080fd5b610544600480803590602001908201803590602001908080601f01602080910402602001604051908101604052809392919081815260200183838082843782019150505050505091905050610aa9565b005b341561055157600080fd5b61057d600480803573ffffffffffffffffffffffffffffffffffffffff16906020019091905050610be8565b005b60048054600181600116156101000203166002900480601f0160208091040260200160405190810160405280929190818152602001828054600181600116156101000203166002900480156106155780601f106105ea57610100808354040283529160200191610615565b820191906000526020600020905b8154815290600101906020018083116105f857829003601f168201915b505050505081565b6040805190810160405280600681526020017f656469746f72000000000000000000000000000000000000000000000000000081525061065c3361074a565b8061066d575061066c3382610687565b5b151561067857600080fd5b6106828383610d3d565b505050565b60006001826040518082805190602001908083835b6020831015156106c1578051825260208201915060208101905060208303925061069c565b6001836020036101000a038019825116818451168082178552505050505050905001915050908152602001604051809103902060000160008473ffffffffffffffffffffffffffffffffffffffff1673ffffffffffffffffffffffffffffffffffffffff16815260200190815260200160002060009054906101000a900460ff16905092915050565b60008060009054906101000a900473ffffffffffffffffffffffffffffffffffffffff1673ffffffffffffffffffffffffffffffffffffffff168273ffffffffffffffffffffffffffffffffffffffff16149050919050565b6040805190810160405280600681526020017f656469746f7200000000000000000000000000000000000000000000000000008152506107e23361074a565b806107f357506107f23382610687565b5b15156107fe57600080fd5b6108088383610ec6565b505050565b6000809054906101000a900473ffffffffffffffffffffffffffffffffffffffff1681565b6000806040805190810160405280600681526020017f656469746f7200000000000000000000000000000000000000000000000000008152506108743361074a565b8061088557506108843382610687565b5b151561089057600080fd5b600085511115156108a057600080fd5b6000602060ff161115156108b357600080fd5b600254915060026000815480929190600101919050555060806040519081016040528085600019168152602001868152602001428152602001600073ffffffffffffffffffffffffffffffffffffffff1681525060036000848152602001908152602001600020600082015181600001906000191690556020820151816001019080519060200190610946929190611057565b506040820151816002015560608201518160030160006101000a81548173ffffffffffffffffffffffffffffffffffffffff021916908373ffffffffffffffffffffffffffffffffffffffff160217905550905050813373ffffffffffffffffffffffffffffffffffffffff167f3583c2854bdb780312beaa21ae0b2b65fe9317273fbca65614dfbb035253932f876040518080602001828103825283818151815260200191508051906020019080838360005b83811015610a155780820151818401526020810190506109fa565b50505050905090810190601f168015610a425780820380516001836020036101000a031916815260200191505b509250505060405180910390a3819250505092915050565b600360205280600052604060002060009150905080600001549080600101908060020154908060030160009054906101000a900473ffffffffffffffffffffffffffffffffffffffff16905084565b6000809054906101000a900473ffffffffffffffffffffffffffffffffffffffff1673ffffffffffffffffffffffffffffffffffffffff163373ffffffffffffffffffffffffffffffffffffffff16141515610b0457600080fd5b60008151111515610b1457600080fd5b8060049080519060200190610b2a9291906110d7565b507f4737457377f528cc8afd815f73ecb8b05df80d047dbffc41c17750a4033592bc60046040518080602001828103825283818154600181600116156101000203166002900481526020019150805460018160011615610100020316600290048015610bd75780601f10610bac57610100808354040283529160200191610bd7565b820191906000526020600020905b815481529060010190602001808311610bba57829003601f168201915b50509250505060405180910390a150565b6000809054906101000a900473ffffffffffffffffffffffffffffffffffffffff1673ffffffffffffffffffffffffffffffffffffffff163373ffffffffffffffffffffffffffffffffffffffff16141515610c4357600080fd5b600073ffffffffffffffffffffffffffffffffffffffff168173ffffffffffffffffffffffffffffffffffffffff1614151515610c7f57600080fd5b8073ffffffffffffffffffffffffffffffffffffffff166000809054906101000a900473ffffffffffffffffffffffffffffffffffffffff1673ffffffffffffffffffffffffffffffffffffffff167f8be0079c531659141344cd1fd0a4f28419497f9722a3daafe3b4186f6b6457e060405160405180910390a3806000806101000a81548173ffffffffffffffffffffffffffffffffffffffff021916908373ffffffffffffffffffffffffffffffffffffffff16021790555050565b6001816040518082805190602001908083835b602083101515610d755780518252602082019150602081019050602083039250610d50565b6001836020036101000a038019825116818451168082178552505050505050905001915050908152602001604051809103902060000160008373ffffffffffffffffffffffffffffffffffffffff1673ffffffffffffffffffffffffffffffffffffffff16815260200190815260200160002060006101000a81549060ff02191690558173ffffffffffffffffffffffffffffffffffffffff163373ffffffffffffffffffffffffffffffffffffffff167f6a52fb0cb0e75e6a6721483d2e539b38273ec6fe95b648a41e1a901594aeccb8836040518080602001828103825283818151815260200191508051906020019080838360005b83811015610e88578082015181840152602081019050610e6d565b50505050905090810190601f168015610eb55780820380516001836020036101000a031916815260200191505b509250505060405180910390a35050565b600180826040518082805190602001908083835b602083101515610eff5780518252602082019150602081019050602083039250610eda565b6001836020036101000a038019825116818451168082178552505050505050905001915050908152602001604051809103902060000160008473ffffffffffffffffffffffffffffffffffffffff1673ffffffffffffffffffffffffffffffffffffffff16815260200190815260200160002060006101000a81548160ff0219169083151502179055508173ffffffffffffffffffffffffffffffffffffffff163373ffffffffffffffffffffffffffffffffffffffff167fa40c1dc2b34f6b51c3ea614b688f243e50047ed9fa3ea19010303d70dac781ed836040518080602001828103825283818151815260200191508051906020019080838360005b83811015611019578082015181840152602081019050610ffe565b50505050905090810190601f1680156110465780820380516001836020036101000a031916815260200191505b509250505060405180910390a35050565b828054600181600116156101000203166002900490600052602060002090601f016020900481019282601f1061109857805160ff19168380011785556110c6565b828001600101855582156110c6579182015b828111156110c55782518255916020019190600101906110aa565b5b5090506110d39190611157565b5090565b828054600181600116156101000203166002900490600052602060002090601f016020900481019282601f1061111857805160ff1916838001178555611146565b82800160010185558215611146579182015b8281111561114557825182559160200191906001019061112a565b5b5090506111539190611157565b5090565b61117991905b8082111561117557600081600090555060010161115d565b5090565b905600a165627a7a72305820405802af3a2496d005f27e8df4820117f283b33fe983c7294eca160d196e166a0029",
  "source": "pragma solidity ^0.4.19;\nimport \"./ACL.sol\";\n\ncontract Newsroom is ACL {\n  event RevisionPublished(address indexed editor, uint indexed id, string uri);\n  event NameChanged(string newName);\n\n  string private constant ROLE_REPORTER = \"reporter\";\n  string private constant ROLE_EDITOR = \"editor\";\n\n  uint private latestId;\n  mapping(uint => Revision) public content;\n\n  string public name;\n\n  function Newsroom(string newsroomName) ACL() public {\n    setName(newsroomName);\n  }\n\n  function setName(string newName) public onlyOwner() {\n    require(bytes(newName).length > 0);\n    name = newName;\n\n    NameChanged(name);\n  }\n\n  function addRole(address who, string role) public requireRole(ROLE_EDITOR) {\n    _addRole(who, role);\n  }\n\n  function removeRole(address who, string role) public requireRole(ROLE_EDITOR) {\n    _removeRole(who, role);\n  }\n\n  function publishRevision(string contentUri, bytes32 contentHash) public requireRole(ROLE_EDITOR) returns (uint) {\n    require(bytes(contentUri).length > 0);\n    require(contentHash.length > 0);\n\n    uint id = latestId;\n    latestId++;\n\n    content[id] = Revision(\n      contentHash,\n      contentUri,\n      now,\n      0x0\n    );\n\n    RevisionPublished(msg.sender, id, contentUri);\n    return id;\n  }\n\n  struct Revision {\n    bytes32 hash;\n    string uri;\n    uint timestamp;\n    address author;\n  }\n}\n",
  "sourcePath": "/Users/walkerflynn/civil/Civil/packages/contracts/contracts/newsroom/Newsroom.sol",
  "compiler": {
    "name": "solc",
    "version": "0.4.19+commit.c4cbbb05.Emscripten.clang"
  },
  "schemaVersion": "2.0.0",
  "updatedAt": "2018-04-19T02:12:19.298Z"
}