{
  "contractName": "NewsroomFactory",
  "abi": [
    {
      "constant": true,
      "inputs": [
        {
          "name": "",
          "type": "address"
        }
      ],
      "name": "isInstantiation",
      "outputs": [
        {
          "name": "",
          "type": "bool"
        }
      ],
      "payable": false,
      "stateMutability": "view",
      "type": "function"
    },
    {
      "constant": true,
      "inputs": [],
      "name": "multisigFactory",
      "outputs": [
        {
          "name": "",
          "type": "address"
        }
      ],
      "payable": false,
      "stateMutability": "view",
      "type": "function"
    },
    {
      "constant": true,
      "inputs": [
        {
          "name": "",
          "type": "address"
        },
        {
          "name": "",
          "type": "uint256"
        }
      ],
      "name": "instantiations",
      "outputs": [
        {
          "name": "",
          "type": "address"
        }
      ],
      "payable": false,
      "stateMutability": "view",
      "type": "function"
    },
    {
      "constant": true,
      "inputs": [
        {
          "name": "creator",
          "type": "address"
        }
      ],
      "name": "getInstantiationCount",
      "outputs": [
        {
          "name": "",
          "type": "uint256"
        }
      ],
      "payable": false,
      "stateMutability": "view",
      "type": "function"
    },
    {
      "inputs": [
        {
          "name": "multisigFactoryAddr",
          "type": "address"
        }
      ],
      "payable": false,
      "stateMutability": "nonpayable",
      "type": "constructor"
    },
    {
      "anonymous": false,
      "inputs": [
        {
          "indexed": false,
          "name": "sender",
          "type": "address"
        },
        {
          "indexed": false,
          "name": "instantiation",
          "type": "address"
        }
      ],
      "name": "ContractInstantiation",
      "type": "event"
    },
    {
      "constant": false,
      "inputs": [
        {
          "name": "name",
          "type": "string"
        },
        {
          "name": "initialOwners",
          "type": "address[]"
        },
        {
          "name": "initialRequired",
          "type": "uint256"
        }
      ],
      "name": "create",
      "outputs": [
        {
          "name": "newsroom",
          "type": "address"
        }
      ],
      "payable": false,
      "stateMutability": "nonpayable",
      "type": "function"
    }
  ],
  "bytecode": "0x6060604052341561000f57600080fd5b604051602080611cda8339810160405280805190602001909190505080600260006101000a81548173ffffffffffffffffffffffffffffffffffffffff021916908373ffffffffffffffffffffffffffffffffffffffff16021790555050611c5e8061007c6000396000f30060606040526004361061006d576000357c0100000000000000000000000000000000000000000000000000000000900463ffffffff1680632f4f331614610072578063421b58d6146100c357806357183c821461011857806384aa95ff1461019a5780638f83847814610280575b600080fd5b341561007d57600080fd5b6100a9600480803573ffffffffffffffffffffffffffffffffffffffff169060200190919050506102cd565b604051808215151515815260200191505060405180910390f35b34156100ce57600080fd5b6100d66102ed565b604051808273ffffffffffffffffffffffffffffffffffffffff1673ffffffffffffffffffffffffffffffffffffffff16815260200191505060405180910390f35b341561012357600080fd5b610158600480803573ffffffffffffffffffffffffffffffffffffffff16906020019091908035906020019091905050610313565b604051808273ffffffffffffffffffffffffffffffffffffffff1673ffffffffffffffffffffffffffffffffffffffff16815260200191505060405180910390f35b34156101a557600080fd5b61023e600480803590602001908201803590602001908080601f0160208091040260200160405190810160405280939291908181526020018383808284378201915050505050509190803590602001908201803590602001908080602002602001604051908101604052809392919081815260200183836020028082843782019150505050505091908035906020019091905050610361565b604051808273ffffffffffffffffffffffffffffffffffffffff1673ffffffffffffffffffffffffffffffffffffffff16815260200191505060405180910390f35b341561028b57600080fd5b6102b7600480803573ffffffffffffffffffffffffffffffffffffffff169060200190919050506105b2565b6040518082815260200191505060405180910390f35b60006020528060005260406000206000915054906101000a900460ff1681565b600260009054906101000a900473ffffffffffffffffffffffffffffffffffffffff1681565b60016020528160005260406000208181548110151561032e57fe5b90600052602060002090016000915091509054906101000a900473ffffffffffffffffffffffffffffffffffffffff1681565b600080600260009054906101000a900473ffffffffffffffffffffffffffffffffffffffff1673ffffffffffffffffffffffffffffffffffffffff1663f8f7380885856000604051602001526040518363ffffffff167c01000000000000000000000000000000000000000000000000000000000281526004018080602001838152602001828103825284818151815260200191508051906020019060200280838360005b83811015610421578082015181840152602081019050610406565b505050509050019350505050602060405180830381600087803b151561044657600080fd5b6102c65a03f1151561045757600080fd5b5050506040518051905090508461046c61078f565b8080602001828103825283818151815260200191508051906020019080838360005b838110156104a957808201518184015260208101905061048e565b50505050905090810190601f1680156104d65780820380516001836020036101000a031916815260200191505b5092505050604051809103906000f08015156104f157600080fd5b91508173ffffffffffffffffffffffffffffffffffffffff1663f2fde38b826040518263ffffffff167c0100000000000000000000000000000000000000000000000000000000028152600401808273ffffffffffffffffffffffffffffffffffffffff1673ffffffffffffffffffffffffffffffffffffffff168152602001915050600060405180830381600087803b151561058d57600080fd5b6102c65a03f1151561059e57600080fd5b5050506105aa826105fe565b509392505050565b6000600160008373ffffffffffffffffffffffffffffffffffffffff1673ffffffffffffffffffffffffffffffffffffffff168152602001908152602001600020805490509050919050565b60016000808373ffffffffffffffffffffffffffffffffffffffff1673ffffffffffffffffffffffffffffffffffffffff16815260200190815260200160002060006101000a81548160ff021916908315150217905550600160003373ffffffffffffffffffffffffffffffffffffffff1673ffffffffffffffffffffffffffffffffffffffff16815260200190815260200160002080548060010182816106a6919061079f565b9160005260206000209001600083909190916101000a81548173ffffffffffffffffffffffffffffffffffffffff021916908373ffffffffffffffffffffffffffffffffffffffff160217905550507f4fb057ad4a26ed17a57957fa69c306f11987596069b89521c511fc9a894e61613382604051808373ffffffffffffffffffffffffffffffffffffffff1673ffffffffffffffffffffffffffffffffffffffff1681526020018273ffffffffffffffffffffffffffffffffffffffff1673ffffffffffffffffffffffffffffffffffffffff1681526020019250505060405180910390a150565b604051611442806107f183390190565b8154818355818115116107c6578183600052602060002091820191016107c591906107cb565b5b505050565b6107ed91905b808211156107e95760008160009055506001016107d1565b5090565b905600606060405234156200001057600080fd5b604051620014423803806200144283398101604052808051820191905050336000806101000a81548173ffffffffffffffffffffffffffffffffffffffff021916908373ffffffffffffffffffffffffffffffffffffffff1602179055506200008d81620000946401000000000262000aa9176401000000009004565b506200028a565b6000809054906101000a900473ffffffffffffffffffffffffffffffffffffffff1673ffffffffffffffffffffffffffffffffffffffff163373ffffffffffffffffffffffffffffffffffffffff16141515620000f057600080fd5b600081511115156200010157600080fd5b806004908051906020019062000119929190620001db565b507f4737457377f528cc8afd815f73ecb8b05df80d047dbffc41c17750a4033592bc60046040518080602001828103825283818154600181600116156101000203166002900481526020019150805460018160011615610100020316600290048015620001ca5780601f106200019e57610100808354040283529160200191620001ca565b820191906000526020600020905b815481529060010190602001808311620001ac57829003601f168201915b50509250505060405180910390a150565b828054600181600116156101000203166002900490600052602060002090601f016020900481019282601f106200021e57805160ff19168380011785556200024f565b828001600101855582156200024f579182015b828111156200024e57825182559160200191906001019062000231565b5b5090506200025e919062000262565b5090565b6200028791905b808211156200028357600081600090555060010162000269565b5090565b90565b6111a8806200029a6000396000f3006060604052600436106100a4576000357c0100000000000000000000000000000000000000000000000000000000900463ffffffff16806306fdde03146100a95780631bfe030814610137578063217fe6c6146101b35780632f54bf6e146102475780637d72aa65146102985780638da5cb5b146103145780639815b39814610369578063baa0b806146103e7578063c47f0027146104e9578063f2fde38b14610546575b600080fd5b34156100b457600080fd5b6100bc61057f565b6040518080602001828103825283818151815260200191508051906020019080838360005b838110156100fc5780820151818401526020810190506100e1565b50505050905090810190601f1680156101295780820380516001836020036101000a031916815260200191505b509250505060405180910390f35b341561014257600080fd5b6101b1600480803573ffffffffffffffffffffffffffffffffffffffff1690602001909190803590602001908201803590602001908080601f0160208091040260200160405190810160405280939291908181526020018383808284378201915050505050509190505061061d565b005b34156101be57600080fd5b61022d600480803573ffffffffffffffffffffffffffffffffffffffff1690602001909190803590602001908201803590602001908080601f01602080910402602001604051908101604052809392919081815260200183838082843782019150505050505091905050610687565b604051808215151515815260200191505060405180910390f35b341561025257600080fd5b61027e600480803573ffffffffffffffffffffffffffffffffffffffff1690602001909190505061074a565b604051808215151515815260200191505060405180910390f35b34156102a357600080fd5b610312600480803573ffffffffffffffffffffffffffffffffffffffff1690602001909190803590602001908201803590602001908080601f016020809104026020016040519081016040528093929190818152602001838380828437820191505050505050919050506107a3565b005b341561031f57600080fd5b61032761080d565b604051808273ffffffffffffffffffffffffffffffffffffffff1673ffffffffffffffffffffffffffffffffffffffff16815260200191505060405180910390f35b341561037457600080fd5b6103d1600480803590602001908201803590602001908080601f0160208091040260200160405190810160405280939291908181526020018383808284378201915050505050509190803560001916906020019091905050610832565b6040518082815260200191505060405180910390f35b34156103f257600080fd5b6104086004808035906020019091905050610a5a565b604051808560001916600019168152602001806020018481526020018373ffffffffffffffffffffffffffffffffffffffff1673ffffffffffffffffffffffffffffffffffffffff1681526020018281038252858181546001816001161561010002031660029004815260200191508054600181600116156101000203166002900480156104d75780601f106104ac576101008083540402835291602001916104d7565b820191906000526020600020905b8154815290600101906020018083116104ba57829003601f168201915b50509550505050505060405180910390f35b34156104f457600080fd5b610544600480803590602001908201803590602001908080601f01602080910402602001604051908101604052809392919081815260200183838082843782019150505050505091905050610aa9565b005b341561055157600080fd5b61057d600480803573ffffffffffffffffffffffffffffffffffffffff16906020019091905050610be8565b005b60048054600181600116156101000203166002900480601f0160208091040260200160405190810160405280929190818152602001828054600181600116156101000203166002900480156106155780601f106105ea57610100808354040283529160200191610615565b820191906000526020600020905b8154815290600101906020018083116105f857829003601f168201915b505050505081565b6040805190810160405280600681526020017f656469746f72000000000000000000000000000000000000000000000000000081525061065c3361074a565b8061066d575061066c3382610687565b5b151561067857600080fd5b6106828383610d3d565b505050565b60006001826040518082805190602001908083835b6020831015156106c1578051825260208201915060208101905060208303925061069c565b6001836020036101000a038019825116818451168082178552505050505050905001915050908152602001604051809103902060000160008473ffffffffffffffffffffffffffffffffffffffff1673ffffffffffffffffffffffffffffffffffffffff16815260200190815260200160002060009054906101000a900460ff16905092915050565b60008060009054906101000a900473ffffffffffffffffffffffffffffffffffffffff1673ffffffffffffffffffffffffffffffffffffffff168273ffffffffffffffffffffffffffffffffffffffff16149050919050565b6040805190810160405280600681526020017f656469746f7200000000000000000000000000000000000000000000000000008152506107e23361074a565b806107f357506107f23382610687565b5b15156107fe57600080fd5b6108088383610ec6565b505050565b6000809054906101000a900473ffffffffffffffffffffffffffffffffffffffff1681565b6000806040805190810160405280600681526020017f656469746f7200000000000000000000000000000000000000000000000000008152506108743361074a565b8061088557506108843382610687565b5b151561089057600080fd5b600085511115156108a057600080fd5b6000602060ff161115156108b357600080fd5b600254915060026000815480929190600101919050555060806040519081016040528085600019168152602001868152602001428152602001600073ffffffffffffffffffffffffffffffffffffffff1681525060036000848152602001908152602001600020600082015181600001906000191690556020820151816001019080519060200190610946929190611057565b506040820151816002015560608201518160030160006101000a81548173ffffffffffffffffffffffffffffffffffffffff021916908373ffffffffffffffffffffffffffffffffffffffff160217905550905050813373ffffffffffffffffffffffffffffffffffffffff167f3583c2854bdb780312beaa21ae0b2b65fe9317273fbca65614dfbb035253932f876040518080602001828103825283818151815260200191508051906020019080838360005b83811015610a155780820151818401526020810190506109fa565b50505050905090810190601f168015610a425780820380516001836020036101000a031916815260200191505b509250505060405180910390a3819250505092915050565b600360205280600052604060002060009150905080600001549080600101908060020154908060030160009054906101000a900473ffffffffffffffffffffffffffffffffffffffff16905084565b6000809054906101000a900473ffffffffffffffffffffffffffffffffffffffff1673ffffffffffffffffffffffffffffffffffffffff163373ffffffffffffffffffffffffffffffffffffffff16141515610b0457600080fd5b60008151111515610b1457600080fd5b8060049080519060200190610b2a9291906110d7565b507f4737457377f528cc8afd815f73ecb8b05df80d047dbffc41c17750a4033592bc60046040518080602001828103825283818154600181600116156101000203166002900481526020019150805460018160011615610100020316600290048015610bd75780601f10610bac57610100808354040283529160200191610bd7565b820191906000526020600020905b815481529060010190602001808311610bba57829003601f168201915b50509250505060405180910390a150565b6000809054906101000a900473ffffffffffffffffffffffffffffffffffffffff1673ffffffffffffffffffffffffffffffffffffffff163373ffffffffffffffffffffffffffffffffffffffff16141515610c4357600080fd5b600073ffffffffffffffffffffffffffffffffffffffff168173ffffffffffffffffffffffffffffffffffffffff1614151515610c7f57600080fd5b8073ffffffffffffffffffffffffffffffffffffffff166000809054906101000a900473ffffffffffffffffffffffffffffffffffffffff1673ffffffffffffffffffffffffffffffffffffffff167f8be0079c531659141344cd1fd0a4f28419497f9722a3daafe3b4186f6b6457e060405160405180910390a3806000806101000a81548173ffffffffffffffffffffffffffffffffffffffff021916908373ffffffffffffffffffffffffffffffffffffffff16021790555050565b6001816040518082805190602001908083835b602083101515610d755780518252602082019150602081019050602083039250610d50565b6001836020036101000a038019825116818451168082178552505050505050905001915050908152602001604051809103902060000160008373ffffffffffffffffffffffffffffffffffffffff1673ffffffffffffffffffffffffffffffffffffffff16815260200190815260200160002060006101000a81549060ff02191690558173ffffffffffffffffffffffffffffffffffffffff163373ffffffffffffffffffffffffffffffffffffffff167f6a52fb0cb0e75e6a6721483d2e539b38273ec6fe95b648a41e1a901594aeccb8836040518080602001828103825283818151815260200191508051906020019080838360005b83811015610e88578082015181840152602081019050610e6d565b50505050905090810190601f168015610eb55780820380516001836020036101000a031916815260200191505b509250505060405180910390a35050565b600180826040518082805190602001908083835b602083101515610eff5780518252602082019150602081019050602083039250610eda565b6001836020036101000a038019825116818451168082178552505050505050905001915050908152602001604051809103902060000160008473ffffffffffffffffffffffffffffffffffffffff1673ffffffffffffffffffffffffffffffffffffffff16815260200190815260200160002060006101000a81548160ff0219169083151502179055508173ffffffffffffffffffffffffffffffffffffffff163373ffffffffffffffffffffffffffffffffffffffff167fa40c1dc2b34f6b51c3ea614b688f243e50047ed9fa3ea19010303d70dac781ed836040518080602001828103825283818151815260200191508051906020019080838360005b83811015611019578082015181840152602081019050610ffe565b50505050905090810190601f1680156110465780820380516001836020036101000a031916815260200191505b509250505060405180910390a35050565b828054600181600116156101000203166002900490600052602060002090601f016020900481019282601f1061109857805160ff19168380011785556110c6565b828001600101855582156110c6579182015b828111156110c55782518255916020019190600101906110aa565b5b5090506110d39190611157565b5090565b828054600181600116156101000203166002900490600052602060002090601f016020900481019282601f1061111857805160ff1916838001178555611146565b82800160010185558215611146579182015b8281111561114557825182559160200191906001019061112a565b5b5090506111539190611157565b5090565b61117991905b8082111561117557600081600090555060010161115d565b5090565b905600a165627a7a72305820405802af3a2496d005f27e8df4820117f283b33fe983c7294eca160d196e166a0029a165627a7a72305820f6638d312fd2a150e56f6d3fc2190147ed2f3d34da7fcd3f342bd04acf4eae080029",
  "source": "pragma solidity ^0.4.19;\n// TODO(ritave): Think of a way to not require contracts out of package\nimport \"../multisig/Factory.sol\";\n\nimport \"../interfaces/IMultiSigWalletFactory.sol\";\nimport \"./Newsroom.sol\";\n\ncontract NewsroomFactory is Factory {\n  IMultiSigWalletFactory public multisigFactory;\n\n  function NewsroomFactory(address multisigFactoryAddr) public {\n    multisigFactory = IMultiSigWalletFactory(multisigFactoryAddr);\n  }\n\n  function create(string name, address[] initialOwners, uint initialRequired)\n    public\n    returns (Newsroom newsroom)\n  {\n    address wallet = multisigFactory.create(initialOwners, initialRequired);\n    newsroom = new Newsroom(name);\n    newsroom.transferOwnership(wallet);\n    register(newsroom);\n  }\n}\n",
  "sourcePath": "/Users/walkerflynn/civil/Civil/packages/contracts/contracts/newsroom/NewsroomFactory.sol",
  "compiler": {
    "name": "solc",
    "version": "0.4.19+commit.c4cbbb05.Emscripten.clang"
  },
  "schemaVersion": "2.0.0",
  "updatedAt": "2018-04-19T02:12:18.680Z"
}