{
  "contractName": "OwnedAddressTCRWithAppeals",
  "abi": [
    {
      "constant": true,
      "inputs": [],
      "name": "judgeAppealPhaseLength",
      "outputs": [
        {
          "name": "",
          "type": "uint256"
        }
      ],
      "payable": false,
      "stateMutability": "view",
      "type": "function"
    },
    {
      "constant": true,
      "inputs": [
        {
          "name": "challengeID",
          "type": "uint256"
        }
      ],
      "name": "getChallengeChallenger",
      "outputs": [
        {
          "name": "",
          "type": "address"
        }
      ],
      "payable": false,
      "stateMutability": "view",
      "type": "function"
    },
    {
      "constant": true,
      "inputs": [
        {
          "name": "challengeID",
          "type": "uint256"
        }
      ],
      "name": "getChallengeStake",
      "outputs": [
        {
          "name": "",
          "type": "uint256"
        }
      ],
      "payable": false,
      "stateMutability": "view",
      "type": "function"
    },
    {
      "constant": true,
      "inputs": [
        {
          "name": "listingAddress",
          "type": "address"
        }
      ],
      "name": "getListingApplicationExpiry",
      "outputs": [
        {
          "name": "",
          "type": "uint256"
        }
      ],
      "payable": false,
      "stateMutability": "view",
      "type": "function"
    },
    {
      "constant": true,
      "inputs": [
        {
          "name": "",
          "type": "uint256"
        }
      ],
      "name": "challengesOverturned",
      "outputs": [
        {
          "name": "",
          "type": "bool"
        }
      ],
      "payable": false,
      "stateMutability": "view",
      "type": "function"
    },
    {
      "constant": true,
      "inputs": [
        {
          "name": "listingAddress",
          "type": "address"
        }
      ],
      "name": "challengeCanBeResolved",
      "outputs": [
        {
          "name": "",
          "type": "bool"
        }
      ],
      "payable": false,
      "stateMutability": "view",
      "type": "function"
    },
    {
      "constant": true,
      "inputs": [
        {
          "name": "challengeID",
          "type": "uint256"
        }
      ],
      "name": "getChallengeTotalTokens",
      "outputs": [
        {
          "name": "",
          "type": "uint256"
        }
      ],
      "payable": false,
      "stateMutability": "view",
      "type": "function"
    },
    {
      "constant": true,
      "inputs": [],
      "name": "requestAppealPhaseLength",
      "outputs": [
        {
          "name": "",
          "type": "uint256"
        }
      ],
      "payable": false,
      "stateMutability": "view",
      "type": "function"
    },
    {
      "constant": true,
      "inputs": [],
      "name": "feeRecipient",
      "outputs": [
        {
          "name": "",
          "type": "address"
        }
      ],
      "payable": false,
      "stateMutability": "view",
      "type": "function"
    },
    {
      "constant": false,
      "inputs": [
        {
          "name": "listingAddress",
          "type": "address"
        },
        {
          "name": "amount",
          "type": "uint256"
        }
      ],
      "name": "deposit",
      "outputs": [],
      "payable": false,
      "stateMutability": "nonpayable",
      "type": "function"
    },
    {
      "constant": true,
      "inputs": [],
      "name": "version",
      "outputs": [
        {
          "name": "",
          "type": "uint256"
        }
      ],
      "payable": false,
      "stateMutability": "view",
      "type": "function"
    },
    {
      "constant": false,
      "inputs": [
        {
          "name": "listingAddress",
          "type": "address"
        },
        {
          "name": "amount",
          "type": "uint256"
        },
        {
          "name": "data",
          "type": "string"
        }
      ],
      "name": "apply",
      "outputs": [],
      "payable": false,
      "stateMutability": "nonpayable",
      "type": "function"
    },
    {
      "constant": true,
      "inputs": [
        {
          "name": "listingAddress",
          "type": "address"
        }
      ],
      "name": "appWasMade",
      "outputs": [
        {
          "name": "",
          "type": "bool"
        }
      ],
      "payable": false,
      "stateMutability": "view",
      "type": "function"
    },
    {
      "constant": true,
      "inputs": [
        {
          "name": "listingAddress",
          "type": "address"
        }
      ],
      "name": "getListingOwner",
      "outputs": [
        {
          "name": "",
          "type": "address"
        }
      ],
      "payable": false,
      "stateMutability": "view",
      "type": "function"
    },
    {
      "constant": true,
      "inputs": [
        {
          "name": "challengeID",
          "type": "uint256"
        }
      ],
      "name": "getChallengeRewardPool",
      "outputs": [
        {
          "name": "",
          "type": "uint256"
        }
      ],
      "payable": false,
      "stateMutability": "view",
      "type": "function"
    },
    {
      "constant": true,
      "inputs": [
        {
          "name": "listingAddress",
          "type": "address"
        }
      ],
      "name": "challengeExists",
      "outputs": [
        {
          "name": "",
          "type": "bool"
        }
      ],
      "payable": false,
      "stateMutability": "view",
      "type": "function"
    },
    {
      "constant": true,
      "inputs": [
        {
          "name": "challengeID",
          "type": "uint256"
        }
      ],
      "name": "getChallengeResolved",
      "outputs": [
        {
          "name": "",
          "type": "bool"
        }
      ],
      "payable": false,
      "stateMutability": "view",
      "type": "function"
    },
    {
      "constant": true,
      "inputs": [],
      "name": "appealFee",
      "outputs": [
        {
          "name": "",
          "type": "uint256"
        }
      ],
      "payable": false,
      "stateMutability": "view",
      "type": "function"
    },
    {
      "constant": false,
      "inputs": [
        {
          "name": "listingAddress",
          "type": "address"
        }
      ],
      "name": "exitListing",
      "outputs": [],
      "payable": false,
      "stateMutability": "nonpayable",
      "type": "function"
    },
    {
      "constant": true,
      "inputs": [
        {
          "name": "listingAddress",
          "type": "address"
        }
      ],
      "name": "getListingUnstakedDeposit",
      "outputs": [
        {
          "name": "",
          "type": "uint256"
        }
      ],
      "payable": false,
      "stateMutability": "view",
      "type": "function"
    },
    {
      "constant": true,
      "inputs": [
        {
          "name": "listingAddress",
          "type": "address"
        }
      ],
      "name": "getListingIsWhitelisted",
      "outputs": [
        {
          "name": "",
          "type": "bool"
        }
      ],
      "payable": false,
      "stateMutability": "view",
      "type": "function"
    },
    {
      "constant": true,
      "inputs": [
        {
          "name": "challengeID",
          "type": "uint256"
        },
        {
          "name": "voter",
          "type": "address"
        }
      ],
      "name": "tokenClaims",
      "outputs": [
        {
          "name": "",
          "type": "bool"
        }
      ],
      "payable": false,
      "stateMutability": "view",
      "type": "function"
    },
    {
      "constant": false,
      "inputs": [
        {
          "name": "listingAddress",
          "type": "address"
        },
        {
          "name": "data",
          "type": "string"
        }
      ],
      "name": "challenge",
      "outputs": [
        {
          "name": "challengeID",
          "type": "uint256"
        }
      ],
      "payable": false,
      "stateMutability": "nonpayable",
      "type": "function"
    },
    {
      "constant": true,
      "inputs": [
        {
          "name": "challengeID",
          "type": "uint256"
        }
      ],
      "name": "determineReward",
      "outputs": [
        {
          "name": "",
          "type": "uint256"
        }
      ],
      "payable": false,
      "stateMutability": "view",
      "type": "function"
    },
    {
      "constant": true,
      "inputs": [],
      "name": "appellate",
      "outputs": [
        {
          "name": "",
          "type": "address"
        }
      ],
      "payable": false,
      "stateMutability": "view",
      "type": "function"
    },
    {
      "constant": true,
      "inputs": [
        {
          "name": "listingAddress",
          "type": "address"
        }
      ],
      "name": "canBeWhitelisted",
      "outputs": [
        {
          "name": "",
          "type": "bool"
        }
      ],
      "payable": false,
      "stateMutability": "view",
      "type": "function"
    },
    {
      "constant": true,
      "inputs": [],
      "name": "parameterizer",
      "outputs": [
        {
          "name": "",
          "type": "address"
        }
      ],
      "payable": false,
      "stateMutability": "view",
      "type": "function"
    },
    {
      "constant": false,
      "inputs": [
        {
          "name": "listingAddress",
          "type": "address"
        },
        {
          "name": "amount",
          "type": "uint256"
        }
      ],
      "name": "withdraw",
      "outputs": [],
      "payable": false,
      "stateMutability": "nonpayable",
      "type": "function"
    },
    {
      "constant": true,
      "inputs": [
        {
          "name": "listingAddress",
          "type": "address"
        }
      ],
      "name": "getListingChallengeID",
      "outputs": [
        {
          "name": "",
          "type": "uint256"
        }
      ],
      "payable": false,
      "stateMutability": "view",
      "type": "function"
    },
    {
      "constant": true,
      "inputs": [],
      "name": "deniedAppealFees",
      "outputs": [
        {
          "name": "",
          "type": "uint256"
        }
      ],
      "payable": false,
      "stateMutability": "view",
      "type": "function"
    },
    {
      "constant": true,
      "inputs": [],
      "name": "token",
      "outputs": [
        {
          "name": "",
          "type": "address"
        }
      ],
      "payable": false,
      "stateMutability": "view",
      "type": "function"
    },
    {
      "constant": true,
      "inputs": [],
      "name": "voting",
      "outputs": [
        {
          "name": "",
          "type": "address"
        }
      ],
      "payable": false,
      "stateMutability": "view",
      "type": "function"
    },
    {
      "inputs": [
        {
          "name": "tokenAddr",
          "type": "address"
        },
        {
          "name": "plcrAddr",
          "type": "address"
        },
        {
          "name": "paramsAddr",
          "type": "address"
        },
        {
          "name": "appellateAddr",
          "type": "address"
        },
        {
          "name": "feeRecipientAddr",
          "type": "address"
        }
      ],
      "payable": false,
      "stateMutability": "nonpayable",
      "type": "constructor"
    },
    {
      "anonymous": false,
      "inputs": [
        {
          "indexed": true,
          "name": "requester",
          "type": "address"
        },
        {
          "indexed": true,
          "name": "listing",
          "type": "address"
        }
      ],
      "name": "AppealRequested",
      "type": "event"
    },
    {
      "anonymous": false,
      "inputs": [
        {
          "indexed": true,
          "name": "listing",
          "type": "address"
        }
      ],
      "name": "AppealGranted",
      "type": "event"
    },
    {
      "anonymous": false,
      "inputs": [
        {
          "indexed": true,
          "name": "listing",
          "type": "address"
        }
      ],
      "name": "JECWhitelistedListing",
      "type": "event"
    },
    {
      "anonymous": false,
      "inputs": [
        {
          "indexed": false,
          "name": "fee",
          "type": "uint256"
        }
      ],
      "name": "AppealFeeSet",
      "type": "event"
    },
    {
      "anonymous": false,
      "inputs": [
        {
          "indexed": false,
          "name": "length",
          "type": "uint256"
        }
      ],
      "name": "MakeAppealLengthSet",
      "type": "event"
    },
    {
      "anonymous": false,
      "inputs": [
        {
          "indexed": false,
          "name": "length",
          "type": "uint256"
        }
      ],
      "name": "AppealLengthSet",
      "type": "event"
    },
    {
      "anonymous": false,
      "inputs": [
        {
          "indexed": false,
          "name": "recipient",
          "type": "address"
        }
      ],
      "name": "FeeRecipientSet",
      "type": "event"
    },
    {
      "anonymous": false,
      "inputs": [
        {
          "indexed": true,
          "name": "listingAddress",
          "type": "address"
        },
        {
          "indexed": false,
          "name": "deposit",
          "type": "uint256"
        },
        {
          "indexed": false,
          "name": "data",
          "type": "string"
        }
      ],
      "name": "Application",
      "type": "event"
    },
    {
      "anonymous": false,
      "inputs": [
        {
          "indexed": true,
          "name": "listingAddress",
          "type": "address"
        },
        {
          "indexed": false,
          "name": "deposit",
          "type": "uint256"
        },
        {
          "indexed": true,
          "name": "pollID",
          "type": "uint256"
        },
        {
          "indexed": false,
          "name": "data",
          "type": "string"
        }
      ],
      "name": "ChallengeInitiated",
      "type": "event"
    },
    {
      "anonymous": false,
      "inputs": [
        {
          "indexed": true,
          "name": "listingAddress",
          "type": "address"
        },
        {
          "indexed": false,
          "name": "added",
          "type": "uint256"
        },
        {
          "indexed": false,
          "name": "newTotal",
          "type": "uint256"
        }
      ],
      "name": "Deposit",
      "type": "event"
    },
    {
      "anonymous": false,
      "inputs": [
        {
          "indexed": true,
          "name": "listingAddress",
          "type": "address"
        },
        {
          "indexed": false,
          "name": "withdrew",
          "type": "uint256"
        },
        {
          "indexed": false,
          "name": "newTotal",
          "type": "uint256"
        }
      ],
      "name": "Withdrawal",
      "type": "event"
    },
    {
      "anonymous": false,
      "inputs": [
        {
          "indexed": true,
          "name": "listingAddress",
          "type": "address"
        }
      ],
      "name": "NewListingWhitelisted",
      "type": "event"
    },
    {
      "anonymous": false,
      "inputs": [
        {
          "indexed": true,
          "name": "listingAddress",
          "type": "address"
        }
      ],
      "name": "ApplicationRemoved",
      "type": "event"
    },
    {
      "anonymous": false,
      "inputs": [
        {
          "indexed": true,
          "name": "listingAddress",
          "type": "address"
        }
      ],
      "name": "ListingRemoved",
      "type": "event"
    },
    {
      "anonymous": false,
      "inputs": [
        {
          "indexed": true,
          "name": "listingAddress",
          "type": "address"
        },
        {
          "indexed": true,
          "name": "challengeID",
          "type": "uint256"
        }
      ],
      "name": "ChallengeFailed",
      "type": "event"
    },
    {
      "anonymous": false,
      "inputs": [
        {
          "indexed": true,
          "name": "listingAddress",
          "type": "address"
        },
        {
          "indexed": true,
          "name": "challengeID",
          "type": "uint256"
        }
      ],
      "name": "ChallengeSucceeded",
      "type": "event"
    },
    {
      "anonymous": false,
      "inputs": [
        {
          "indexed": true,
          "name": "voter",
          "type": "address"
        },
        {
          "indexed": true,
          "name": "challengeID",
          "type": "uint256"
        },
        {
          "indexed": false,
          "name": "reward",
          "type": "uint256"
        }
      ],
      "name": "RewardClaimed",
      "type": "event"
    },
    {
      "constant": false,
      "inputs": [
        {
          "name": "listingAddress",
          "type": "address"
        }
      ],
      "name": "requestAppeal",
      "outputs": [],
      "payable": false,
      "stateMutability": "nonpayable",
      "type": "function"
    },
    {
      "constant": false,
      "inputs": [
        {
          "name": "listingAddress",
          "type": "address"
        }
      ],
      "name": "grantAppeal",
      "outputs": [],
      "payable": false,
      "stateMutability": "nonpayable",
      "type": "function"
    },
    {
      "constant": false,
      "inputs": [
        {
          "name": "listingAddress",
          "type": "address"
        },
        {
          "name": "depositAmount",
          "type": "uint256"
        }
      ],
      "name": "whitelistAddress",
      "outputs": [],
      "payable": false,
      "stateMutability": "nonpayable",
      "type": "function"
    },
    {
      "constant": false,
      "inputs": [
        {
          "name": "fee",
          "type": "uint256"
        }
      ],
      "name": "setAppealFee",
      "outputs": [],
      "payable": false,
      "stateMutability": "nonpayable",
      "type": "function"
    },
    {
      "constant": false,
      "inputs": [
        {
          "name": "length",
          "type": "uint256"
        }
      ],
      "name": "setMakeAppealLength",
      "outputs": [],
      "payable": false,
      "stateMutability": "nonpayable",
      "type": "function"
    },
    {
      "constant": false,
      "inputs": [
        {
          "name": "length",
          "type": "uint256"
        }
      ],
      "name": "setAppealLength",
      "outputs": [],
      "payable": false,
      "stateMutability": "nonpayable",
      "type": "function"
    },
    {
      "constant": false,
      "inputs": [
        {
          "name": "recipient",
          "type": "address"
        }
      ],
      "name": "setFeeRecipient",
      "outputs": [],
      "payable": false,
      "stateMutability": "nonpayable",
      "type": "function"
    },
    {
      "constant": false,
      "inputs": [],
      "name": "withdrawDeniedAppealsFees",
      "outputs": [],
      "payable": false,
      "stateMutability": "nonpayable",
      "type": "function"
    },
    {
      "constant": false,
      "inputs": [
        {
          "name": "listingAddress",
          "type": "address"
        }
      ],
      "name": "updateStatus",
      "outputs": [],
      "payable": false,
      "stateMutability": "nonpayable",
      "type": "function"
    },
    {
      "constant": false,
      "inputs": [
        {
          "name": "challengeID",
          "type": "uint256"
        },
        {
          "name": "salt",
          "type": "uint256"
        }
      ],
      "name": "claimReward",
      "outputs": [],
      "payable": false,
      "stateMutability": "nonpayable",
      "type": "function"
    },
    {
      "constant": true,
      "inputs": [
        {
          "name": "voter",
          "type": "address"
        },
        {
          "name": "challengeID",
          "type": "uint256"
        },
        {
          "name": "salt",
          "type": "uint256"
        }
      ],
      "name": "voterReward",
      "outputs": [
        {
          "name": "",
          "type": "uint256"
        }
      ],
      "payable": false,
      "stateMutability": "view",
      "type": "function"
    },
    {
      "constant": true,
      "inputs": [
        {
          "name": "listingAddress",
          "type": "address"
        }
      ],
      "name": "getRequestAppealPhaseExpiry",
      "outputs": [
        {
          "name": "",
          "type": "uint256"
        }
      ],
      "payable": false,
      "stateMutability": "view",
      "type": "function"
    },
    {
      "constant": true,
      "inputs": [
        {
          "name": "listingAddress",
          "type": "address"
        }
      ],
      "name": "getAppealRequested",
      "outputs": [
        {
          "name": "",
          "type": "bool"
        }
      ],
      "payable": false,
      "stateMutability": "view",
      "type": "function"
    },
    {
      "constant": true,
      "inputs": [
        {
          "name": "listingAddress",
          "type": "address"
        }
      ],
      "name": "getAppealFeePaid",
      "outputs": [
        {
          "name": "",
          "type": "uint256"
        }
      ],
      "payable": false,
      "stateMutability": "view",
      "type": "function"
    },
    {
      "constant": true,
      "inputs": [
        {
          "name": "listingAddress",
          "type": "address"
        }
      ],
      "name": "getAppealPhaseExpiry",
      "outputs": [
        {
          "name": "",
          "type": "uint256"
        }
      ],
      "payable": false,
      "stateMutability": "view",
      "type": "function"
    },
    {
      "constant": true,
      "inputs": [
        {
          "name": "listingAddress",
          "type": "address"
        }
      ],
      "name": "getAppealGranted",
      "outputs": [
        {
          "name": "",
          "type": "bool"
        }
      ],
      "payable": false,
      "stateMutability": "view",
      "type": "function"
    }
  ],
  "bytecode": "0x606060405260016005556203f48060095562127500600a55341561002257600080fd5b60405160a08061537d8339810160405280805190602001909190805190602001909190805190602001909190805190602001909190805190602001909190505084848482828282828282600260006101000a81548173ffffffffffffffffffffffffffffffffffffffff021916908373ffffffffffffffffffffffffffffffffffffffff16021790555081600360006101000a81548173ffffffffffffffffffffffffffffffffffffffff021916908373ffffffffffffffffffffffffffffffffffffffff16021790555080600460006101000a81548173ffffffffffffffffffffffffffffffffffffffff021916908373ffffffffffffffffffffffffffffffffffffffff16021790555050505050505050505081600660006101000a81548173ffffffffffffffffffffffffffffffffffffffff021916908373ffffffffffffffffffffffffffffffffffffffff16021790555080600760006101000a81548173ffffffffffffffffffffffffffffffffffffffff021916908373ffffffffffffffffffffffffffffffffffffffff16021790555050505050506151b0806101cd6000396000f300606060405260043610610246576000357c0100000000000000000000000000000000000000000000000000000000900463ffffffff16806301162b931461024b5780630bcbb5e51461028457806315586cf5146102ad578063186953a6146103105780631fcbdb7614610347578063200c7295146103945780632435766b146103d657806326c44aac146104115780632e7700d01461045e5780632ea9b696146104ab57806330d7dde4146104fc5780633770c25f14610533578063432261bb14610556578063463371a31461058f57806346904840146105b857806347e7ef241461060d57806354fd4d501461064f57806355246b9c146106785780635fd6722b146106fd57806361a9a8ca1461074e5780636477d07d1461079f5780636b244bae146108185780636eefcab91461084f578063706f0cb9146108a057806379110a47146108db5780637984e6b5146108fe5780637d3c5d01146109275780637fd57e0b1461096057806386bb8f37146109995780638fc36548146109c55780639dd2216b14610a12578063a5ba3b1e14610a63578063a7aad3db14610abd578063b2380e8f14610b1c578063bad7740e14610b69578063bc4b010f14610b8c578063c178521f14610c1c578063c8187cf114610c6d578063d229b61914610ca4578063d5fd9e6614610cb9578063dd4e7cfd14610d0e578063e1e3f91514610d5f578063e74b981b14610db4578063f3fef3a314610ded578063f81b164b14610e2f578063fa5f9eb414610e7c578063fc0c546a14610ea5578063fce1ccca14610efa575b600080fd5b341561025657600080fd5b610282600480803573ffffffffffffffffffffffffffffffffffffffff16906020019091905050610f4f565b005b341561028f57600080fd5b61029761112e565b6040518082815260200191505060405180910390f35b34156102b857600080fd5b6102ce6004808035906020019091905050611134565b604051808273ffffffffffffffffffffffffffffffffffffffff1673ffffffffffffffffffffffffffffffffffffffff16815260200191505060405180910390f35b341561031b57600080fd5b6103316004808035906020019091905050611173565b6040518082815260200191505060405180910390f35b341561035257600080fd5b61037e600480803573ffffffffffffffffffffffffffffffffffffffff16906020019091905050611192565b6040518082815260200191505060405180910390f35b341561039f57600080fd5b6103d4600480803573ffffffffffffffffffffffffffffffffffffffff169060200190919080359060200190919050506111de565b005b34156103e157600080fd5b6103f760048080359060200190919050506116c8565b604051808215151515815260200191505060405180910390f35b341561041c57600080fd5b610448600480803573ffffffffffffffffffffffffffffffffffffffff169060200190919050506116e8565b6040518082815260200191505060405180910390f35b341561046957600080fd5b610495600480803573ffffffffffffffffffffffffffffffffffffffff16906020019091905050611734565b6040518082815260200191505060405180910390f35b34156104b657600080fd5b6104e2600480803573ffffffffffffffffffffffffffffffffffffffff16906020019091905050611780565b604051808215151515815260200191505060405180910390f35b341561050757600080fd5b61051d6004808035906020019091905050611898565b6040518082815260200191505060405180910390f35b341561053e57600080fd5b61055460048080359060200190919050506118b7565b005b341561056157600080fd5b61058d600480803573ffffffffffffffffffffffffffffffffffffffff16906020019091905050611963565b005b341561059a57600080fd5b6105a2611c33565b6040518082815260200191505060405180910390f35b34156105c357600080fd5b6105cb611c39565b604051808273ffffffffffffffffffffffffffffffffffffffff1673ffffffffffffffffffffffffffffffffffffffff16815260200191505060405180910390f35b341561061857600080fd5b61064d600480803573ffffffffffffffffffffffffffffffffffffffff16906020019091908035906020019091905050611c5f565b005b341561065a57600080fd5b610662611e98565b6040518082815260200191505060405180910390f35b341561068357600080fd5b6106fb600480803573ffffffffffffffffffffffffffffffffffffffff1690602001909190803590602001909190803590602001908201803590602001908080601f01602080910402602001604051908101604052809392919081815260200183838082843782019150505050505091905050611e9e565b005b341561070857600080fd5b610734600480803573ffffffffffffffffffffffffffffffffffffffff16906020019091905050611f76565b604051808215151515815260200191505060405180910390f35b341561075957600080fd5b610785600480803573ffffffffffffffffffffffffffffffffffffffff16906020019091905050611fcf565b604051808215151515815260200191505060405180910390f35b34156107aa57600080fd5b6107d6600480803573ffffffffffffffffffffffffffffffffffffffff1690602001909190505061201d565b604051808273ffffffffffffffffffffffffffffffffffffffff1673ffffffffffffffffffffffffffffffffffffffff16815260200191505060405180910390f35b341561082357600080fd5b6108396004808035906020019091905050612089565b6040518082815260200191505060405180910390f35b341561085a57600080fd5b610886600480803573ffffffffffffffffffffffffffffffffffffffff169060200190919050506120a8565b604051808215151515815260200191505060405180910390f35b34156108ab57600080fd5b6108c1600480803590602001909190505061216a565b604051808215151515815260200191505060405180910390f35b34156108e657600080fd5b6108fc6004808035906020019091905050612196565b005b341561090957600080fd5b610911612242565b6040518082815260200191505060405180910390f35b341561093257600080fd5b61095e600480803573ffffffffffffffffffffffffffffffffffffffff16906020019091905050612248565b005b341561096b57600080fd5b610997600480803573ffffffffffffffffffffffffffffffffffffffff1690602001909190505061237b565b005b34156109a457600080fd5b6109c3600480803590602001909190803590602001909190505061247e565b005b34156109d057600080fd5b6109fc600480803573ffffffffffffffffffffffffffffffffffffffff1690602001909190505061284c565b6040518082815260200191505060405180910390f35b3415610a1d57600080fd5b610a49600480803573ffffffffffffffffffffffffffffffffffffffff16906020019091905050612898565b604051808215151515815260200191505060405180910390f35b3415610a6e57600080fd5b610aa3600480803590602001909190803573ffffffffffffffffffffffffffffffffffffffff169060200190919050506128f1565b604051808215151515815260200191505060405180910390f35b3415610ac857600080fd5b610b06600480803573ffffffffffffffffffffffffffffffffffffffff1690602001909190803590602001909190803590602001909190505061295b565b6040518082815260200191505060405180910390f35b3415610b2757600080fd5b610b53600480803573ffffffffffffffffffffffffffffffffffffffff16906020019091905050612ac9565b6040518082815260200191505060405180910390f35b3415610b7457600080fd5b610b8a6004808035906020019091905050612b15565b005b3415610b9757600080fd5b610c06600480803573ffffffffffffffffffffffffffffffffffffffff1690602001909190803590602001908201803590602001908080601f01602080910402602001604051908101604052809392919081815260200183838082843782019150505050505091905050612bc1565b6040518082815260200191505060405180910390f35b3415610c2757600080fd5b610c53600480803573ffffffffffffffffffffffffffffffffffffffff16906020019091905050613545565b604051808215151515815260200191505060405180910390f35b3415610c7857600080fd5b610c8e600480803590602001909190505061359e565b6040518082815260200191505060405180910390f35b3415610caf57600080fd5b610cb761379f565b005b3415610cc457600080fd5b610ccc613900565b604051808273ffffffffffffffffffffffffffffffffffffffff1673ffffffffffffffffffffffffffffffffffffffff16815260200191505060405180910390f35b3415610d1957600080fd5b610d45600480803573ffffffffffffffffffffffffffffffffffffffff16906020019091905050613926565b604051808215151515815260200191505060405180910390f35b3415610d6a57600080fd5b610d72613a2c565b604051808273ffffffffffffffffffffffffffffffffffffffff1673ffffffffffffffffffffffffffffffffffffffff16815260200191505060405180910390f35b3415610dbf57600080fd5b610deb600480803573ffffffffffffffffffffffffffffffffffffffff16906020019091905050613a52565b005b3415610df857600080fd5b610e2d600480803573ffffffffffffffffffffffffffffffffffffffff16906020019091908035906020019091905050613b55565b005b3415610e3a57600080fd5b610e66600480803573ffffffffffffffffffffffffffffffffffffffff16906020019091905050613e66565b6040518082815260200191505060405180910390f35b3415610e8757600080fd5b610e8f613eb2565b6040518082815260200191505060405180910390f35b3415610eb057600080fd5b610eb8613eb8565b604051808273ffffffffffffffffffffffffffffffffffffffff1673ffffffffffffffffffffffffffffffffffffffff16815260200191505060405180910390f35b3415610f0557600080fd5b610f0d613ede565b604051808273ffffffffffffffffffffffffffffffffffffffff1673ffffffffffffffffffffffffffffffffffffffff16815260200191505060405180910390f35b600080600c60008473ffffffffffffffffffffffffffffffffffffffff1673ffffffffffffffffffffffffffffffffffffffff1681526020019081526020016000209150600160008473ffffffffffffffffffffffffffffffffffffffff1673ffffffffffffffffffffffffffffffffffffffff1681526020019081526020016000209050610fdd83613926565b1561103357610feb83613f04565b8273ffffffffffffffffffffffffffffffffffffffff167f0be47533fe1d2625f0c1e32e07a77950b8d95efd37b95b8cac0f19a6124d520460405160405180910390a2611129565b61103c83611780565b801561110b5750600360009054906101000a900473ffffffffffffffffffffffffffffffffffffffff1673ffffffffffffffffffffffffffffffffffffffff16634940318382600301546000604051602001526040518263ffffffff167c010000000000000000000000000000000000000000000000000000000002815260040180828152602001915050602060405180830381600087803b15156110e057600080fd5b6102c65a03f115156110f157600080fd5b505050604051805190508061110a575060008260000154145b5b1561111e5761111983613f61565b611128565b611127836140d7565b5b5b505050565b600a5481565b600080600083815260200190815260200160002060010160009054906101000a900473ffffffffffffffffffffffffffffffffffffffff169050919050565b6000806000838152602001908152602001600020600201549050919050565b6000600160008373ffffffffffffffffffffffffffffffffffffffff1673ffffffffffffffffffffffffffffffffffffffff168152602001908152602001600020600001549050919050565b600080600660009054906101000a900473ffffffffffffffffffffffffffffffffffffffff1673ffffffffffffffffffffffffffffffffffffffff163373ffffffffffffffffffffffffffffffffffffffff1614151561123d57600080fd5b61124684612898565b15151561125257600080fd5b61125b84611fcf565b15151561126757600080fd5b600460009054906101000a900473ffffffffffffffffffffffffffffffffffffffff1673ffffffffffffffffffffffffffffffffffffffff1663693ec85e6000604051602001526040518163ffffffff167c010000000000000000000000000000000000000000000000000000000002815260040180806020018281038252600a8152602001807f6d696e4465706f73697400000000000000000000000000000000000000000000815250602001915050602060405180830381600087803b151561133157600080fd5b6102c65a03f1151561134257600080fd5b50505060405180519050831015151561135a57600080fd5b839150600073ffffffffffffffffffffffffffffffffffffffff168273ffffffffffffffffffffffffffffffffffffffff16638da5cb5b6000604051602001526040518163ffffffff167c0100000000000000000000000000000000000000000000000000000000028152600401602060405180830381600087803b15156113e157600080fd5b6102c65a03f115156113f257600080fd5b5050506040518051905073ffffffffffffffffffffffffffffffffffffffff161415151561141f57600080fd5b600260009054906101000a900473ffffffffffffffffffffffffffffffffffffffff1673ffffffffffffffffffffffffffffffffffffffff166323b872dd3330866000604051602001526040518463ffffffff167c0100000000000000000000000000000000000000000000000000000000028152600401808473ffffffffffffffffffffffffffffffffffffffff1673ffffffffffffffffffffffffffffffffffffffff1681526020018373ffffffffffffffffffffffffffffffffffffffff1673ffffffffffffffffffffffffffffffffffffffff1681526020018281526020019350505050602060405180830381600087803b151561152057600080fd5b6102c65a03f1151561153157600080fd5b50505060405180519050151561154657600080fd5b600160008573ffffffffffffffffffffffffffffffffffffffff1673ffffffffffffffffffffffffffffffffffffffff16815260200190815260200160002090504281600001819055508173ffffffffffffffffffffffffffffffffffffffff16638da5cb5b6000604051602001526040518163ffffffff167c0100000000000000000000000000000000000000000000000000000000028152600401602060405180830381600087803b15156115fc57600080fd5b6102c65a03f1151561160d57600080fd5b505050604051805190508160010160016101000a81548173ffffffffffffffffffffffffffffffffffffffff021916908373ffffffffffffffffffffffffffffffffffffffff16021790555060018160010160006101000a81548160ff0219169083151502179055508281600201819055508373ffffffffffffffffffffffffffffffffffffffff167fc7ba65315d60c160dd17a515cc2c209493b01812439c4a3de6eed83adbd0147160405160405180910390a250505050565b600d6020528060005260406000206000915054906101000a900460ff1681565b6000600c60008373ffffffffffffffffffffffffffffffffffffffff1673ffffffffffffffffffffffffffffffffffffffff168152602001908152602001600020600201549050919050565b6000600c60008373ffffffffffffffffffffffffffffffffffffffff1673ffffffffffffffffffffffffffffffffffffffff168152602001908152602001600020600001549050919050565b600080600160008473ffffffffffffffffffffffffffffffffffffffff1673ffffffffffffffffffffffffffffffffffffffff1681526020019081526020016000206003015490506117d1836120a8565b15156117dc57600080fd5b600360009054906101000a900473ffffffffffffffffffffffffffffffffffffffff1673ffffffffffffffffffffffffffffffffffffffff1663ee684830826000604051602001526040518263ffffffff167c010000000000000000000000000000000000000000000000000000000002815260040180828152602001915050602060405180830381600087803b151561187557600080fd5b6102c65a03f1151561188657600080fd5b50505060405180519050915050919050565b6000806000838152602001908152602001600020600301549050919050565b600660009054906101000a900473ffffffffffffffffffffffffffffffffffffffff1673ffffffffffffffffffffffffffffffffffffffff163373ffffffffffffffffffffffffffffffffffffffff1614151561191357600080fd5b60008111151561192257600080fd5b80600a819055507facfa781007712808522bc47b0dbc6d7aff970189f76b332ed8fe07b30c5e243a816040518082815260200191505060405180910390a150565b600080600160008473ffffffffffffffffffffffffffffffffffffffff1673ffffffffffffffffffffffffffffffffffffffff1681526020019081526020016000209150600c60008473ffffffffffffffffffffffffffffffffffffffff1673ffffffffffffffffffffffffffffffffffffffff16815260200190815260200160002090503373ffffffffffffffffffffffffffffffffffffffff168260010160019054906101000a900473ffffffffffffffffffffffffffffffffffffffff1673ffffffffffffffffffffffffffffffffffffffff16141515611a4657600080fd5b428160000154111515611a5857600080fd5b8060010160009054906101000a900460ff16151515611a7657600080fd5b600260009054906101000a900473ffffffffffffffffffffffffffffffffffffffff1673ffffffffffffffffffffffffffffffffffffffff166323b872dd33306008546000604051602001526040518463ffffffff167c0100000000000000000000000000000000000000000000000000000000028152600401808473ffffffffffffffffffffffffffffffffffffffff1673ffffffffffffffffffffffffffffffffffffffff1681526020018373ffffffffffffffffffffffffffffffffffffffff1673ffffffffffffffffffffffffffffffffffffffff1681526020018281526020019350505050602060405180830381600087803b1515611b7957600080fd5b6102c65a03f11515611b8a57600080fd5b505050604051805190501515611b9f57600080fd5b60018160010160006101000a81548160ff0219169083151502179055506008548160020181905550600a54420181600301819055508273ffffffffffffffffffffffffffffffffffffffff163373ffffffffffffffffffffffffffffffffffffffff167f11435de103cf37f78c58ddfa8dc649e42817a1fa6c17c9e0193aa98609d1529c60405160405180910390a3505050565b60095481565b600760009054906101000a900473ffffffffffffffffffffffffffffffffffffffff1681565b6000600160008473ffffffffffffffffffffffffffffffffffffffff1673ffffffffffffffffffffffffffffffffffffffff16815260200190815260200160002090503373ffffffffffffffffffffffffffffffffffffffff168160010160019054906101000a900473ffffffffffffffffffffffffffffffffffffffff1673ffffffffffffffffffffffffffffffffffffffff16141515611d0057600080fd5b600260009054906101000a900473ffffffffffffffffffffffffffffffffffffffff1673ffffffffffffffffffffffffffffffffffffffff166323b872dd3330856000604051602001526040518463ffffffff167c0100000000000000000000000000000000000000000000000000000000028152600401808473ffffffffffffffffffffffffffffffffffffffff1673ffffffffffffffffffffffffffffffffffffffff1681526020018373ffffffffffffffffffffffffffffffffffffffff1673ffffffffffffffffffffffffffffffffffffffff1681526020018281526020019350505050602060405180830381600087803b1515611e0157600080fd5b6102c65a03f11515611e1257600080fd5b505050604051805190501515611e2757600080fd5b8181600201600082825401925050819055508273ffffffffffffffffffffffffffffffffffffffff167f90890809c654f11d6e72a28fa60149770a0d11ec6c92319d6ceb2bb0a4ea1a15838360020154604051808381526020018281526020019250505060405180910390a2505050565b60055481565b8260008190503373ffffffffffffffffffffffffffffffffffffffff168173ffffffffffffffffffffffffffffffffffffffff16638da5cb5b6000604051602001526040518163ffffffff167c0100000000000000000000000000000000000000000000000000000000028152600401602060405180830381600087803b1515611f2757600080fd5b6102c65a03f11515611f3857600080fd5b5050506040518051905073ffffffffffffffffffffffffffffffffffffffff16141515611f6457600080fd5b611f6f858585614257565b5050505050565b6000600c60008373ffffffffffffffffffffffffffffffffffffffff1673ffffffffffffffffffffffffffffffffffffffff16815260200190815260200160002060040160009054906101000a900460ff169050919050565b600080600160008473ffffffffffffffffffffffffffffffffffffffff1673ffffffffffffffffffffffffffffffffffffffff16815260200190815260200160002060000154119050919050565b6000600160008373ffffffffffffffffffffffffffffffffffffffff1673ffffffffffffffffffffffffffffffffffffffff16815260200190815260200160002060010160019054906101000a900473ffffffffffffffffffffffffffffffffffffffff169050919050565b6000806000838152602001908152602001600020600001549050919050565b600080600160008473ffffffffffffffffffffffffffffffffffffffff1673ffffffffffffffffffffffffffffffffffffffff1681526020019081526020016000206003015490506000600160008573ffffffffffffffffffffffffffffffffffffffff1673ffffffffffffffffffffffffffffffffffffffff16815260200190815260200160002060030154118015612162575060008082815260200190815260200160002060010160149054906101000a900460ff16155b915050919050565b600080600083815260200190815260200160002060010160149054906101000a900460ff169050919050565b600660009054906101000a900473ffffffffffffffffffffffffffffffffffffffff1673ffffffffffffffffffffffffffffffffffffffff163373ffffffffffffffffffffffffffffffffffffffff161415156121f257600080fd5b60008111151561220157600080fd5b806008819055507ff6374eb73c33cf2a75b7d060f0c97c0ff6efcec0e8844b1746e73034ec9699d0816040518082815260200191505060405180910390a150565b60085481565b6000600660009054906101000a900473ffffffffffffffffffffffffffffffffffffffff1673ffffffffffffffffffffffffffffffffffffffff163373ffffffffffffffffffffffffffffffffffffffff161415156122a657600080fd5b600c60008373ffffffffffffffffffffffffffffffffffffffff1673ffffffffffffffffffffffffffffffffffffffff16815260200190815260200160002090504281600301541115156122f957600080fd5b8060040160009054906101000a900460ff1615151561231757600080fd5b60018160040160006101000a81548160ff0219169083151502179055508173ffffffffffffffffffffffffffffffffffffffff167f25f5ea68e34f6d6918854432015e5286b3b35476963d7aebf37fbe7f95983c5d60405160405180910390a25050565b6000600160008373ffffffffffffffffffffffffffffffffffffffff1673ffffffffffffffffffffffffffffffffffffffff16815260200190815260200160002090503373ffffffffffffffffffffffffffffffffffffffff168160010160019054906101000a900473ffffffffffffffffffffffffffffffffffffffff1673ffffffffffffffffffffffffffffffffffffffff1614151561241c57600080fd5b61242582612898565b151561243057600080fd5b60008160030154148061246657506000808260030154815260200190815260200160002060010160149054906101000a900460ff165b151561247157600080fd5b61247a8261427f565b5050565b6000806000151560008086815260200190815260200160002060040160003373ffffffffffffffffffffffffffffffffffffffff1673ffffffffffffffffffffffffffffffffffffffff16815260200190815260200160002060009054906101000a900460ff1615151415156124f357600080fd5b6001151560008086815260200190815260200160002060010160149054906101000a900460ff16151514151561252857600080fd5b600360009054906101000a900473ffffffffffffffffffffffffffffffffffffffff1673ffffffffffffffffffffffffffffffffffffffff1663ee8badd7338686600d60008a815260200190815260200160002060009054906101000a900460ff166000604051602001526040518563ffffffff167c0100000000000000000000000000000000000000000000000000000000028152600401808573ffffffffffffffffffffffffffffffffffffffff1673ffffffffffffffffffffffffffffffffffffffff16815260200184815260200183815260200182151515158152602001945050505050602060405180830381600087803b151561262957600080fd5b6102c65a03f1151561263a57600080fd5b50505060405180519050915061265133858561295b565b905081600080868152602001908152602001600020600301600082825403925050819055508060008086815260200190815260200160002060000160008282540392505081905550600260009054906101000a900473ffffffffffffffffffffffffffffffffffffffff1673ffffffffffffffffffffffffffffffffffffffff1663a9059cbb33836000604051602001526040518363ffffffff167c0100000000000000000000000000000000000000000000000000000000028152600401808373ffffffffffffffffffffffffffffffffffffffff1673ffffffffffffffffffffffffffffffffffffffff16815260200182815260200192505050602060405180830381600087803b151561276657600080fd5b6102c65a03f1151561277757600080fd5b50505060405180519050151561278c57600080fd5b600160008086815260200190815260200160002060040160003373ffffffffffffffffffffffffffffffffffffffff1673ffffffffffffffffffffffffffffffffffffffff16815260200190815260200160002060006101000a81548160ff021916908315150217905550833373ffffffffffffffffffffffffffffffffffffffff167ff01da32686223933d8a18a391060918c7f11a3648639edd87ae013e2e2731743836040518082815260200191505060405180910390a350505050565b6000600160008373ffffffffffffffffffffffffffffffffffffffff1673ffffffffffffffffffffffffffffffffffffffff168152602001908152602001600020600201549050919050565b6000600160008373ffffffffffffffffffffffffffffffffffffffff1673ffffffffffffffffffffffffffffffffffffffff16815260200190815260200160002060010160009054906101000a900460ff169050919050565b600080600084815260200190815260200160002060040160008373ffffffffffffffffffffffffffffffffffffffff1673ffffffffffffffffffffffffffffffffffffffff16815260200190815260200160002060009054906101000a900460ff16905092915050565b600080600080600080878152602001908152602001600020600301549250600080878152602001908152602001600020600001549150600360009054906101000a900473ffffffffffffffffffffffffffffffffffffffff1673ffffffffffffffffffffffffffffffffffffffff1663ee8badd7888888600d60008c815260200190815260200160002060009054906101000a900460ff166000604051602001526040518563ffffffff167c0100000000000000000000000000000000000000000000000000000000028152600401808573ffffffffffffffffffffffffffffffffffffffff1673ffffffffffffffffffffffffffffffffffffffff16815260200184815260200183815260200182151515158152602001945050505050602060405180830381600087803b1515612a9257600080fd5b6102c65a03f11515612aa357600080fd5b50505060405180519050905082828202811515612abc57fe5b0493505050509392505050565b6000600c60008373ffffffffffffffffffffffffffffffffffffffff1673ffffffffffffffffffffffffffffffffffffffff168152602001908152602001600020600301549050919050565b600660009054906101000a900473ffffffffffffffffffffffffffffffffffffffff1673ffffffffffffffffffffffffffffffffffffffff163373ffffffffffffffffffffffffffffffffffffffff16141515612b7157600080fd5b600081111515612b8057600080fd5b806009819055507f2c2c75d02a201fbf3127fb9b341df2d73db49e6b29860bd720fdec66f99e16fe816040518082815260200191505060405180910390a150565b600080600080600160008773ffffffffffffffffffffffffffffffffffffffff1673ffffffffffffffffffffffffffffffffffffffff1681526020019081526020016000209250600460009054906101000a900473ffffffffffffffffffffffffffffffffffffffff1673ffffffffffffffffffffffffffffffffffffffff1663693ec85e6000604051602001526040518163ffffffff167c010000000000000000000000000000000000000000000000000000000002815260040180806020018281038252600a8152602001807f6d696e4465706f73697400000000000000000000000000000000000000000000815250602001915050602060405180830381600087803b1515612cd257600080fd5b6102c65a03f11515612ce357600080fd5b505050604051805190509150612cf886611fcf565b80612d1157508260010160009054906101000a900460ff165b1515612d1c57600080fd5b600083600301541480612d5257506000808460030154815260200190815260200160002060010160149054906101000a900460ff165b1515612d5d57600080fd5b8183600201541015612d7b57612d728661427f565b6000935061353c565b600260009054906101000a900473ffffffffffffffffffffffffffffffffffffffff1673ffffffffffffffffffffffffffffffffffffffff166323b872dd3330856000604051602001526040518463ffffffff167c0100000000000000000000000000000000000000000000000000000000028152600401808473ffffffffffffffffffffffffffffffffffffffff1673ffffffffffffffffffffffffffffffffffffffff1681526020018373ffffffffffffffffffffffffffffffffffffffff1673ffffffffffffffffffffffffffffffffffffffff1681526020018281526020019350505050602060405180830381600087803b1515612e7c57600080fd5b6102c65a03f11515612e8d57600080fd5b505050604051805190501515612ea257600080fd5b600360009054906101000a900473ffffffffffffffffffffffffffffffffffffffff1673ffffffffffffffffffffffffffffffffffffffff166332ed3d60600460009054906101000a900473ffffffffffffffffffffffffffffffffffffffff1673ffffffffffffffffffffffffffffffffffffffff1663693ec85e6000604051602001526040518163ffffffff167c010000000000000000000000000000000000000000000000000000000002815260040180806020018281038252600a8152602001807f766f746551756f72756d00000000000000000000000000000000000000000000815250602001915050602060405180830381600087803b1515612faa57600080fd5b6102c65a03f11515612fbb57600080fd5b50505060405180519050600460009054906101000a900473ffffffffffffffffffffffffffffffffffffffff1673ffffffffffffffffffffffffffffffffffffffff1663693ec85e6000604051602001526040518163ffffffff167c010000000000000000000000000000000000000000000000000000000002815260040180806020018281038252600e8152602001807f636f6d6d697453746167654c656e000000000000000000000000000000000000815250602001915050602060405180830381600087803b151561308f57600080fd5b6102c65a03f115156130a057600080fd5b50505060405180519050600460009054906101000a900473ffffffffffffffffffffffffffffffffffffffff1673ffffffffffffffffffffffffffffffffffffffff1663693ec85e6000604051602001526040518163ffffffff167c010000000000000000000000000000000000000000000000000000000002815260040180806020018281038252600e8152602001807f72657665616c53746167654c656e000000000000000000000000000000000000815250602001915050602060405180830381600087803b151561317457600080fd5b6102c65a03f1151561318557600080fd5b505050604051805190506000604051602001526040518463ffffffff167c0100000000000000000000000000000000000000000000000000000000028152600401808481526020018381526020018281526020019350505050602060405180830381600087803b15156131f757600080fd5b6102c65a03f1151561320857600080fd5b50505060405180519050905060a060405190810160405280606484600460009054906101000a900473ffffffffffffffffffffffffffffffffffffffff1673ffffffffffffffffffffffffffffffffffffffff1663693ec85e6000604051602001526040518163ffffffff167c010000000000000000000000000000000000000000000000000000000002815260040180806020018281038252600f8152602001807f64697370656e736174696f6e5063740000000000000000000000000000000000815250602001915050602060405180830381600087803b15156132ed57600080fd5b6102c65a03f115156132fe57600080fd5b505050604051805190506064030281151561331557fe5b0481526020013373ffffffffffffffffffffffffffffffffffffffff16815260200160001515815260200183815260200160008152506000808381526020019081526020016000206000820151816000015560208201518160010160006101000a81548173ffffffffffffffffffffffffffffffffffffffff021916908373ffffffffffffffffffffffffffffffffffffffff16021790555060408201518160010160146101000a81548160ff021916908315150217905550606082015181600201556080820151816003015590505080600160008873ffffffffffffffffffffffffffffffffffffffff1673ffffffffffffffffffffffffffffffffffffffff1681526020019081526020016000206003018190555081600160008873ffffffffffffffffffffffffffffffffffffffff1673ffffffffffffffffffffffffffffffffffffffff16815260200190815260200160002060020160008282540392505081905550808673ffffffffffffffffffffffffffffffffffffffff167fba4fed76bf6f631503eec96cf182e07300945e578c5abd54d73d9794448de9a484886040518083815260200180602001828103825283818151815260200191508051906020019080838360005b838110156134fd5780820151818401526020810190506134e2565b50505050905090810190601f16801561352a5780820380516001836020036101000a031916815260200191505b50935050505060405180910390a38093505b50505092915050565b6000600c60008373ffffffffffffffffffffffffffffffffffffffff1673ffffffffffffffffffffffffffffffffffffffff16815260200190815260200160002060010160009054906101000a900460ff169050919050565b600080600083815260200190815260200160002060010160149054906101000a900460ff161580156136805750600360009054906101000a900473ffffffffffffffffffffffffffffffffffffffff1673ffffffffffffffffffffffffffffffffffffffff1663ee684830836000604051602001526040518263ffffffff167c010000000000000000000000000000000000000000000000000000000002815260040180828152602001915050602060405180830381600087803b151561366457600080fd5b6102c65a03f1151561367557600080fd5b505050604051805190505b151561368b57600080fd5b6000600360009054906101000a900473ffffffffffffffffffffffffffffffffffffffff1673ffffffffffffffffffffffffffffffffffffffff1663053e71a6846000604051602001526040518263ffffffff167c010000000000000000000000000000000000000000000000000000000002815260040180828152602001915050602060405180830381600087803b151561372657600080fd5b6102c65a03f1151561373757600080fd5b5050506040518051905014156137675760008083815260200190815260200160002060020154600202905061379a565b60008083815260200190815260200160002060000154600080848152602001908152602001600020600201546002020390505b919050565b6000600760009054906101000a900473ffffffffffffffffffffffffffffffffffffffff1673ffffffffffffffffffffffffffffffffffffffff163373ffffffffffffffffffffffffffffffffffffffff161415156137fd57600080fd5b600b5490506000600b81905550600260009054906101000a900473ffffffffffffffffffffffffffffffffffffffff1673ffffffffffffffffffffffffffffffffffffffff1663a9059cbb33836000604051602001526040518363ffffffff167c0100000000000000000000000000000000000000000000000000000000028152600401808373ffffffffffffffffffffffffffffffffffffffff1673ffffffffffffffffffffffffffffffffffffffff16815260200182815260200192505050602060405180830381600087803b15156138d757600080fd5b6102c65a03f115156138e857600080fd5b5050506040518051905015156138fd57600080fd5b50565b600660009054906101000a900473ffffffffffffffffffffffffffffffffffffffff1681565b600080600160008473ffffffffffffffffffffffffffffffffffffffff1673ffffffffffffffffffffffffffffffffffffffff16815260200190815260200160002060030154905061397783611fcf565b80156139c4575042600160008573ffffffffffffffffffffffffffffffffffffffff1673ffffffffffffffffffffffffffffffffffffffff16815260200190815260200160002060000154105b80156139d657506139d483612898565b155b8015613a1357506000811480613a1257506001151560008083815260200190815260200160002060010160149054906101000a900460ff161515145b5b15613a215760019150613a26565b600091505b50919050565b600460009054906101000a900473ffffffffffffffffffffffffffffffffffffffff1681565b600660009054906101000a900473ffffffffffffffffffffffffffffffffffffffff1673ffffffffffffffffffffffffffffffffffffffff163373ffffffffffffffffffffffffffffffffffffffff16141515613aae57600080fd5b80600760006101000a81548173ffffffffffffffffffffffffffffffffffffffff021916908373ffffffffffffffffffffffffffffffffffffffff1602179055507fbf9a9534339a9d6b81696e05dcfb614b7dc518a31d48be3cfb757988381fb32381604051808273ffffffffffffffffffffffffffffffffffffffff1673ffffffffffffffffffffffffffffffffffffffff16815260200191505060405180910390a150565b6000600160008473ffffffffffffffffffffffffffffffffffffffff1673ffffffffffffffffffffffffffffffffffffffff16815260200190815260200160002090503373ffffffffffffffffffffffffffffffffffffffff168160010160019054906101000a900473ffffffffffffffffffffffffffffffffffffffff1673ffffffffffffffffffffffffffffffffffffffff16141515613bf657600080fd5b80600201548211151515613c0957600080fd5b600460009054906101000a900473ffffffffffffffffffffffffffffffffffffffff1673ffffffffffffffffffffffffffffffffffffffff1663693ec85e6000604051602001526040518163ffffffff167c010000000000000000000000000000000000000000000000000000000002815260040180806020018281038252600a8152602001807f6d696e4465706f73697400000000000000000000000000000000000000000000815250602001915050602060405180830381600087803b1515613cd357600080fd5b6102c65a03f11515613ce457600080fd5b505050604051805190508282600201540310151515613d0257600080fd5b600260009054906101000a900473ffffffffffffffffffffffffffffffffffffffff1673ffffffffffffffffffffffffffffffffffffffff1663a9059cbb33846000604051602001526040518363ffffffff167c0100000000000000000000000000000000000000000000000000000000028152600401808373ffffffffffffffffffffffffffffffffffffffff1673ffffffffffffffffffffffffffffffffffffffff16815260200182815260200192505050602060405180830381600087803b1515613dcf57600080fd5b6102c65a03f11515613de057600080fd5b505050604051805190501515613df557600080fd5b8181600201600082825403925050819055508273ffffffffffffffffffffffffffffffffffffffff167fdf273cb619d95419a9cd0ec88123a0538c85064229baa6363788f743fff90deb838360020154604051808381526020018281526020019250505060405180910390a2505050565b6000600160008373ffffffffffffffffffffffffffffffffffffffff1673ffffffffffffffffffffffffffffffffffffffff168152602001908152602001600020600301549050919050565b600b5481565b600260009054906101000a900473ffffffffffffffffffffffffffffffffffffffff1681565b600360009054906101000a900473ffffffffffffffffffffffffffffffffffffffff1681565b60018060008373ffffffffffffffffffffffffffffffffffffffff1673ffffffffffffffffffffffffffffffffffffffff16815260200190815260200160002060010160006101000a81548160ff02191690831515021790555050565b600080600160008473ffffffffffffffffffffffffffffffffffffffff1673ffffffffffffffffffffffffffffffffffffffff168152602001908152602001600020600301549150600360009054906101000a900473ffffffffffffffffffffffffffffffffffffffff1673ffffffffffffffffffffffffffffffffffffffff166349403183836000604051602001526040518263ffffffff167c010000000000000000000000000000000000000000000000000000000002815260040180828152602001915050602060405180830381600087803b151561404257600080fd5b6102c65a03f1151561405357600080fd5b50505060405180519050156140705761406b83614484565b6140d2565b600c60008473ffffffffffffffffffffffffffffffffffffffff1673ffffffffffffffffffffffffffffffffffffffff1681526020019081526020016000209050600081600001541415156140c457600080fd5b600954420181600001819055505b505050565b6000600c60008373ffffffffffffffffffffffffffffffffffffffff1673ffffffffffffffffffffffffffffffffffffffff168152602001908152602001600020905060008160000154141580156141325750806000015442115b151561413d57600080fd5b8060010160009054906101000a900460ff16156141675742816003015410151561416657600080fd5b5b8060010160009054906101000a900460ff16151561418d5761418882614484565b6141d1565b8060040160009054906101000a900460ff16156141b2576141ad82614993565b6141d0565b6141bb82614484565b8060020154600b600082825401925050819055505b5b600c60008373ffffffffffffffffffffffffffffffffffffffff1673ffffffffffffffffffffffffffffffffffffffff1681526020019081526020016000206000808201600090556001820160006101000a81549060ff0219169055600282016000905560038201600090556004820160006101000a81549060ff021916905550505050565b826000813b905060008111151561426d57600080fd5b614278858585614c0d565b5050505050565b6000600160008373ffffffffffffffffffffffffffffffffffffffff1673ffffffffffffffffffffffffffffffffffffffff16815260200190815260200160002090506000816002015411156143eb57600260009054906101000a900473ffffffffffffffffffffffffffffffffffffffff1673ffffffffffffffffffffffffffffffffffffffff1663a9059cbb8260010160019054906101000a900473ffffffffffffffffffffffffffffffffffffffff1683600201546000604051602001526040518363ffffffff167c0100000000000000000000000000000000000000000000000000000000028152600401808373ffffffffffffffffffffffffffffffffffffffff1673ffffffffffffffffffffffffffffffffffffffff16815260200182815260200192505050602060405180830381600087803b15156143c457600080fd5b6102c65a03f115156143d557600080fd5b5050506040518051905015156143ea57600080fd5b5b600160008373ffffffffffffffffffffffffffffffffffffffff1673ffffffffffffffffffffffffffffffffffffffff1681526020019081526020016000206000808201600090556001820160006101000a81549060ff02191690556001820160016101000a81549073ffffffffffffffffffffffffffffffffffffffff02191690556002820160009055600382016000905550505050565b6000806000600160008573ffffffffffffffffffffffffffffffffffffffff1673ffffffffffffffffffffffffffffffffffffffff1681526020019081526020016000206003015492506144d78361359e565b91506144e284612898565b9050600360009054906101000a900473ffffffffffffffffffffffffffffffffffffffff1673ffffffffffffffffffffffffffffffffffffffff166349403183846000604051602001526040518263ffffffff167c010000000000000000000000000000000000000000000000000000000002815260040180828152602001915050602060405180830381600087803b151561457d57600080fd5b6102c65a03f1151561458e57600080fd5b505050604051805190501561468a576145a684613f04565b81600160008673ffffffffffffffffffffffffffffffffffffffff1673ffffffffffffffffffffffffffffffffffffffff16815260200190815260200160002060020160008282540192505081905550828473ffffffffffffffffffffffffffffffffffffffff167fe5eb7319dd3f024d9f26b0714c4966136f6b7307d3345019df767d4cba3c74a660405160405180910390a3801515614685578373ffffffffffffffffffffffffffffffffffffffff167f0be47533fe1d2625f0c1e32e07a77950b8d95efd37b95b8cac0f19a6124d520460405160405180910390a25b614892565b6146938461427f565b600260009054906101000a900473ffffffffffffffffffffffffffffffffffffffff1673ffffffffffffffffffffffffffffffffffffffff1663a9059cbb60008086815260200190815260200160002060010160009054906101000a900473ffffffffffffffffffffffffffffffffffffffff16846000604051602001526040518363ffffffff167c0100000000000000000000000000000000000000000000000000000000028152600401808373ffffffffffffffffffffffffffffffffffffffff1673ffffffffffffffffffffffffffffffffffffffff16815260200182815260200192505050602060405180830381600087803b151561479557600080fd5b6102c65a03f115156147a657600080fd5b5050506040518051905015156147bb57600080fd5b828473ffffffffffffffffffffffffffffffffffffffff167f5605aad1542ddbc8658ce502e0fe64c9566401dcb3041f6a9844a9d82195a27360405160405180910390a3801561484d578373ffffffffffffffffffffffffffffffffffffffff167feaff2f39998930238b3508c586198a5a51a4d53ea343ce57bbd1556c03256e9160405160405180910390a2614891565b8373ffffffffffffffffffffffffffffffffffffffff167f405517e310c96c410ba1acddffb912c6acc98afceb6449c0b8cef3459fb5de1060405160405180910390a25b5b600160008085815260200190815260200160002060010160146101000a81548160ff021916908315150217905550600360009054906101000a900473ffffffffffffffffffffffffffffffffffffffff1673ffffffffffffffffffffffffffffffffffffffff1663053e71a6846000604051602001526040518263ffffffff167c010000000000000000000000000000000000000000000000000000000002815260040180828152602001915050602060405180830381600087803b151561495957600080fd5b6102c65a03f1151561496a57600080fd5b505050604051805190506000808581526020019081526020016000206003018190555050505050565b600080600080600c60008673ffffffffffffffffffffffffffffffffffffffff1673ffffffffffffffffffffffffffffffffffffffff1681526020019081526020016000209350600160008673ffffffffffffffffffffffffffffffffffffffff1673ffffffffffffffffffffffffffffffffffffffff1681526020019081526020016000206003015492508360020154614a2d8461359e565b019150614a3985612898565b9050614a4485613f04565b81600160008773ffffffffffffffffffffffffffffffffffffffff1673ffffffffffffffffffffffffffffffffffffffff16815260200190815260200160002060020160008282540192505081905550600160008085815260200190815260200160002060010160146101000a81548160ff021916908315150217905550600360009054906101000a900473ffffffffffffffffffffffffffffffffffffffff1673ffffffffffffffffffffffffffffffffffffffff1663e8cfa3f0846000604051602001526040518263ffffffff167c010000000000000000000000000000000000000000000000000000000002815260040180828152602001915050602060405180830381600087803b1515614b5b57600080fd5b6102c65a03f11515614b6c57600080fd5b50505060405180519050600080858152602001908152602001600020600301819055506001600d600085815260200190815260200160002060006101000a81548160ff021916908315150217905550801515614c06578473ffffffffffffffffffffffffffffffffffffffff167f0be47533fe1d2625f0c1e32e07a77950b8d95efd37b95b8cac0f19a6124d520460405160405180910390a25b5050505050565b6000614c1884612898565b151515614c2457600080fd5b614c2d84611fcf565b151515614c3957600080fd5b600460009054906101000a900473ffffffffffffffffffffffffffffffffffffffff1673ffffffffffffffffffffffffffffffffffffffff1663693ec85e6000604051602001526040518163ffffffff167c010000000000000000000000000000000000000000000000000000000002815260040180806020018281038252600a8152602001807f6d696e4465706f73697400000000000000000000000000000000000000000000815250602001915050602060405180830381600087803b1515614d0357600080fd5b6102c65a03f11515614d1457600080fd5b505050604051805190508310151515614d2c57600080fd5b42600460009054906101000a900473ffffffffffffffffffffffffffffffffffffffff1673ffffffffffffffffffffffffffffffffffffffff1663693ec85e6000604051602001526040518163ffffffff167c010000000000000000000000000000000000000000000000000000000002815260040180806020018281038252600d8152602001807f6170706c7953746167654c656e00000000000000000000000000000000000000815250602001915050602060405180830381600087803b1515614df757600080fd5b6102c65a03f11515614e0857600080fd5b505050604051805190504201111515614e2057600080fd5b600160008573ffffffffffffffffffffffffffffffffffffffff1673ffffffffffffffffffffffffffffffffffffffff1681526020019081526020016000209050338160010160016101000a81548173ffffffffffffffffffffffffffffffffffffffff021916908373ffffffffffffffffffffffffffffffffffffffff160217905550600260009054906101000a900473ffffffffffffffffffffffffffffffffffffffff1673ffffffffffffffffffffffffffffffffffffffff166323b872dd3330866000604051602001526040518463ffffffff167c0100000000000000000000000000000000000000000000000000000000028152600401808473ffffffffffffffffffffffffffffffffffffffff1673ffffffffffffffffffffffffffffffffffffffff1681526020018373ffffffffffffffffffffffffffffffffffffffff1673ffffffffffffffffffffffffffffffffffffffff1681526020018281526020019350505050602060405180830381600087803b1515614fa557600080fd5b6102c65a03f11515614fb657600080fd5b505050604051805190501515614fcb57600080fd5b600460009054906101000a900473ffffffffffffffffffffffffffffffffffffffff1673ffffffffffffffffffffffffffffffffffffffff1663693ec85e6000604051602001526040518163ffffffff167c010000000000000000000000000000000000000000000000000000000002815260040180806020018281038252600d8152602001807f6170706c7953746167654c656e00000000000000000000000000000000000000815250602001915050602060405180830381600087803b151561509557600080fd5b6102c65a03f115156150a657600080fd5b50505060405180519050420181600001819055508281600201819055508373ffffffffffffffffffffffffffffffffffffffff167f4620cb889f28e046fa2dc2a5a1f58d13dd1d89e30b4edbea3c66a6285719b94984846040518083815260200180602001828103825283818151815260200191508051906020019080838360005b83811015615143578082015181840152602081019050615128565b50505050905090810190601f1680156151705780820380516001836020036101000a031916815260200191505b50935050505060405180910390a2505050505600a165627a7a7230582015f7fb2eb983905353271a673772955ef927105a88ae92a6c74c4d12bf89fcfc0029",
  "source": "pragma solidity 0.4.19;\n\nimport \"./RestrictedAddressRegistry.sol\";\n\n/**\n@title  TCR with appeallate functionality and restrictions on application \n@author Nick Reynolds - nick@joincivil.com\n@notice The RestrictedAddressTCRWithAppeals is a TCR with restrictions (contracts must have IACL\n        implementation, and only the ACL superuser of a contract can apply on behalf of that contract)\n        and an appeallate entity that can overturn successful challenges (challenges that would prevent \n        the listing from being whitelisted)\n        \"Listing\" refers to the data associated with an address at any stage of the lifecycle (e.g.\n        \"Listing in Application\", \"Listing in Challenge\", \"Listing on Whitelist\", \"Denied Listing\", etc).\n*/\ncontract OwnedAddressTCRWithAppeals is RestrictedAddressRegistry {\n\n  event AppealRequested(address indexed requester, address indexed listing);\n  event AppealGranted(address indexed listing);\n  event JECWhitelistedListing(address indexed listing);\n  event AppealFeeSet(uint fee);\n  event MakeAppealLengthSet(uint length);\n  event AppealLengthSet(uint length);\n  event FeeRecipientSet(address recipient);\n\n  modifier onlyAppellate {\n    require(msg.sender == appellate);\n    _;\n  }\n\n  modifier onlyFeeRecipient {\n    require(msg.sender == feeRecipient);\n    _;\n  }\n\n  address public appellate;\n  address public feeRecipient;\n  uint public appealFee;\n  uint public requestAppealPhaseLength = 259200; // 3 days expressed in seconds\n  uint public judgeAppealPhaseLength = 1209600; // 14 days expressed in seconds\n\n  uint public deniedAppealFees;\n\n  /*\n  @notice this struct handles the state of an appeal. It is first initialized \n          when updateStatus is called after a successful challenge.\n  */\n  struct Appeal {\n    uint requestAppealPhaseExpiry;\n    bool appealRequested;\n    uint appealFeePaid;\n    uint appealPhaseExpiry;\n    bool appealGranted;\n  }\n\n  mapping(address => Appeal) internal appeals;\n  mapping(uint => bool) public challengesOverturned;\n\n  /**\n  @dev Contructor           Sets the addresses for token, voting, parameterizer, appellate, and fee recipient\n  @param tokenAddr          Address of the TCR's intrinsic ERC20 token\n  @param plcrAddr           Address of a PLCR voting contract for the provided token\n  @param paramsAddr         Address of a Parameterizer contract \n  @param appellateAddr      Address of appellate entity, which could be a regular user, although multisig is recommended\n  @param feeRecipientAddr   Address of entity that collects fees from denied appeals\n  */\n  function OwnedAddressTCRWithAppeals(\n    address tokenAddr,\n    address plcrAddr,\n    address paramsAddr,\n    address appellateAddr,\n    address feeRecipientAddr)\n    public RestrictedAddressRegistry(tokenAddr, plcrAddr, paramsAddr)\n  {\n    appellate = appellateAddr;\n    feeRecipient = feeRecipientAddr;\n  }\n\n  // --------------------\n  // LISTING OWNER INTERFACE:\n  // --------------------\n\n  /**\n  @notice Requests an appeal for a listing that has been successfully challenged (and had state updated)\n          Must be initialized and within correct application period \n          (0 < appeal.requestAppealPhaseExpiry < now) \n          and not already requested\n  @param listingAddress address of listing that has been successfully challenged. Caller must be owner of listing.\n  */\n  function requestAppeal(address listingAddress) external {\n    Listing storage listing = listings[listingAddress];\n    Appeal storage appeal = appeals[listingAddress];\n    require(listing.owner == msg.sender);\n    require(appeal.requestAppealPhaseExpiry > now); // \"Request Appeal Phase\" active\n    require(!appeal.appealRequested);\n    require(token.transferFrom(msg.sender, this, appealFee));\n\n    appeal.appealRequested = true;\n    appeal.appealFeePaid = appealFee;\n    appeal.appealPhaseExpiry = now + judgeAppealPhaseLength;\n    AppealRequested(msg.sender, listingAddress);\n  }\n\n  // --------\n  // APPELLATE INTERFACE:\n  // --------\n\n  /**\n  @notice Grants a requested appeal, if the appeal has not expired (or already been granted)\n  @param listingAddress The address of the listing associated with the appeal\n  */\n  function grantAppeal(address listingAddress) external onlyAppellate {\n    Appeal storage appeal = appeals[listingAddress];\n    require(appeal.appealPhaseExpiry > now); // \"Judge Appeal Phase\" active\n    require(!appeal.appealGranted); // don't grant twice\n\n    appeal.appealGranted = true;    \n    AppealGranted(listingAddress);\n  }\n\n  function whitelistAddress(address listingAddress, uint depositAmount) external onlyAppellate {\n    require(!getListingIsWhitelisted(listingAddress));\n    require(!appWasMade(listingAddress));\n    require(depositAmount >= parameterizer.get(\"minDeposit\"));\n    Ownable ownedContract = Ownable(listingAddress);\n    require(ownedContract.owner() != address(0)); // must have an owner\n    require(token.transferFrom(msg.sender, this, depositAmount));\n\n    Listing storage listing = listings[listingAddress];\n    listing.applicationExpiry = now;\n    listing.owner = ownedContract.owner();\n    listing.isWhitelisted = true;\n    listing.unstakedDeposit = depositAmount;\n\n    JECWhitelistedListing(listingAddress);\n  }\n\n  /**\n  @notice Set new value for appeal fee\n          Can only be called by Appellate, since only they can decide what fee they require\n  @param fee The new value for the appeal fee\n  */\n  function setAppealFee(uint fee) external onlyAppellate {\n    require(fee > 0); // safety check\n    appealFee = fee;\n    AppealFeeSet(fee);\n  }\n\n  /**\n  @notice Set new value for the length of \"Request Appeal Phase\"\n          Can only be called by Appellate, allowing this to be controlled \n          by community adds complexity and seems unnecessary\n  @param length The new value for the \"Request Appeal Phase\" length\n  */\n  function setMakeAppealLength(uint length) external onlyAppellate {\n    require(length > 0); // safety check\n    requestAppealPhaseLength = length;\n    MakeAppealLengthSet(length);\n  }\n\n  /**\n  @notice Set new value for the length of \"Judge Appeal Phase\"\n          Can only be called by Appellate, since only they can decide how long they need to process appeals\n  @param length The new value for the \"Judge Appeal Phase\" length\n  */\n  function setAppealLength(uint length) external onlyAppellate {\n    require(length > 0); // safety check\n    judgeAppealPhaseLength = length;\n    AppealLengthSet(length);\n  }\n\n  /**\n  @notice Set new value for the Fee Recipient\n          Can only be called by Appellate\n  @param recipient The new value for the Fee Recipient\n  */\n  function setFeeRecipient(address recipient) external onlyAppellate {\n    feeRecipient = recipient;\n    FeeRecipientSet(recipient);\n  }\n\n  // --------\n  // FEE RECIPIENT INTERFACE\n  // --------\n\n  /**\n  @notice Transfers deniedAppealFees to fee recipient. Can only be called by recipient.\n  */\n  function withdrawDeniedAppealsFees() external onlyFeeRecipient {\n    uint feesToSend = deniedAppealFees;\n    deniedAppealFees = 0;\n    require(token.transfer(msg.sender, feesToSend));\n  }\n\n  // --------\n  // ANY USER INTERFACE\n  // ANYONE CAN CALL THESE FUNCTIONS FOR A LISTING\n  // --------\n\n/**\n  @dev                Updates a listing's status from 'application' to 'listing' or resolves\n                      a challenge or appeal if one exists.\n  @param listingAddress The listingAddress whose status is being updated\n  */\n  function updateStatus(address listingAddress) public {\n    Appeal storage appeal = appeals[listingAddress];\n    Listing storage listing = listings[listingAddress];\n    if (canBeWhitelisted(listingAddress)) {\n      whitelistApplication(listingAddress);\n      NewListingWhitelisted(listingAddress);\n    } else if (challengeCanBeResolved(listingAddress) && \n      (voting.isPassed(listing.challengeID) || appeal.requestAppealPhaseExpiry == 0)) {\n      resolveChallenge(listingAddress);\n    } else {\n      resolvePostAppealPhase(listingAddress);\n    }\n  }\n\n  /** \n  @notice Update state of listing after \"Judge Appeal Phase\" has ended. Reverts if cannot be processed yet.\n  @param listingAddress Address of listing associated with appeal\n  */\n  function resolvePostAppealPhase(address listingAddress) internal {\n    Appeal storage appeal = appeals[listingAddress];\n\n    // must be initialized and after \"Request Appeal Phase\"\n    require(appeal.requestAppealPhaseExpiry != 0 && now > appeal.requestAppealPhaseExpiry); \n    if (appeal.appealRequested) {\n      require(appeal.appealPhaseExpiry < now);\n    }\n\n    if (!appeal.appealRequested) { // waiting period over, appeal never requested\n      super.resolveChallenge(listingAddress);\n    } else if (appeal.appealGranted) {\n      // appeal granted. override decision of voters.\n      resolveOverturnedChallenge(listingAddress);\n    } else {\n      super.resolveChallenge(listingAddress);\n      deniedAppealFees += appeal.appealFeePaid;\n    }\n    delete appeals[listingAddress];\n  }\n\n  // --------------------\n  // TOKEN OWNER INTERFACE:\n  // --------------------\n\n  /**\n  @dev                Called by a voter to claim their reward for each completed vote. Someone\n                      must call updateStatus() before this can be called.\n  @param challengeID The PLCR pollID of the challenge a reward is being claimed for\n  @param salt        The salt of a voter's commit hash in the given poll\n  */\n  function claimReward(uint challengeID, uint salt) public {\n    // Ensures the voter has not already claimed tokens and challenge results have been processed\n    require(challenges[challengeID].tokenClaims[msg.sender] == false);\n    require(challenges[challengeID].resolved == true);\n\n    uint voterTokens = voting.getNumPassingTokens(msg.sender, challengeID, salt, challengesOverturned[challengeID]);\n    uint reward = voterReward(msg.sender, challengeID, salt);\n\n    // Subtracts the voter's information to preserve the participation ratios\n    // of other voters compared to the remaining pool of rewards\n    challenges[challengeID].totalTokens -= voterTokens;\n    challenges[challengeID].rewardPool -= reward;\n\n    require(token.transfer(msg.sender, reward));\n\n    // Ensures a voter cannot claim tokens again\n    challenges[challengeID].tokenClaims[msg.sender] = true;\n\n    RewardClaimed(msg.sender, challengeID, reward);\n  }\n\n  /**\n  @dev                Calculates the provided voter's token reward for the given poll.\n  @param voter       The address of the voter whose reward balance is to be returned\n  @param challengeID The pollID of the challenge a reward balance is being queried for\n  @param salt        The salt of the voter's commit hash in the given poll\n  @return             The uint indicating the voter's reward\n  */\n  function voterReward(\n    address voter,\n    uint challengeID,\n    uint salt)\n    public view returns (uint)\n  {\n    uint totalTokens = challenges[challengeID].totalTokens;\n    uint rewardPool = challenges[challengeID].rewardPool;\n    uint voterTokens = voting.getNumPassingTokens(voter, challengeID, salt, challengesOverturned[challengeID]);\n    return (voterTokens * rewardPool) / totalTokens;\n  }\n\n  // --------\n  // BASIC APPEAL GETTERS\n  // --------\n\n  function getRequestAppealPhaseExpiry(address listingAddress) public view returns (uint) {\n    return appeals[listingAddress].requestAppealPhaseExpiry;\n  }\n\n  function getAppealRequested(address listingAddress) public view returns (bool) {\n    return appeals[listingAddress].appealRequested;\n  }\n\n  function getAppealFeePaid(address listingAddress) public view returns (uint) {\n    return appeals[listingAddress].appealFeePaid;\n  }\n\n  function getAppealPhaseExpiry(address listingAddress) public view returns (uint) {\n    return appeals[listingAddress].appealPhaseExpiry;\n  }\n\n  function getAppealGranted(address listingAddress) public view returns (bool) {\n    return appeals[listingAddress].appealGranted;\n  }\n\n  /**\n  @notice Overrides `resolveChallenge` from `AddressRegistry` to begin \"Request Appeal Phase\" if\n          challenge was successful. \n  */\n  function resolveChallenge(address listingAddress) internal {\n    uint challengeID = listings[listingAddress].challengeID;\n    if (voting.isPassed(challengeID)) { // Case: challenge failed\n      super.resolveChallenge(listingAddress);\n    } else { // Case: challenge succeeded, enter appeals phase\n      Appeal storage appeal = appeals[listingAddress];\n      require(appeal.requestAppealPhaseExpiry == 0); // only begin request phase if appeal uninitialized\n      appeal.requestAppealPhaseExpiry = now + requestAppealPhaseLength;      \n    }\n  }\n\n  /**\n  @notice Updates the state of a listing to \"whitelisted\", and pay out \n          reward (including appeal fee) to applicant\n  @param listingAddress Address of listing with a challenge that is to be resolved\n  */\n  function resolveOverturnedChallenge(address listingAddress) private {\n    Appeal storage appeal = appeals[listingAddress];\n    uint challengeID = listings[listingAddress].challengeID;\n\n    // Calculates the winner's reward,\n    // which is: (winner's full stake) + (dispensationPct * loser's stake) + (appeal fee paid)\n    uint reward = determineReward(challengeID) + appeal.appealFeePaid;\n\n    bool wasWhitelisted = getListingIsWhitelisted(listingAddress);\n    \n    whitelistApplication(listingAddress);\n\n    // Unlock stake so that it can be retrieved by the applicant\n    listings[listingAddress].unstakedDeposit += reward;\n\n    challenges[challengeID].resolved = true;\n\n    // Stores the total tokens used for voting by the losing side for reward purposes\n    challenges[challengeID].totalTokens = voting.getTotalNumberOfTokensForLosingOption(challengeID);\n    challengesOverturned[challengeID] = true;\n    if (!wasWhitelisted) { \n      NewListingWhitelisted(listingAddress); \n    }  \n  }\n}\n",
  "sourcePath": "/Users/nickreynolds/Civil/Civil/packages/contracts/contracts/tcr/OwnedAddressTCRWithAppeals.sol",
  "compiler": {
    "name": "solc",
    "version": "0.4.19+commit.c4cbbb05.Emscripten.clang"
  },
  "schemaVersion": "1.0.1",
  "updatedAt": "2018-03-23T00:47:18.918Z"
}