{
  "contractName": "Parameterizer",
  "abi": [
    {
      "constant": true,
      "inputs": [
        {
          "name": "",
          "type": "bytes32"
        }
      ],
      "name": "params",
      "outputs": [
        {
          "name": "",
          "type": "uint256"
        }
      ],
      "payable": false,
      "stateMutability": "view",
      "type": "function"
    },
    {
      "constant": true,
      "inputs": [],
      "name": "token",
      "outputs": [
        {
          "name": "",
          "type": "address"
        }
      ],
      "payable": false,
      "stateMutability": "view",
      "type": "function"
    },
    {
      "constant": true,
      "inputs": [],
      "name": "voting",
      "outputs": [
        {
          "name": "",
          "type": "address"
        }
      ],
      "payable": false,
      "stateMutability": "view",
      "type": "function"
    },
    {
      "inputs": [
        {
          "name": "_tokenAddr",
          "type": "address"
        },
        {
          "name": "_plcrAddr",
          "type": "address"
        },
        {
          "name": "_uintParameters",
          "type": "uint256[16]"
        }
      ],
      "payable": false,
      "stateMutability": "nonpayable",
      "type": "constructor"
    },
    {
      "anonymous": false,
      "inputs": [
        {
          "indexed": true,
          "name": "proposer",
          "type": "address"
        },
        {
          "indexed": true,
          "name": "paramNameHash",
          "type": "bytes32"
        },
        {
          "indexed": false,
          "name": "name",
          "type": "string"
        },
        {
          "indexed": false,
          "name": "value",
          "type": "uint256"
        },
        {
          "indexed": false,
          "name": "propID",
          "type": "bytes32"
        }
      ],
      "name": "ReparameterizationProposal",
      "type": "event"
    },
    {
      "anonymous": false,
      "inputs": [
        {
          "indexed": true,
          "name": "challenger",
          "type": "address"
        },
        {
          "indexed": true,
          "name": "propID",
          "type": "bytes32"
        },
        {
          "indexed": false,
          "name": "pollID",
          "type": "uint256"
        },
        {
          "indexed": false,
          "name": "name",
          "type": "string"
        },
        {
          "indexed": false,
          "name": "value",
          "type": "uint256"
        }
      ],
      "name": "NewChallenge",
      "type": "event"
    },
    {
      "constant": false,
      "inputs": [
        {
          "name": "_name",
          "type": "string"
        },
        {
          "name": "_value",
          "type": "uint256"
        }
      ],
      "name": "proposeReparameterization",
      "outputs": [
        {
          "name": "",
          "type": "bytes32"
        }
      ],
      "payable": false,
      "stateMutability": "nonpayable",
      "type": "function"
    },
    {
      "constant": false,
      "inputs": [
        {
          "name": "_propID",
          "type": "bytes32"
        }
      ],
      "name": "challengeReparameterization",
      "outputs": [
        {
          "name": "challengeID",
          "type": "uint256"
        }
      ],
      "payable": false,
      "stateMutability": "nonpayable",
      "type": "function"
    },
    {
      "constant": false,
      "inputs": [
        {
          "name": "_propID",
          "type": "bytes32"
        }
      ],
      "name": "processProposal",
      "outputs": [],
      "payable": false,
      "stateMutability": "nonpayable",
      "type": "function"
    },
    {
      "constant": false,
      "inputs": [
        {
          "name": "_challengeID",
          "type": "uint256"
        },
        {
          "name": "_salt",
          "type": "uint256"
        }
      ],
      "name": "claimReward",
      "outputs": [],
      "payable": false,
      "stateMutability": "nonpayable",
      "type": "function"
    },
    {
      "constant": true,
      "inputs": [
        {
          "name": "_propID",
          "type": "bytes32"
        }
      ],
      "name": "getPropAppExpiry",
      "outputs": [
        {
          "name": "",
          "type": "uint256"
        }
      ],
      "payable": false,
      "stateMutability": "view",
      "type": "function"
    },
    {
      "constant": true,
      "inputs": [
        {
          "name": "_propID",
          "type": "bytes32"
        }
      ],
      "name": "getPropChallengeID",
      "outputs": [
        {
          "name": "",
          "type": "uint256"
        }
      ],
      "payable": false,
      "stateMutability": "view",
      "type": "function"
    },
    {
      "constant": true,
      "inputs": [
        {
          "name": "_propID",
          "type": "bytes32"
        }
      ],
      "name": "getPropDeposit",
      "outputs": [
        {
          "name": "",
          "type": "uint256"
        }
      ],
      "payable": false,
      "stateMutability": "view",
      "type": "function"
    },
    {
      "constant": true,
      "inputs": [
        {
          "name": "_propID",
          "type": "bytes32"
        }
      ],
      "name": "getPropName",
      "outputs": [
        {
          "name": "",
          "type": "string"
        }
      ],
      "payable": false,
      "stateMutability": "view",
      "type": "function"
    },
    {
      "constant": true,
      "inputs": [
        {
          "name": "_propID",
          "type": "bytes32"
        }
      ],
      "name": "getPropOwner",
      "outputs": [
        {
          "name": "",
          "type": "address"
        }
      ],
      "payable": false,
      "stateMutability": "view",
      "type": "function"
    },
    {
      "constant": true,
      "inputs": [
        {
          "name": "_propID",
          "type": "bytes32"
        }
      ],
      "name": "getPropProcessBy",
      "outputs": [
        {
          "name": "",
          "type": "uint256"
        }
      ],
      "payable": false,
      "stateMutability": "view",
      "type": "function"
    },
    {
      "constant": true,
      "inputs": [
        {
          "name": "_propID",
          "type": "bytes32"
        }
      ],
      "name": "getPropValue",
      "outputs": [
        {
          "name": "",
          "type": "uint256"
        }
      ],
      "payable": false,
      "stateMutability": "view",
      "type": "function"
    },
    {
      "constant": true,
      "inputs": [
        {
          "name": "_challengeID",
          "type": "uint256"
        }
      ],
      "name": "getChallengeRewardPool",
      "outputs": [
        {
          "name": "",
          "type": "uint256"
        }
      ],
      "payable": false,
      "stateMutability": "view",
      "type": "function"
    },
    {
      "constant": true,
      "inputs": [
        {
          "name": "_challengeID",
          "type": "uint256"
        }
      ],
      "name": "getChallengeChallenger",
      "outputs": [
        {
          "name": "",
          "type": "address"
        }
      ],
      "payable": false,
      "stateMutability": "view",
      "type": "function"
    },
    {
      "constant": true,
      "inputs": [
        {
          "name": "_challengeID",
          "type": "uint256"
        }
      ],
      "name": "getChallengeResolved",
      "outputs": [
        {
          "name": "",
          "type": "bool"
        }
      ],
      "payable": false,
      "stateMutability": "view",
      "type": "function"
    },
    {
      "constant": true,
      "inputs": [
        {
          "name": "_challengeID",
          "type": "uint256"
        }
      ],
      "name": "getChallengeStake",
      "outputs": [
        {
          "name": "",
          "type": "uint256"
        }
      ],
      "payable": false,
      "stateMutability": "view",
      "type": "function"
    },
    {
      "constant": true,
      "inputs": [
        {
          "name": "_challengeID",
          "type": "uint256"
        }
      ],
      "name": "getChallengeWinningTokens",
      "outputs": [
        {
          "name": "",
          "type": "uint256"
        }
      ],
      "payable": false,
      "stateMutability": "view",
      "type": "function"
    },
    {
      "constant": true,
      "inputs": [
        {
          "name": "_voter",
          "type": "address"
        },
        {
          "name": "_challengeID",
          "type": "uint256"
        },
        {
          "name": "_salt",
          "type": "uint256"
        }
      ],
      "name": "voterReward",
      "outputs": [
        {
          "name": "",
          "type": "uint256"
        }
      ],
      "payable": false,
      "stateMutability": "view",
      "type": "function"
    },
    {
      "constant": true,
      "inputs": [
        {
          "name": "_propID",
          "type": "bytes32"
        }
      ],
      "name": "canBeSet",
      "outputs": [
        {
          "name": "",
          "type": "bool"
        }
      ],
      "payable": false,
      "stateMutability": "view",
      "type": "function"
    },
    {
      "constant": true,
      "inputs": [
        {
          "name": "_propID",
          "type": "bytes32"
        }
      ],
      "name": "propExists",
      "outputs": [
        {
          "name": "",
          "type": "bool"
        }
      ],
      "payable": false,
      "stateMutability": "view",
      "type": "function"
    },
    {
      "constant": true,
      "inputs": [
        {
          "name": "_propID",
          "type": "bytes32"
        }
      ],
      "name": "challengeCanBeResolved",
      "outputs": [
        {
          "name": "",
          "type": "bool"
        }
      ],
      "payable": false,
      "stateMutability": "view",
      "type": "function"
    },
    {
      "constant": true,
      "inputs": [
        {
          "name": "_challengeID",
          "type": "uint256"
        }
      ],
      "name": "challengeWinnerReward",
      "outputs": [
        {
          "name": "",
          "type": "uint256"
        }
      ],
      "payable": false,
      "stateMutability": "view",
      "type": "function"
    },
    {
      "constant": true,
      "inputs": [
        {
          "name": "_name",
          "type": "string"
        }
      ],
      "name": "get",
      "outputs": [
        {
          "name": "value",
          "type": "uint256"
        }
      ],
      "payable": false,
      "stateMutability": "view",
      "type": "function"
    }
  ],
  "bytecode": "0x606060405234156200001057600080fd5b604051610240806200354a833981016040528080519060200190919080519060200190915082600360006101000a81548173ffffffffffffffffffffffffffffffffffffffff021916908373ffffffffffffffffffffffffffffffffffffffff16021790555081600460006101000a81548173ffffffffffffffffffffffffffffffffffffffff021916908373ffffffffffffffffffffffffffffffffffffffff160217905550620001206040805190810160405280600a81526020017f6d696e4465706f736974000000000000000000000000000000000000000000008152508260006010811015156200010157fe5b602002015162000750640100000000026200258c176401000000009004565b620001896040805190810160405280600b81526020017f704d696e4465706f7369740000000000000000000000000000000000000000008152508260016010811015156200016a57fe5b602002015162000750640100000000026200258c176401000000009004565b620001f26040805190810160405280600d81526020017f6170706c7953746167654c656e00000000000000000000000000000000000000815250826002601081101515620001d357fe5b602002015162000750640100000000026200258c176401000000009004565b6200025b6040805190810160405280600e81526020017f704170706c7953746167654c656e0000000000000000000000000000000000008152508260036010811015156200023c57fe5b602002015162000750640100000000026200258c176401000000009004565b620002c46040805190810160405280600e81526020017f636f6d6d697453746167654c656e000000000000000000000000000000000000815250826004601081101515620002a557fe5b602002015162000750640100000000026200258c176401000000009004565b6200032d6040805190810160405280600f81526020017f70436f6d6d697453746167654c656e00000000000000000000000000000000008152508260056010811015156200030e57fe5b602002015162000750640100000000026200258c176401000000009004565b620003966040805190810160405280600e81526020017f72657665616c53746167654c656e0000000000000000000000000000000000008152508260066010811015156200037757fe5b602002015162000750640100000000026200258c176401000000009004565b620003ff6040805190810160405280600f81526020017f7052657665616c53746167654c656e0000000000000000000000000000000000815250826007601081101515620003e057fe5b602002015162000750640100000000026200258c176401000000009004565b620004686040805190810160405280600f81526020017f64697370656e736174696f6e50637400000000000000000000000000000000008152508260086010811015156200044957fe5b602002015162000750640100000000026200258c176401000000009004565b620004d16040805190810160405280601081526020017f7044697370656e736174696f6e50637400000000000000000000000000000000815250826009601081101515620004b257fe5b602002015162000750640100000000026200258c176401000000009004565b6200053a6040805190810160405280600a81526020017f766f746551756f72756d0000000000000000000000000000000000000000000081525082600a6010811015156200051b57fe5b602002015162000750640100000000026200258c176401000000009004565b620005a36040805190810160405280600b81526020017f70566f746551756f72756d00000000000000000000000000000000000000000081525082600b6010811015156200058457fe5b602002015162000750640100000000026200258c176401000000009004565b6200060c6040805190810160405280600a81526020017f7050726f6365737342790000000000000000000000000000000000000000000081525082600c601081101515620005ed57fe5b602002015162000750640100000000026200258c176401000000009004565b620006756040805190810160405280601281526020017f6368616c6c656e676541707065616c4c656e000000000000000000000000000081525082600d6010811015156200065657fe5b602002015162000750640100000000026200258c176401000000009004565b620006de6040805190810160405280601881526020017f6368616c6c656e676541707065616c436f6d6d69744c656e000000000000000081525082600e601081101515620006bf57fe5b602002015162000750640100000000026200258c176401000000009004565b620007476040805190810160405280601881526020017f6368616c6c656e676541707065616c52657665616c4c656e000000000000000081525082600f6010811015156200072857fe5b602002015162000750640100000000026200258c176401000000009004565b505050620007d7565b80600080846040518082805190602001908083835b6020831015156200078c578051825260208201915060208101905060208303925062000765565b6001836020036101000a038019825116818451168082178552505050505050905001915050604051809103902060001916600019168152602001908152602001600020819055505050565b612d6380620007e76000396000f300606060405260043610610149576000357c0100000000000000000000000000000000000000000000000000000000900463ffffffff16806315586cf51461014e57806315c60112146101b1578063186953a61461021857806330490e911461024f57806335300990146102765780634780c3e0146102b557806350411552146103555780635dc4867f1461038c578063693ec85e146103c35780636b244bae14610434578063706f0cb91461046b57806372dbdfd1146104a657806377609a41146104e15780637917cd3e146105205780638240ae4b1461055b57806386bb8f3714610596578063a7aad3db146105c2578063bade1c5414610621578063c51131fb146106a3578063d549bb14146106e2578063dc6ab5271461071d578063f2fe973514610758578063f6ba6a2e14610793578063fc0c546a146107ce578063fce1ccca14610823575b600080fd5b341561015957600080fd5b61016f6004808035906020019091905050610878565b604051808273ffffffffffffffffffffffffffffffffffffffff1673ffffffffffffffffffffffffffffffffffffffff16815260200191505060405180910390f35b34156101bc57600080fd5b6101d66004808035600019169060200190919050506108b8565b604051808273ffffffffffffffffffffffffffffffffffffffff1673ffffffffffffffffffffffffffffffffffffffff16815260200191505060405180910390f35b341561022357600080fd5b6102396004808035906020019091905050610900565b6040518082815260200191505060405180910390f35b341561025a57600080fd5b610274600480803560001916906020019091905050610920565b005b341561028157600080fd5b61029b600480803560001916906020019091905050610bcc565b604051808215151515815260200191505060405180910390f35b34156102c057600080fd5b6102da600480803560001916906020019091905050610bf6565b6040518080602001828103825283818151815260200191508051906020019080838360005b8381101561031a5780820151818401526020810190506102ff565b50505050905090810190601f1680156103475780820380516001836020036101000a031916815260200191505b509250505060405180910390f35b341561036057600080fd5b6103766004808035906020019091905050610cbc565b6040518082815260200191505060405180910390f35b341561039757600080fd5b6103ad6004808035906020019091905050610dd4565b6040518082815260200191505060405180910390f35b34156103ce57600080fd5b61041e600480803590602001908201803590602001908080601f01602080910402602001604051908101604052809392919081815260200183838082843782019150505050505091905050610df4565b6040518082815260200191505060405180910390f35b341561043f57600080fd5b6104556004808035906020019091905050610e7a565b6040518082815260200191505060405180910390f35b341561047657600080fd5b61048c6004808035906020019091905050610e9a565b604051808215151515815260200191505060405180910390f35b34156104b157600080fd5b6104cb600480803560001916906020019091905050610ec7565b6040518082815260200191505060405180910390f35b34156104ec57600080fd5b610506600480803560001916906020019091905050610eef565b604051808215151515815260200191505060405180910390f35b341561052b57600080fd5b6105456004808035600019169060200190919050506111ed565b6040518082815260200191505060405180910390f35b341561056657600080fd5b610580600480803560001916906020019091905050611215565b6040518082815260200191505060405180910390f35b34156105a157600080fd5b6105c060048080359060200190919080359060200190919050506118f6565b005b34156105cd57600080fd5b61060b600480803573ffffffffffffffffffffffffffffffffffffffff16906020019091908035906020019091908035906020019091905050611c59565b6040518082815260200191505060405180910390f35b341561062c57600080fd5b610685600480803590602001908201803590602001908080601f01602080910402602001604051908101604052809392919081815260200183838082843782019150505050505091908035906020019091905050611da9565b60405180826000191660001916815260200191505060405180910390f35b34156106ae57600080fd5b6106c8600480803560001916906020019091905050612325565b604051808215151515815260200191505060405180910390f35b34156106ed57600080fd5b6107076004808035600019169060200190919050506124b0565b6040518082815260200191505060405180910390f35b341561072857600080fd5b6107426004808035600019169060200190919050506124d8565b6040518082815260200191505060405180910390f35b341561076357600080fd5b61077d6004808035600019169060200190919050506124f0565b6040518082815260200191505060405180910390f35b341561079e57600080fd5b6107b8600480803560001916906020019091905050612518565b6040518082815260200191505060405180910390f35b34156107d957600080fd5b6107e1612540565b604051808273ffffffffffffffffffffffffffffffffffffffff1673ffffffffffffffffffffffffffffffffffffffff16815260200191505060405180910390f35b341561082e57600080fd5b610836612566565b604051808273ffffffffffffffffffffffffffffffffffffffff1673ffffffffffffffffffffffffffffffffffffffff16815260200191505060405180910390f35b60006001600083815260200190815260200160002060010160009054906101000a900473ffffffffffffffffffffffffffffffffffffffff169050919050565b600060026000836000191660001916815260200190815260200160002060040160009054906101000a900473ffffffffffffffffffffffffffffffffffffffff169050919050565b600060016000838152602001908152602001600020600201549050919050565b6000600260008360001916600019168152602001908152602001600020905061094882612325565b156109fc576109f7816003018054600181600116156101000203166002900480601f0160208091040260200160405190810160405280929190818152602001828054600181600116156101000203166002900480156109e85780601f106109bd576101008083540402835291602001916109e8565b820191906000526020600020905b8154815290600101906020018083116109cb57829003601f168201915b5050505050826006015461258c565b610b4b565b610a0582610eef565b15610a1857610a1382612611565b610b4a565b8060050154421115610b4457600360009054906101000a900473ffffffffffffffffffffffffffffffffffffffff1673ffffffffffffffffffffffffffffffffffffffff1663a9059cbb8260040160009054906101000a900473ffffffffffffffffffffffffffffffffffffffff1683600201546000604051602001526040518363ffffffff167c0100000000000000000000000000000000000000000000000000000000028152600401808373ffffffffffffffffffffffffffffffffffffffff1673ffffffffffffffffffffffffffffffffffffffff16815260200182815260200192505050602060405180830381600087803b1515610b1957600080fd5b6102c65a03f11515610b2a57600080fd5b505050604051805190501515610b3f57600080fd5b610b49565b600080fd5b5b5b60026000836000191660001916815260200190815260200160002060008082016000905560018201600090556002820160009055600382016000610b8f9190612b80565b6004820160006101000a81549073ffffffffffffffffffffffffffffffffffffffff02191690556005820160009055600682016000905550505050565b60008060026000846000191660001916815260200190815260200160002060050154119050919050565b610bfe612bc8565b6002600083600019166000191681526020019081526020016000206003018054600181600116156101000203166002900480601f016020809104026020016040519081016040528092919081815260200182805460018160011615610100020316600290048015610cb05780601f10610c8557610100808354040283529160200191610cb0565b820191906000526020600020905b815481529060010190602001808311610c9357829003601f168201915b50505050509050919050565b600080600460009054906101000a900473ffffffffffffffffffffffffffffffffffffffff1673ffffffffffffffffffffffffffffffffffffffff1663053e71a6846000604051602001526040518263ffffffff167c010000000000000000000000000000000000000000000000000000000002815260040180828152602001915050602060405180830381600087803b1515610d5857600080fd5b6102c65a03f11515610d6957600080fd5b505050604051805190501415610d9a5760016000838152602001908152602001600020600201546002029050610dcf565b600160008381526020019081526020016000206000015460016000848152602001908152602001600020600201546002020390505b919050565b600060016000838152602001908152602001600020600301549050919050565b6000806000836040518082805190602001908083835b602083101515610e2f5780518252602082019150602081019050602083039250610e0a565b6001836020036101000a038019825116818451168082178552505050505050905001915050604051809103902060001916600019168152602001908152602001600020549050919050565b600060016000838152602001908152602001600020600001549050919050565b60006001600083815260200190815260200160002060010160149054906101000a900460ff169050919050565b6000600260008360001916600019168152602001908152602001600020600101549050919050565b6000610ef9612bdc565b610f01612c36565b60026000856000191660001916815260200190815260200160002060e06040519081016040529081600082015481526020016001820154815260200160028201548152602001600382018054600181600116156101000203166002900480601f016020809104026020016040519081016040528092919081815260200182805460018160011615610100020316600290048015610fdf5780601f10610fb457610100808354040283529160200191610fdf565b820191906000526020600020905b815481529060010190602001808311610fc257829003601f168201915b505050505081526020016004820160009054906101000a900473ffffffffffffffffffffffffffffffffffffffff1673ffffffffffffffffffffffffffffffffffffffff1673ffffffffffffffffffffffffffffffffffffffff168152602001600582015481526020016006820154815250509150600160008360200151815260200190815260200160002060a06040519081016040529081600082015481526020016001820160009054906101000a900473ffffffffffffffffffffffffffffffffffffffff1673ffffffffffffffffffffffffffffffffffffffff1673ffffffffffffffffffffffffffffffffffffffff1681526020016001820160149054906101000a900460ff161515151581526020016002820154815260200160038201548152505090506000826020015111801561112457506000151581604001511515145b80156111e45750600460009054906101000a900473ffffffffffffffffffffffffffffffffffffffff1673ffffffffffffffffffffffffffffffffffffffff1663ee68483083602001516000604051602001526040518263ffffffff167c010000000000000000000000000000000000000000000000000000000002815260040180828152602001915050602060405180830381600087803b15156111c857600080fd5b6102c65a03f115156111d957600080fd5b505050604051805190505b92505050919050565b6000600260008360001916600019168152602001908152602001600020600501549050919050565b600061121f612bdc565b60008060026000866000191660001916815260200190815260200160002060e06040519081016040529081600082015481526020016001820154815260200160028201548152602001600382018054600181600116156101000203166002900480601f0160208091040260200160405190810160405280929190818152602001828054600181600116156101000203166002900480156113005780601f106112d557610100808354040283529160200191611300565b820191906000526020600020905b8154815290600101906020018083116112e357829003601f168201915b505050505081526020016004820160009054906101000a900473ffffffffffffffffffffffffffffffffffffffff1673ffffffffffffffffffffffffffffffffffffffff1673ffffffffffffffffffffffffffffffffffffffff1681526020016005820154815260200160068201548152505092506113b36040805190810160405280600b81526020017f704d696e4465706f736974000000000000000000000000000000000000000000815250610df4565b91506113be85610bcc565b80156113ce575060008360200151145b15156113d957600080fd5b600360009054906101000a900473ffffffffffffffffffffffffffffffffffffffff1673ffffffffffffffffffffffffffffffffffffffff166323b872dd3330856000604051602001526040518463ffffffff167c0100000000000000000000000000000000000000000000000000000000028152600401808473ffffffffffffffffffffffffffffffffffffffff1673ffffffffffffffffffffffffffffffffffffffff1681526020018373ffffffffffffffffffffffffffffffffffffffff1673ffffffffffffffffffffffffffffffffffffffff1681526020018281526020019350505050602060405180830381600087803b15156114da57600080fd5b6102c65a03f115156114eb57600080fd5b50505060405180519050151561150057600080fd5b600460009054906101000a900473ffffffffffffffffffffffffffffffffffffffff1673ffffffffffffffffffffffffffffffffffffffff166332ed3d6061157c6040805190810160405280600b81526020017f70566f746551756f72756d000000000000000000000000000000000000000000815250610df4565b6115ba6040805190810160405280600f81526020017f70436f6d6d697453746167654c656e0000000000000000000000000000000000815250610df4565b6115f86040805190810160405280600f81526020017f7052657665616c53746167654c656e0000000000000000000000000000000000815250610df4565b6000604051602001526040518463ffffffff167c0100000000000000000000000000000000000000000000000000000000028152600401808481526020018381526020018281526020019350505050602060405180830381600087803b151561166057600080fd5b6102c65a03f1151561167157600080fd5b50505060405180519050905060a0604051908101604052806064846116ca6040805190810160405280601081526020017f7044697370656e736174696f6e50637400000000000000000000000000000000815250610df4565b606403028115156116d757fe5b0481526020013373ffffffffffffffffffffffffffffffffffffffff1681526020016000151581526020018381526020016000815250600160008381526020019081526020016000206000820151816000015560208201518160010160006101000a81548173ffffffffffffffffffffffffffffffffffffffff021916908373ffffffffffffffffffffffffffffffffffffffff16021790555060408201518160010160146101000a81548160ff0219169083151502179055506060820151816002015560808201518160030155905050806002600087600019166000191681526020019081526020016000206001018190555084600019163373ffffffffffffffffffffffffffffffffffffffff167fd712977221af40df1112c545d4b92bb6f0d17e307e19a2d637e569a0ba371f6c83600260008a60001916600019168152602001908152602001600020600301600260008b600019166000191681526020019081526020016000206006015460405180848152602001806020018381526020018281038252848181546001816001161561010002031660029004815260200191508054600181600116156101000203166002900480156118db5780601f106118b0576101008083540402835291602001916118db565b820191906000526020600020905b8154815290600101906020018083116118be57829003601f168201915b505094505050505060405180910390a3809350505050919050565b600080600015156001600086815260200190815260200160002060040160003373ffffffffffffffffffffffffffffffffffffffff1673ffffffffffffffffffffffffffffffffffffffff16815260200190815260200160002060009054906101000a900460ff16151514151561196c57600080fd5b600115156001600086815260200190815260200160002060010160149054906101000a900460ff1615151415156119a257600080fd5b600460009054906101000a900473ffffffffffffffffffffffffffffffffffffffff1673ffffffffffffffffffffffffffffffffffffffff1663ee8badd7338686600080604051602001526040518563ffffffff167c0100000000000000000000000000000000000000000000000000000000028152600401808573ffffffffffffffffffffffffffffffffffffffff1673ffffffffffffffffffffffffffffffffffffffff16815260200184815260200183815260200182151515158152602001945050505050602060405180830381600087803b1515611a8357600080fd5b6102c65a03f11515611a9457600080fd5b505050604051805190509150611aab338585611c59565b9050816001600086815260200190815260200160002060030160008282540392505081905550806001600086815260200190815260200160002060000160008282540392505081905550600360009054906101000a900473ffffffffffffffffffffffffffffffffffffffff1673ffffffffffffffffffffffffffffffffffffffff1663a9059cbb33836000604051602001526040518363ffffffff167c0100000000000000000000000000000000000000000000000000000000028152600401808373ffffffffffffffffffffffffffffffffffffffff1673ffffffffffffffffffffffffffffffffffffffff16815260200182815260200192505050602060405180830381600087803b1515611bc257600080fd5b6102c65a03f11515611bd357600080fd5b505050604051805190501515611be857600080fd5b600180600086815260200190815260200160002060040160003373ffffffffffffffffffffffffffffffffffffffff1673ffffffffffffffffffffffffffffffffffffffff16815260200190815260200160002060006101000a81548160ff02191690831515021790555050505050565b6000806000806001600087815260200190815260200160002060030154925060016000878152602001908152602001600020600001549150600460009054906101000a900473ffffffffffffffffffffffffffffffffffffffff1673ffffffffffffffffffffffffffffffffffffffff1663ee8badd7888888600080604051602001526040518563ffffffff167c0100000000000000000000000000000000000000000000000000000000028152600401808573ffffffffffffffffffffffffffffffffffffffff1673ffffffffffffffffffffffffffffffffffffffff16815260200184815260200183815260200182151515158152602001945050505050602060405180830381600087803b1515611d7257600080fd5b6102c65a03f11515611d8357600080fd5b50505060405180519050905082828202811515611d9c57fe5b0493505050509392505050565b6000806000611dec6040805190810160405280600b81526020017f704d696e4465706f736974000000000000000000000000000000000000000000815250610df4565b915084846040518083805190602001908083835b602083101515611e255780518252602082019150602081019050602083039250611e00565b6001836020036101000a0380198251168184511680821785525050505050509050018281526020019250505060405180910390209050611e6481610bcc565b151515611e7057600080fd5b83611e7a86610df4565b14151515611e8757600080fd5b600360009054906101000a900473ffffffffffffffffffffffffffffffffffffffff1673ffffffffffffffffffffffffffffffffffffffff166323b872dd3330856000604051602001526040518463ffffffff167c0100000000000000000000000000000000000000000000000000000000028152600401808473ffffffffffffffffffffffffffffffffffffffff1673ffffffffffffffffffffffffffffffffffffffff1681526020018373ffffffffffffffffffffffffffffffffffffffff1673ffffffffffffffffffffffffffffffffffffffff1681526020018281526020019350505050602060405180830381600087803b1515611f8857600080fd5b6102c65a03f11515611f9957600080fd5b505050604051805190501515611fae57600080fd5b60e060405190810160405280611ff86040805190810160405280600e81526020017f704170706c7953746167654c656e000000000000000000000000000000000000815250610df4565b42018152602001600081526020018381526020018681526020013373ffffffffffffffffffffffffffffffffffffffff16815260200161206c6040805190810160405280600a81526020017f7050726f63657373427900000000000000000000000000000000000000000000815250610df4565b6120aa6040805190810160405280600f81526020017f7052657665616c53746167654c656e0000000000000000000000000000000000815250610df4565b6120e86040805190810160405280600f81526020017f70436f6d6d697453746167654c656e0000000000000000000000000000000000815250610df4565b6121266040805190810160405280600e81526020017f704170706c7953746167654c656e000000000000000000000000000000000000815250610df4565b42010101018152602001858152506002600083600019166000191681526020019081526020016000206000820151816000015560208201518160010155604082015181600201556060820151816003019080519060200190612189929190612c7e565b5060808201518160040160006101000a81548173ffffffffffffffffffffffffffffffffffffffff021916908373ffffffffffffffffffffffffffffffffffffffff16021790555060a0820151816005015560c08201518160060155905050846040518082805190602001908083835b60208310151561221e57805182526020820191506020810190506020830392506121f9565b6001836020036101000a0380198251168184511680821785525050505050509050019150506040518091039020600019163373ffffffffffffffffffffffffffffffffffffffff167f9e6158d6d6f14bba901e5e1c5ef548cfef36dcbd56de51e29a5882f3a13d3cf987878560405180806020018481526020018360001916600019168152602001828103825285818151815260200191508051906020019080838360005b838110156122de5780820151818401526020810190506122c3565b50505050905090810190601f16801561230b5780820380516001836020036101000a031916815260200191505b5094505050505060405180910390a3809250505092915050565b600061232f612bdc565b60026000846000191660001916815260200190815260200160002060e06040519081016040529081600082015481526020016001820154815260200160028201548152602001600382018054600181600116156101000203166002900480601f01602080910402602001604051908101604052809291908181526020018280546001816001161561010002031660029004801561240d5780601f106123e25761010080835404028352916020019161240d565b820191906000526020600020905b8154815290600101906020018083116123f057829003601f168201915b505050505081526020016004820160009054906101000a900473ffffffffffffffffffffffffffffffffffffffff1673ffffffffffffffffffffffffffffffffffffffff1673ffffffffffffffffffffffffffffffffffffffff16815260200160058201548152602001600682015481525050905080600001514211801561249857508060a0015142105b80156124a8575060008160200151145b915050919050565b6000600260008360001916600019168152602001908152602001600020600601549050919050565b60006020528060005260406000206000915090505481565b6000600260008360001916600019168152602001908152602001600020600001549050919050565b6000600260008360001916600019168152602001908152602001600020600201549050919050565b600360009054906101000a900473ffffffffffffffffffffffffffffffffffffffff1681565b600460009054906101000a900473ffffffffffffffffffffffffffffffffffffffff1681565b80600080846040518082805190602001908083835b6020831015156125c657805182526020820191506020810190506020830392506125a1565b6001836020036101000a038019825116818451168082178552505050505050905001915050604051809103902060001916600019168152602001908152602001600020819055505050565b612619612bdc565b60008060026000856000191660001916815260200190815260200160002060e06040519081016040529081600082015481526020016001820154815260200160028201548152602001600382018054600181600116156101000203166002900480601f0160208091040260200160405190810160405280929190818152602001828054600181600116156101000203166002900480156126fa5780601f106126cf576101008083540402835291602001916126fa565b820191906000526020600020905b8154815290600101906020018083116126dd57829003601f168201915b505050505081526020016004820160009054906101000a900473ffffffffffffffffffffffffffffffffffffffff1673ffffffffffffffffffffffffffffffffffffffff1673ffffffffffffffffffffffffffffffffffffffff168152602001600582015481526020016006820154815250509250600160008460200151815260200190815260200160002091506127958360200151610cbc565b9050600460009054906101000a900473ffffffffffffffffffffffffffffffffffffffff1673ffffffffffffffffffffffffffffffffffffffff16634940318384602001516000604051602001526040518263ffffffff167c010000000000000000000000000000000000000000000000000000000002815260040180828152602001915050602060405180830381600087803b151561283457600080fd5b6102c65a03f1151561284557600080fd5b505050604051805190501561296f57428360a0015111156128735761287283606001518460c0015161258c565b5b600360009054906101000a900473ffffffffffffffffffffffffffffffffffffffff1673ffffffffffffffffffffffffffffffffffffffff1663a9059cbb8460800151836000604051602001526040518363ffffffff167c0100000000000000000000000000000000000000000000000000000000028152600401808373ffffffffffffffffffffffffffffffffffffffff1673ffffffffffffffffffffffffffffffffffffffff16815260200182815260200192505050602060405180830381600087803b151561294457600080fd5b6102c65a03f1151561295557600080fd5b50505060405180519050151561296a57600080fd5b612a9d565b600360009054906101000a900473ffffffffffffffffffffffffffffffffffffffff1673ffffffffffffffffffffffffffffffffffffffff1663a9059cbb600160008660200151815260200190815260200160002060010160009054906101000a900473ffffffffffffffffffffffffffffffffffffffff16836000604051602001526040518363ffffffff167c0100000000000000000000000000000000000000000000000000000000028152600401808373ffffffffffffffffffffffffffffffffffffffff1673ffffffffffffffffffffffffffffffffffffffff16815260200182815260200192505050602060405180830381600087803b1515612a7657600080fd5b6102c65a03f11515612a8757600080fd5b505050604051805190501515612a9c57600080fd5b5b600460009054906101000a900473ffffffffffffffffffffffffffffffffffffffff1673ffffffffffffffffffffffffffffffffffffffff1663053e71a684602001516000604051602001526040518263ffffffff167c010000000000000000000000000000000000000000000000000000000002815260040180828152602001915050602060405180830381600087803b1515612b3a57600080fd5b6102c65a03f11515612b4b57600080fd5b50505060405180519050826003018190555060018260010160146101000a81548160ff02191690831515021790555050505050565b50805460018160011615610100020316600290046000825580601f10612ba65750612bc5565b601f016020900490600052602060002090810190612bc49190612cfe565b5b50565b602060405190810160405280600081525090565b60e060405190810160405280600081526020016000815260200160008152602001612c05612d23565b8152602001600073ffffffffffffffffffffffffffffffffffffffff16815260200160008152602001600081525090565b60a06040519081016040528060008152602001600073ffffffffffffffffffffffffffffffffffffffff16815260200160001515815260200160008152602001600081525090565b828054600181600116156101000203166002900490600052602060002090601f016020900481019282601f10612cbf57805160ff1916838001178555612ced565b82800160010185558215612ced579182015b82811115612cec578251825591602001919060010190612cd1565b5b509050612cfa9190612cfe565b5090565b612d2091905b80821115612d1c576000816000905550600101612d04565b5090565b90565b6020604051908101604052806000815250905600a165627a7a72305820b85c5911631db419a1f707d6791bbaaea7eee37febe9c6baf41bd503818da68d0029",
  "source": "pragma solidity ^0.4.19;\n\nimport \"./installed_contracts/tokens/contracts/eip20/EIP20.sol\";\n\nimport \"./PLCRVoting.sol\";\n\ncontract Parameterizer {\n\n  // ------\n  // EVENTS\n  // ------\n\n  event ReparameterizationProposal(address indexed proposer, bytes32 indexed paramNameHash, string name, uint value, bytes32 propID);\n  event NewChallenge(address indexed challenger, bytes32 indexed propID, uint pollID, string name, uint value);\n\n  // ------\n  // DATA STRUCTURES\n  // ------\n\n  struct ParamProposal {\n    uint appExpiry;\n    uint challengeID;\n    uint deposit;\n    string name;\n    address owner;\n    uint processBy;\n    uint value;\n  }\n\n  struct Challenge {\n    uint rewardPool;        // (remaining) pool of tokens distributed amongst winning voters\n    address challenger;     // owner of Challenge\n    bool resolved;          // indication of if challenge is resolved\n    uint stake;             // number of tokens at risk for either party during challenge\n    uint winningTokens;     // (remaining) amount of tokens used for voting by the winning side\n    mapping(address => bool) tokenClaims;\n  }\n\n  // ------\n  // STATE\n  // ------\n\n  mapping(bytes32 => uint) public params;\n\n  // maps challengeIDs to associated challenge data\n  mapping(uint => Challenge) internal challenges;\n\n  // maps pollIDs to intended data change if poll passes\n  mapping(bytes32 => ParamProposal) internal proposals;\n\n  // Global Variables\n  EIP20 public token;\n  PLCRVoting public voting;\n\n  uint constant NO_CHALLENGE = 0;\n\n  // ------------\n  // CONSTRUCTOR\n  // ------------\n\n  /**\n  @notice constructor\n  @param _tokenAddr        address of the token which parameterizes this system\n  @param _plcrAddr         address of a PLCR voting contract for the provided token\n  @param _uintParameters    array of uint parameters\n  @dev _uintParameters is passed in as an array, rather than as individual parameters\n  to avoid compiler error caused by too many local variables (stack too deep)\n  */\n  function Parameterizer(\n    address _tokenAddr,\n    address _plcrAddr,\n    uint[16] _uintParameters\n  ) public\n  {\n    token = EIP20(_tokenAddr);\n    voting = PLCRVoting(_plcrAddr);\n\n    set(\"minDeposit\", _uintParameters[0]);\n    set(\"pMinDeposit\", _uintParameters[1]);\n    set(\"applyStageLen\", _uintParameters[2]);\n    set(\"pApplyStageLen\", _uintParameters[3]);\n    set(\"commitStageLen\", _uintParameters[4]);\n    set(\"pCommitStageLen\", _uintParameters[5]);\n    set(\"revealStageLen\", _uintParameters[6]);\n    set(\"pRevealStageLen\", _uintParameters[7]);\n    set(\"dispensationPct\", _uintParameters[8]);\n    set(\"pDispensationPct\", _uintParameters[9]);\n    set(\"voteQuorum\", _uintParameters[10]);\n    set(\"pVoteQuorum\", _uintParameters[11]);\n    set(\"pProcessBy\", _uintParameters[12]);\n    set(\"challengeAppealLen\", _uintParameters[13]);\n    set(\"challengeAppealCommitLen\", _uintParameters[14]);\n    set(\"challengeAppealRevealLen\", _uintParameters[15]);\n  }\n\n  // -----------------------\n  // TOKEN HOLDER INTERFACE\n  // -----------------------\n\n  /**\n  @notice propose a reparamaterization of the key _name's value to _value.\n  @param _name the name of the proposed param to be set\n  @param _value the proposed value to set the param to be set\n  */\n  function proposeReparameterization(string _name, uint _value) public returns (bytes32) {\n    uint deposit = get(\"pMinDeposit\");\n    bytes32 propID = keccak256(_name, _value);\n\n    require(!propExists(propID)); // Forbid duplicate proposals\n    require(get(_name) != _value); // Forbid NOOP reparameterizations\n    require(token.transferFrom(msg.sender, this, deposit)); // escrow tokens (deposit amt)\n\n    // attach name and value to pollID\n    proposals[propID] = ParamProposal({\n      appExpiry: now + get(\"pApplyStageLen\"),\n      challengeID: 0,\n      deposit: deposit,\n      name: _name,\n      owner: msg.sender,\n      // solium-disable-next-line operator-whitespace\n      processBy: now + get(\"pApplyStageLen\") + get(\"pCommitStageLen\") + get(\"pRevealStageLen\") + get(\"pProcessBy\"),\n      value: _value\n    });\n\n    ReparameterizationProposal(msg.sender, keccak256(_name), _name, _value, propID);\n    return propID;\n  }\n\n  /**\n  @notice challenge the provided proposal ID, and put tokens at stake to do so.\n  @param _propID the proposal ID to challenge\n  */\n  function challengeReparameterization(bytes32 _propID) public returns (uint challengeID) {\n    ParamProposal memory prop = proposals[_propID];\n    uint deposit = get(\"pMinDeposit\");\n\n    require(propExists(_propID) && prop.challengeID == NO_CHALLENGE);\n\n    //take tokens from challenger\n    require(token.transferFrom(msg.sender, this, deposit));\n    //start poll\n    uint pollID = voting.startPoll(\n      get(\"pVoteQuorum\"),\n      get(\"pCommitStageLen\"),\n      get(\"pRevealStageLen\")\n    );\n\n    challenges[pollID] = Challenge({\n      challenger: msg.sender,\n      rewardPool: ((100 - get(\"pDispensationPct\")) * deposit) / 100,\n      stake: deposit,\n      resolved: false,\n      winningTokens: 0\n    });\n\n    proposals[_propID].challengeID = pollID;       // update listing to store most recent challenge\n\n    NewChallenge(msg.sender, _propID, pollID, proposals[_propID].name, proposals[_propID].value);\n    return pollID;\n  }\n\n  /**\n  @notice for the provided proposal ID, set it, resolve its challenge, or delete it depending on whether it can be set, has a challenge which can be resolved, or if its \"process by\" date has passed\n  @param _propID the proposal ID to make a determination and state transition for\n  */\n  function processProposal(bytes32 _propID) public {\n    ParamProposal storage prop = proposals[_propID];\n\n    if (canBeSet(_propID)) {\n      set(prop.name, prop.value);\n    } else if (challengeCanBeResolved(_propID)) {\n      resolveChallenge(_propID);\n    } else if (now > prop.processBy) {\n      require(token.transfer(prop.owner, prop.deposit));\n    } else {\n      revert();\n    }\n\n    delete proposals[_propID];\n  }\n\n  /**\n  @notice claim the tokens owed for the msg.sender in the provided challenge\n  @param _challengeID the challenge ID to claim tokens for\n  @param _salt the salt used to vote in the challenge being withdrawn for\n  */\n  function claimReward(uint _challengeID, uint _salt) public {\n    // ensure voter has not already claimed tokens and challenge results have been processed\n    require(challenges[_challengeID].tokenClaims[msg.sender] == false);\n    require(challenges[_challengeID].resolved == true);\n\n    uint voterTokens = voting.getNumPassingTokens(msg.sender, _challengeID, _salt, false);\n    uint reward = voterReward(msg.sender, _challengeID, _salt);\n\n    // subtract voter's information to preserve the participation ratios of other voters\n    // compared to the remaining pool of rewards\n    challenges[_challengeID].winningTokens -= voterTokens;\n    challenges[_challengeID].rewardPool -= reward;\n\n    require(token.transfer(msg.sender, reward));\n\n    // ensures a voter cannot claim tokens again\n    challenges[_challengeID].tokenClaims[msg.sender] = true;\n  }\n\n  // --------\n  // GETTERS\n  // --------\n\n  // --------\n  // Proposal Mapping\n  // --------\n\n  function getPropAppExpiry(bytes32 _propID) public view returns (uint) {\n    return proposals[_propID].appExpiry;\n  }\n\n  function getPropChallengeID(bytes32 _propID) public view returns (uint) {\n    return proposals[_propID].challengeID;\n  }\n\n  function getPropDeposit(bytes32 _propID) public view returns (uint) {\n    return proposals[_propID].deposit;\n  }\n\n  function getPropName(bytes32 _propID) public view returns (string) {\n    return proposals[_propID].name;\n  }\n\n  function getPropOwner(bytes32 _propID) public view returns (address) {\n    return proposals[_propID].owner;\n  }\n\n  function getPropProcessBy(bytes32 _propID) public view returns (uint) {\n    return proposals[_propID].processBy;\n  }\n\n  function getPropValue(bytes32 _propID) public view returns (uint) {\n    return proposals[_propID].value;\n  }\n\n  // --------\n  // Challenge Mapping\n  // --------\n\n  function getChallengeRewardPool(uint _challengeID) public view returns (uint) {\n    return challenges[_challengeID].rewardPool;\n  }\n\n  function getChallengeChallenger(uint _challengeID) public view returns (address) {\n    return challenges[_challengeID].challenger;\n  }\n\n  function getChallengeResolved(uint _challengeID) public view returns (bool) {\n    return challenges[_challengeID].resolved;\n  }\n\n  function getChallengeStake(uint _challengeID) public view returns (uint) {\n    return challenges[_challengeID].stake;\n  }\n\n  function getChallengeWinningTokens(uint _challengeID) public view returns (uint) {\n    return challenges[_challengeID].winningTokens;\n  }\n\n  // --------\n  // Computed Values\n  // --------\n  /**\n  @dev                Calculates the provided voter's token reward for the given poll.\n  @param _voter       The address of the voter whose reward balance is to be returned\n  @param _challengeID The ID of the challenge the voter's reward is being calculated for\n  @param _salt        The salt of the voter's commit hash in the given poll\n  @return             The uint indicating the voter's reward\n  */\n  function voterReward(\n    address _voter,\n    uint _challengeID,\n    uint _salt)\n    public view returns (uint)\n  {\n    uint winningTokens = challenges[_challengeID].winningTokens;\n    uint rewardPool = challenges[_challengeID].rewardPool;\n    uint voterTokens = voting.getNumPassingTokens(_voter, _challengeID, _salt, false);\n    return (voterTokens * rewardPool) / winningTokens;\n  }\n\n  /**\n  @notice Determines whether a proposal passed its application stage without a challenge\n  @param _propID The proposal ID for which to determine whether its application stage passed without a challenge\n  */\n  function canBeSet(bytes32 _propID) view public returns (bool) {\n    ParamProposal memory prop = proposals[_propID];\n\n    return (now > prop.appExpiry && now < prop.processBy && prop.challengeID == NO_CHALLENGE);\n  }\n\n  /**\n  @notice Determines whether a proposal exists for the provided proposal ID\n  @param _propID The proposal ID whose existance is to be determined\n  */\n  function propExists(bytes32 _propID) view public returns (bool) {\n    return proposals[_propID].processBy > 0;\n  }\n\n  /**\n  @notice Determines whether the provided proposal ID has a challenge which can be resolved\n  @param _propID The proposal ID whose challenge to inspect\n  */\n  function challengeCanBeResolved(bytes32 _propID) view public returns (bool) {\n    ParamProposal memory prop = proposals[_propID];\n    Challenge memory challenge = challenges[prop.challengeID];\n\n    // solium-disable-next-line operator-whitespace\n    return (prop.challengeID > NO_CHALLENGE && challenge.resolved == false &&\n      voting.pollEnded(prop.challengeID));\n  }\n\n  /**\n  @notice Determines the number of tokens to awarded to the winning party in a challenge\n  @param _challengeID The challengeID to determine a reward for\n  */\n  function challengeWinnerReward(uint _challengeID) public view returns (uint) {\n    if (voting.getTotalNumberOfTokensForWinningOption(_challengeID) == 0) {\n      // Edge case, nobody voted, give all tokens to the winner.\n      return 2 * challenges[_challengeID].stake;\n    }\n\n    return (2 * challenges[_challengeID].stake) - challenges[_challengeID].rewardPool;\n  }\n\n  /**\n  @notice gets the parameter keyed by the provided name value from the params mapping\n  @param _name the key whose value is to be determined\n  */\n  function get(string _name) public view returns (uint value) {\n    return params[keccak256(_name)];\n  }\n\n  // ----------------\n  // PRIVATE FUNCTIONS\n  // ----------------\n\n  /**\n  @dev resolves a challenge for the provided _propID. It must be checked in advance whether the _propID has a challenge on it\n  @param _propID the proposal ID whose challenge is to be resolved.\n  */\n  function resolveChallenge(bytes32 _propID) private {\n    ParamProposal memory prop = proposals[_propID];\n    Challenge storage challenge = challenges[prop.challengeID];\n\n    // winner gets back their full staked deposit, and dispensationPct*loser's stake\n    uint reward = challengeWinnerReward(prop.challengeID);\n\n    if (voting.isPassed(prop.challengeID)) { // The challenge failed\n      if (prop.processBy > now) {\n        set(prop.name, prop.value);\n      }\n      require(token.transfer(prop.owner, reward));\n    } else { // The challenge succeeded\n      require(token.transfer(challenges[prop.challengeID].challenger, reward));\n    }\n\n    challenge.winningTokens = voting.getTotalNumberOfTokensForWinningOption(prop.challengeID);\n    challenge.resolved = true;\n  }\n\n  /**\n  @dev sets the param keted by the provided name to the provided value\n  @param _name the name of the param to be set\n  @param _value the value to set the param to be set\n  */\n  function set(string _name, uint _value) private {\n    params[keccak256(_name)] = _value;\n  }\n}\n\n",
  "sourcePath": "/Users/walkerflynn/civil/Civil/packages/contracts/contracts/tcr/Parameterizer.sol",
  "compiler": {
    "name": "solc",
    "version": "0.4.19+commit.c4cbbb05.Emscripten.clang"
  },
  "schemaVersion": "2.0.0",
  "updatedAt": "2018-04-19T02:12:18.254Z"
}