{
  "contractName": "PLCRVoting",
  "abi": [
    {
      "constant": true,
      "inputs": [],
      "name": "INITIAL_POLL_NONCE",
      "outputs": [
        {
          "name": "",
          "type": "uint256"
        }
      ],
      "payable": false,
      "stateMutability": "view",
      "type": "function"
    },
    {
      "constant": true,
      "inputs": [
        {
          "name": "",
          "type": "address"
        }
      ],
      "name": "voteTokenBalance",
      "outputs": [
        {
          "name": "",
          "type": "uint256"
        }
      ],
      "payable": false,
      "stateMutability": "view",
      "type": "function"
    },
    {
      "constant": true,
      "inputs": [],
      "name": "pollNonce",
      "outputs": [
        {
          "name": "",
          "type": "uint256"
        }
      ],
      "payable": false,
      "stateMutability": "view",
      "type": "function"
    },
    {
      "constant": true,
      "inputs": [],
      "name": "token",
      "outputs": [
        {
          "name": "",
          "type": "address"
        }
      ],
      "payable": false,
      "stateMutability": "view",
      "type": "function"
    },
    {
      "inputs": [
        {
          "name": "_tokenAddr",
          "type": "address"
        }
      ],
      "payable": false,
      "stateMutability": "nonpayable",
      "type": "constructor"
    },
    {
      "anonymous": false,
      "inputs": [
        {
          "indexed": true,
          "name": "voter",
          "type": "address"
        },
        {
          "indexed": true,
          "name": "pollID",
          "type": "uint256"
        },
        {
          "indexed": false,
          "name": "numTokens",
          "type": "uint256"
        }
      ],
      "name": "VoteCommitted",
      "type": "event"
    },
    {
      "anonymous": false,
      "inputs": [
        {
          "indexed": true,
          "name": "voter",
          "type": "address"
        },
        {
          "indexed": true,
          "name": "pollID",
          "type": "uint256"
        },
        {
          "indexed": false,
          "name": "numTokens",
          "type": "uint256"
        },
        {
          "indexed": false,
          "name": "choice",
          "type": "uint256"
        }
      ],
      "name": "VoteRevealed",
      "type": "event"
    },
    {
      "anonymous": false,
      "inputs": [
        {
          "indexed": false,
          "name": "voteQuorum",
          "type": "uint256"
        },
        {
          "indexed": false,
          "name": "commitDuration",
          "type": "uint256"
        },
        {
          "indexed": false,
          "name": "revealDuration",
          "type": "uint256"
        },
        {
          "indexed": true,
          "name": "pollID",
          "type": "uint256"
        }
      ],
      "name": "PollCreated",
      "type": "event"
    },
    {
      "anonymous": false,
      "inputs": [
        {
          "indexed": true,
          "name": "voter",
          "type": "address"
        },
        {
          "indexed": false,
          "name": "numTokens",
          "type": "uint256"
        }
      ],
      "name": "VotingRightsGranted",
      "type": "event"
    },
    {
      "anonymous": false,
      "inputs": [
        {
          "indexed": true,
          "name": "voter",
          "type": "address"
        },
        {
          "indexed": false,
          "name": "numTokens",
          "type": "uint256"
        }
      ],
      "name": "VotingRightsWithdrawn",
      "type": "event"
    },
    {
      "constant": true,
      "inputs": [
        {
          "name": "_pollID",
          "type": "uint256"
        }
      ],
      "name": "getPollCommitEndDate",
      "outputs": [
        {
          "name": "",
          "type": "uint256"
        }
      ],
      "payable": false,
      "stateMutability": "view",
      "type": "function"
    },
    {
      "constant": true,
      "inputs": [
        {
          "name": "_pollID",
          "type": "uint256"
        }
      ],
      "name": "getPollRevealEndDate",
      "outputs": [
        {
          "name": "",
          "type": "uint256"
        }
      ],
      "payable": false,
      "stateMutability": "view",
      "type": "function"
    },
    {
      "constant": true,
      "inputs": [
        {
          "name": "_pollID",
          "type": "uint256"
        }
      ],
      "name": "getPollVoteQuorum",
      "outputs": [
        {
          "name": "",
          "type": "uint256"
        }
      ],
      "payable": false,
      "stateMutability": "view",
      "type": "function"
    },
    {
      "constant": true,
      "inputs": [
        {
          "name": "_pollID",
          "type": "uint256"
        }
      ],
      "name": "getPollVotesFor",
      "outputs": [
        {
          "name": "",
          "type": "uint256"
        }
      ],
      "payable": false,
      "stateMutability": "view",
      "type": "function"
    },
    {
      "constant": true,
      "inputs": [
        {
          "name": "_pollID",
          "type": "uint256"
        }
      ],
      "name": "getPollVotesAgainst",
      "outputs": [
        {
          "name": "",
          "type": "uint256"
        }
      ],
      "payable": false,
      "stateMutability": "view",
      "type": "function"
    },
    {
      "constant": false,
      "inputs": [
        {
          "name": "_numTokens",
          "type": "uint256"
        }
      ],
      "name": "requestVotingRights",
      "outputs": [],
      "payable": false,
      "stateMutability": "nonpayable",
      "type": "function"
    },
    {
      "constant": false,
      "inputs": [
        {
          "name": "_numTokens",
          "type": "uint256"
        }
      ],
      "name": "withdrawVotingRights",
      "outputs": [],
      "payable": false,
      "stateMutability": "nonpayable",
      "type": "function"
    },
    {
      "constant": false,
      "inputs": [
        {
          "name": "_pollID",
          "type": "uint256"
        }
      ],
      "name": "rescueTokens",
      "outputs": [],
      "payable": false,
      "stateMutability": "nonpayable",
      "type": "function"
    },
    {
      "constant": false,
      "inputs": [
        {
          "name": "_pollID",
          "type": "uint256"
        },
        {
          "name": "_secretHash",
          "type": "bytes32"
        },
        {
          "name": "_numTokens",
          "type": "uint256"
        },
        {
          "name": "_prevPollID",
          "type": "uint256"
        }
      ],
      "name": "commitVote",
      "outputs": [],
      "payable": false,
      "stateMutability": "nonpayable",
      "type": "function"
    },
    {
      "constant": true,
      "inputs": [
        {
          "name": "_prevID",
          "type": "uint256"
        },
        {
          "name": "_nextID",
          "type": "uint256"
        },
        {
          "name": "_voter",
          "type": "address"
        },
        {
          "name": "_numTokens",
          "type": "uint256"
        }
      ],
      "name": "validPosition",
      "outputs": [
        {
          "name": "valid",
          "type": "bool"
        }
      ],
      "payable": false,
      "stateMutability": "view",
      "type": "function"
    },
    {
      "constant": false,
      "inputs": [
        {
          "name": "_pollID",
          "type": "uint256"
        },
        {
          "name": "_voteOption",
          "type": "uint256"
        },
        {
          "name": "_salt",
          "type": "uint256"
        }
      ],
      "name": "revealVote",
      "outputs": [],
      "payable": false,
      "stateMutability": "nonpayable",
      "type": "function"
    },
    {
      "constant": true,
      "inputs": [
        {
          "name": "_voter",
          "type": "address"
        },
        {
          "name": "_pollID",
          "type": "uint256"
        },
        {
          "name": "_salt",
          "type": "uint256"
        },
        {
          "name": "_overturned",
          "type": "bool"
        }
      ],
      "name": "getNumPassingTokens",
      "outputs": [
        {
          "name": "correctVotes",
          "type": "uint256"
        }
      ],
      "payable": false,
      "stateMutability": "view",
      "type": "function"
    },
    {
      "constant": false,
      "inputs": [
        {
          "name": "_voteQuorum",
          "type": "uint256"
        },
        {
          "name": "_commitDuration",
          "type": "uint256"
        },
        {
          "name": "_revealDuration",
          "type": "uint256"
        }
      ],
      "name": "startPoll",
      "outputs": [
        {
          "name": "pollID",
          "type": "uint256"
        }
      ],
      "payable": false,
      "stateMutability": "nonpayable",
      "type": "function"
    },
    {
      "constant": true,
      "inputs": [
        {
          "name": "_pollID",
          "type": "uint256"
        }
      ],
      "name": "isPassed",
      "outputs": [
        {
          "name": "passed",
          "type": "bool"
        }
      ],
      "payable": false,
      "stateMutability": "view",
      "type": "function"
    },
    {
      "constant": true,
      "inputs": [
        {
          "name": "_pollID",
          "type": "uint256"
        }
      ],
      "name": "getTotalNumberOfTokensForWinningOption",
      "outputs": [
        {
          "name": "numTokens",
          "type": "uint256"
        }
      ],
      "payable": false,
      "stateMutability": "view",
      "type": "function"
    },
    {
      "constant": true,
      "inputs": [
        {
          "name": "_pollID",
          "type": "uint256"
        }
      ],
      "name": "getTotalNumberOfTokensForLosingOption",
      "outputs": [
        {
          "name": "numTokens",
          "type": "uint256"
        }
      ],
      "payable": false,
      "stateMutability": "view",
      "type": "function"
    },
    {
      "constant": true,
      "inputs": [
        {
          "name": "_pollID",
          "type": "uint256"
        }
      ],
      "name": "pollEnded",
      "outputs": [
        {
          "name": "ended",
          "type": "bool"
        }
      ],
      "payable": false,
      "stateMutability": "view",
      "type": "function"
    },
    {
      "constant": true,
      "inputs": [
        {
          "name": "_pollID",
          "type": "uint256"
        }
      ],
      "name": "commitPeriodActive",
      "outputs": [
        {
          "name": "active",
          "type": "bool"
        }
      ],
      "payable": false,
      "stateMutability": "view",
      "type": "function"
    },
    {
      "constant": true,
      "inputs": [
        {
          "name": "_pollID",
          "type": "uint256"
        }
      ],
      "name": "revealPeriodActive",
      "outputs": [
        {
          "name": "active",
          "type": "bool"
        }
      ],
      "payable": false,
      "stateMutability": "view",
      "type": "function"
    },
    {
      "constant": true,
      "inputs": [
        {
          "name": "_voter",
          "type": "address"
        },
        {
          "name": "_pollID",
          "type": "uint256"
        }
      ],
      "name": "hasBeenRevealed",
      "outputs": [
        {
          "name": "revealed",
          "type": "bool"
        }
      ],
      "payable": false,
      "stateMutability": "view",
      "type": "function"
    },
    {
      "constant": true,
      "inputs": [
        {
          "name": "_pollID",
          "type": "uint256"
        }
      ],
      "name": "pollExists",
      "outputs": [
        {
          "name": "exists",
          "type": "bool"
        }
      ],
      "payable": false,
      "stateMutability": "view",
      "type": "function"
    },
    {
      "constant": true,
      "inputs": [
        {
          "name": "_voter",
          "type": "address"
        },
        {
          "name": "_pollID",
          "type": "uint256"
        }
      ],
      "name": "getCommitHash",
      "outputs": [
        {
          "name": "commitHash",
          "type": "bytes32"
        }
      ],
      "payable": false,
      "stateMutability": "view",
      "type": "function"
    },
    {
      "constant": true,
      "inputs": [
        {
          "name": "_voter",
          "type": "address"
        },
        {
          "name": "_pollID",
          "type": "uint256"
        }
      ],
      "name": "getNumTokens",
      "outputs": [
        {
          "name": "numTokens",
          "type": "uint256"
        }
      ],
      "payable": false,
      "stateMutability": "view",
      "type": "function"
    },
    {
      "constant": true,
      "inputs": [
        {
          "name": "_voter",
          "type": "address"
        }
      ],
      "name": "getLastNode",
      "outputs": [
        {
          "name": "pollID",
          "type": "uint256"
        }
      ],
      "payable": false,
      "stateMutability": "view",
      "type": "function"
    },
    {
      "constant": true,
      "inputs": [
        {
          "name": "_voter",
          "type": "address"
        }
      ],
      "name": "getLockedTokens",
      "outputs": [
        {
          "name": "numTokens",
          "type": "uint256"
        }
      ],
      "payable": false,
      "stateMutability": "view",
      "type": "function"
    },
    {
      "constant": true,
      "inputs": [
        {
          "name": "_voter",
          "type": "address"
        },
        {
          "name": "_numTokens",
          "type": "uint256"
        }
      ],
      "name": "getInsertPointForNumTokens",
      "outputs": [
        {
          "name": "prevNode",
          "type": "uint256"
        }
      ],
      "payable": false,
      "stateMutability": "view",
      "type": "function"
    },
    {
      "constant": true,
      "inputs": [
        {
          "name": "_terminationDate",
          "type": "uint256"
        }
      ],
      "name": "isExpired",
      "outputs": [
        {
          "name": "expired",
          "type": "bool"
        }
      ],
      "payable": false,
      "stateMutability": "view",
      "type": "function"
    },
    {
      "constant": true,
      "inputs": [
        {
          "name": "_user",
          "type": "address"
        },
        {
          "name": "_pollID",
          "type": "uint256"
        }
      ],
      "name": "attrUUID",
      "outputs": [
        {
          "name": "uuid",
          "type": "bytes32"
        }
      ],
      "payable": false,
      "stateMutability": "pure",
      "type": "function"
    }
  ],
  "bytecode": "0x6060604052341561000f57600080fd5b6040516020806122548339810160405280805190602001909190505080600560006101000a81548173ffffffffffffffffffffffffffffffffffffffff021916908373ffffffffffffffffffffffffffffffffffffffff16021790555060008081905550506121d1806100836000396000f300606060405260043610610196576000357c0100000000000000000000000000000000000000000000000000000000900463ffffffff168063053e71a61461019b57806311fadea3146101d25780632173a10f146102095780632e9b12d01461023257806332ed3d60146102695780633b930294146102b2578063427fa1d2146102ff578063441c77c01461034c57806349403183146103875780635f4da610146103c25780636b2d95d4146103f95780636cbf9c5e1461044657806372d8e44214610488578063819b0293146104e257806388d21ff31461054e57806397508f361461058957806397603560146105b2578063a1103f37146105d5578063a25236fe14610633578063a4439dc514610656578063b11d8bb814610691578063c622afb0146106c6578063c9d983e61461071c578063d138209214610753578063d901402b146107a9578063d9548e5314610807578063ddb261b514610842578063e7b1d43c14610879578063e8cfa3f01461089c578063ee684830146108d3578063ee8badd71461090e578063fc0c546a14610978575b600080fd5b34156101a657600080fd5b6101bc60048080359060200190919050506109cd565b6040518082815260200191505060405180910390f35b34156101dd57600080fd5b6101f36004808035906020019091905050610a2e565b6040518082815260200191505060405180910390f35b341561021457600080fd5b61021c610a4e565b6040518082815260200191505060405180910390f35b341561023d57600080fd5b6102536004808035906020019091905050610a53565b6040518082815260200191505060405180910390f35b341561027457600080fd5b61029c6004808035906020019091908035906020019091908035906020019091905050610a73565b6040518082815260200191505060405180910390f35b34156102bd57600080fd5b6102e9600480803573ffffffffffffffffffffffffffffffffffffffff16906020019091905050610b50565b6040518082815260200191505060405180910390f35b341561030a57600080fd5b610336600480803573ffffffffffffffffffffffffffffffffffffffff16906020019091905050610b68565b6040518082815260200191505060405180910390f35b341561035757600080fd5b61036d6004808035906020019091905050610c47565b604051808215151515815260200191505060405180910390f35b341561039257600080fd5b6103a86004808035906020019091905050610c96565b604051808215151515815260200191505060405180910390f35b34156103cd57600080fd5b6103e36004808035906020019091905050610d29565b6040518082815260200191505060405180910390f35b341561040457600080fd5b610430600480803573ffffffffffffffffffffffffffffffffffffffff16906020019091905050610d49565b6040518082815260200191505060405180910390f35b341561045157600080fd5b610486600480803590602001909190803560001916906020019091908035906020019091908035906020019091905050610d64565b005b341561049357600080fd5b6104c8600480803573ffffffffffffffffffffffffffffffffffffffff169060200190919080359060200190919050506112ba565b604051808215151515815260200191505060405180910390f35b34156104ed57600080fd5b610534600480803590602001909190803590602001909190803573ffffffffffffffffffffffffffffffffffffffff169060200190919080359060200190919050506113af565b604051808215151515815260200191505060405180910390f35b341561055957600080fd5b61056f60048080359060200190919050506113f3565b604051808215151515815260200191505060405180910390f35b341561059457600080fd5b61059c611487565b6040518082815260200191505060405180910390f35b34156105bd57600080fd5b6105d3600480803590602001909190505061148d565b005b34156105e057600080fd5b610615600480803573ffffffffffffffffffffffffffffffffffffffff16906020019091908035906020019091905050611580565b60405180826000191660001916815260200191505060405180910390f35b341561063e57600080fd5b61065460048080359060200190919050506115e3565b005b341561066157600080fd5b6106776004808035906020019091905050611896565b604051808215151515815260200191505060405180910390f35b341561069c57600080fd5b6106c460048080359060200190919080359060200190919080359060200190919050506118d3565b005b34156106d157600080fd5b610706600480803573ffffffffffffffffffffffffffffffffffffffff16906020019091908035906020019091905050611ac1565b6040518082815260200191505060405180910390f35b341561072757600080fd5b61073d6004808035906020019091905050611bed565b6040518082815260200191505060405180910390f35b341561075e57600080fd5b610793600480803573ffffffffffffffffffffffffffffffffffffffff16906020019091908035906020019091905050611c0d565b6040518082815260200191505060405180910390f35b34156107b457600080fd5b6107e9600480803573ffffffffffffffffffffffffffffffffffffffff16906020019091908035906020019091905050611cfa565b60405180826000191660001916815260200191505060405180910390f35b341561081257600080fd5b6108286004808035906020019091905050611dea565b604051808215151515815260200191505060405180910390f35b341561084d57600080fd5b6108636004808035906020019091905050611df6565b6040518082815260200191505060405180910390f35b341561088457600080fd5b61089a6004808035906020019091905050611e16565b005b34156108a757600080fd5b6108bd6004808035906020019091905050612005565b6040518082815260200191505060405180910390f35b34156108de57600080fd5b6108f46004808035906020019091905050612067565b604051808215151515815260200191505060405180910390f35b341561091957600080fd5b610962600480803573ffffffffffffffffffffffffffffffffffffffff1690602001909190803590602001909190803590602001909190803515159060200190919050506120a3565b6040518082815260200191505060405180910390f35b341561098357600080fd5b61098b61214f565b604051808273ffffffffffffffffffffffffffffffffffffffff1673ffffffffffffffffffffffffffffffffffffffff16815260200191505060405180910390f35b60006109d882612067565b15156109e357600080fd5b6109ec82610c96565b15610a0f5760016000838152602001908152602001600020600301549050610a29565b600160008381526020019081526020016000206004015490505b919050565b600060016000838152602001908152602001600020600301549050919050565b600081565b600060016000838152602001908152602001600020600401549050919050565b600060016000540160008190555060a060405190810160405280844201815260200183854201018152602001858152602001600081526020016000815250600160008054815260200190815260200160002060008201518160000155602082015181600101556040820151816002015560608201518160030155608082015181600401559050506000547fef096063d99f4ef9370b5e89d45025615c869845ca33878d173e8dca429b2be085858560405180848152602001838152602001828152602001935050505060405180910390a260005490509392505050565b60026020528060005260406000206000915090505481565b6000600360008373ffffffffffffffffffffffffffffffffffffffff1673ffffffffffffffffffffffffffffffffffffffff16815260200190815260200160002073__DLL___________________________________6330fe0a0a9091600080604051602001526040518363ffffffff167c0100000000000000000000000000000000000000000000000000000000028152600401808381526020018281526020019250505060206040518083038186803b1515610c2557600080fd5b6102c65a03f41515610c3657600080fd5b505050604051805190509050919050565b6000610c52826113f3565b1515610c5d57600080fd5b610c7c6001600084815260200190815260200160002060010154611dea565b158015610c8f5750610c8d82611896565b155b9050919050565b6000610ca0612175565b610ca983612067565b1515610cb457600080fd5b6001600084815260200190815260200160002060a060405190810160405290816000820154815260200160018201548152602001600282015481526020016003820154815260200160048201548152505090508060800151816060015101816040015102816060015160640211915050919050565b600060016000838152602001908152602001600020600201549050919050565b6000610d5d82610d5884610b68565b611c0d565b9050919050565b600080610d7086611896565b1515610d7b57600080fd5b83600260003373ffffffffffffffffffffffffffffffffffffffff1673ffffffffffffffffffffffffffffffffffffffff1681526020019081526020016000205410151515610dc957600080fd5b60008614151515610dd957600080fd5b6000831480610df957506000600102610df23385611cfa565b6000191614155b1515610e0457600080fd5b600360003373ffffffffffffffffffffffffffffffffffffffff1673ffffffffffffffffffffffffffffffffffffffff16815260200190815260200160002073__DLL___________________________________6307d29ac99091856000604051602001526040518363ffffffff167c0100000000000000000000000000000000000000000000000000000000028152600401808381526020018281526020019250505060206040518083038186803b1515610ebf57600080fd5b6102c65a03f41515610ed057600080fd5b505050604051805190509150858214610ee95781610fc0565b600360003373ffffffffffffffffffffffffffffffffffffffff1673ffffffffffffffffffffffffffffffffffffffff16815260200190815260200160002073__DLL___________________________________6307d29ac99091886000604051602001526040518363ffffffff167c0100000000000000000000000000000000000000000000000000000000028152600401808381526020018281526020019250505060206040518083038186803b1515610fa457600080fd5b6102c65a03f41515610fb557600080fd5b505050604051805190505b9150610fce838333876113af565b1515610fd957600080fd5b600360003373ffffffffffffffffffffffffffffffffffffffff1673ffffffffffffffffffffffffffffffffffffffff16815260200190815260200160002073__DLL___________________________________639735c51b90918589866040518563ffffffff167c01000000000000000000000000000000000000000000000000000000000281526004018085815260200184815260200183815260200182815260200194505050505060006040518083038186803b151561109b57600080fd5b6102c65a03f415156110ac57600080fd5b5050506110b93387611580565b9050600473__AttributeStore________________________63977aa031909183876040518463ffffffff167c010000000000000000000000000000000000000000000000000000000002815260040180848152602001836000191660001916815260200180602001838152602001828103825260098152602001807f6e756d546f6b656e73000000000000000000000000000000000000000000000081525060200194505050505060006040518083038186803b151561117957600080fd5b6102c65a03f4151561118a57600080fd5b505050600473__AttributeStore________________________63977aa03190918388600190046040518463ffffffff167c0100000000000000000000000000000000000000000000000000000000028152600401808481526020018360001916600019168152602001806020018381526020018281038252600a8152602001807f636f6d6d6974486173680000000000000000000000000000000000000000000081525060200194505050505060006040518083038186803b151561124f57600080fd5b6102c65a03f4151561126057600080fd5b505050853373ffffffffffffffffffffffffffffffffffffffff167f1d1ce8842c4b2d0eaed42eb6d7732092ca85f0992cae9c760d181efcb0aedf4e866040518082815260200191505060405180910390a3505050505050565b60006112c5826113f3565b15156112d057600080fd5b600360008473ffffffffffffffffffffffffffffffffffffffff1673ffffffffffffffffffffffffffffffffffffffff16815260200190815260200160002073__DLL___________________________________63366a5ba29091846000604051602001526040518363ffffffff167c0100000000000000000000000000000000000000000000000000000000028152600401808381526020018281526020019250505060206040518083038186803b151561138b57600080fd5b6102c65a03f4151561139c57600080fd5b5050506040518051905015905092915050565b60008060006113be8588611c0d565b84101591506113cd8587611c0d565b841115806113db5750600086145b90508180156113e75750805b92505050949350505050565b6000806000600160008581526020019081526020016000206000015491506001600085815260200190815260200160002060010154905060008214801561143b575060008114155b15151561144457fe5b600082141580156114555750600081145b15151561145e57fe5b600082148061146d5750600081145b1561147b5760009250611480565b600192505b5050919050565b60005481565b61149681612067565b15156114a157600080fd5b6114ab33826112ba565b1515156114b757600080fd5b600360003373ffffffffffffffffffffffffffffffffffffffff1673ffffffffffffffffffffffffffffffffffffffff16815260200190815260200160002073__DLL___________________________________636d900ed09091836040518363ffffffff167c0100000000000000000000000000000000000000000000000000000000028152600401808381526020018281526020019250505060006040518083038186803b151561156957600080fd5b6102c65a03f4151561157a57600080fd5b50505050565b60008282604051808373ffffffffffffffffffffffffffffffffffffffff1673ffffffffffffffffffffffffffffffffffffffff166c01000000000000000000000000028152601401828152602001925050506040518091039020905092915050565b80600560009054906101000a900473ffffffffffffffffffffffffffffffffffffffff1673ffffffffffffffffffffffffffffffffffffffff166370a08231336000604051602001526040518263ffffffff167c0100000000000000000000000000000000000000000000000000000000028152600401808273ffffffffffffffffffffffffffffffffffffffff1673ffffffffffffffffffffffffffffffffffffffff168152602001915050602060405180830381600087803b15156116a957600080fd5b6102c65a03f115156116ba57600080fd5b50505060405180519050101515156116d157600080fd5b600560009054906101000a900473ffffffffffffffffffffffffffffffffffffffff1673ffffffffffffffffffffffffffffffffffffffff166323b872dd3330846000604051602001526040518463ffffffff167c0100000000000000000000000000000000000000000000000000000000028152600401808473ffffffffffffffffffffffffffffffffffffffff1673ffffffffffffffffffffffffffffffffffffffff1681526020018373ffffffffffffffffffffffffffffffffffffffff1673ffffffffffffffffffffffffffffffffffffffff1681526020018281526020019350505050602060405180830381600087803b15156117d257600080fd5b6102c65a03f115156117e357600080fd5b5050506040518051905015156117f857600080fd5b80600260003373ffffffffffffffffffffffffffffffffffffffff1673ffffffffffffffffffffffffffffffffffffffff168152602001908152602001600020600082825401925050819055503373ffffffffffffffffffffffffffffffffffffffff167f4bdec44a53feb3aabedf51c989ff2b6aebe7369d3974f57c304758a8537281e1826040518082815260200191505060405180910390a250565b60006118a1826113f3565b15156118ac57600080fd5b6118cb6001600084815260200190815260200160002060000154611dea565b159050919050565b60006118de84610c47565b15156118e957600080fd5b6118f333856112ba565b1515156118ff57600080fd5b6119093385611cfa565b600019168383604051808381526020018281526020019250505060405180910390206000191614151561193b57600080fd5b6119453385611c0d565b905060018314156119795780600160008681526020019081526020016000206003016000828254019250508190555061199e565b8060016000868152602001908152602001600020600401600082825401925050819055505b600360003373ffffffffffffffffffffffffffffffffffffffff1673ffffffffffffffffffffffffffffffffffffffff16815260200190815260200160002073__DLL___________________________________636d900ed09091866040518363ffffffff167c0100000000000000000000000000000000000000000000000000000000028152600401808381526020018281526020019250505060006040518083038186803b1515611a5057600080fd5b6102c65a03f41515611a6157600080fd5b505050833373ffffffffffffffffffffffffffffffffffffffff167f7f9df012dd015e7e61a4a17ccf8db7fb6afbe211465b5696368d1d6408d033118386604051808381526020018281526020019250505060405180910390a350505050565b6000806000611acf85610b68565b9150611adb8583611c0d565b90505b600081141515611be157611af28583611c0d565b905083811015611b0457819250611be5565b600360008673ffffffffffffffffffffffffffffffffffffffff1673ffffffffffffffffffffffffffffffffffffffff16815260200190815260200160002073__DLL___________________________________6330fe0a0a9091846000604051602001526040518363ffffffff167c0100000000000000000000000000000000000000000000000000000000028152600401808381526020018281526020019250505060206040518083038186803b1515611bbf57600080fd5b6102c65a03f41515611bd057600080fd5b505050604051805190509150611ade565b8192505b505092915050565b600060016000838152602001908152602001600020600101549050919050565b6000600473__AttributeStore________________________6350389f5c9091611c378686611580565b6000604051602001526040518363ffffffff167c010000000000000000000000000000000000000000000000000000000002815260040180838152602001826000191660001916815260200180602001828103825260098152602001807f6e756d546f6b656e730000000000000000000000000000000000000000000000815250602001935050505060206040518083038186803b1515611cd757600080fd5b6102c65a03f41515611ce857600080fd5b50505060405180519050905092915050565b6000600473__AttributeStore________________________6350389f5c9091611d248686611580565b6000604051602001526040518363ffffffff167c0100000000000000000000000000000000000000000000000000000000028152600401808381526020018260001916600019168152602001806020018281038252600a8152602001807f636f6d6d69744861736800000000000000000000000000000000000000000000815250602001935050505060206040518083038186803b1515611dc457600080fd5b6102c65a03f41515611dd557600080fd5b50505060405180519050600102905092915050565b60008142119050919050565b600060016000838152602001908152602001600020600001549050919050565b6000611e2133610d49565b600260003373ffffffffffffffffffffffffffffffffffffffff1673ffffffffffffffffffffffffffffffffffffffff16815260200190815260200160002054039050818110151515611e7357600080fd5b600560009054906101000a900473ffffffffffffffffffffffffffffffffffffffff1673ffffffffffffffffffffffffffffffffffffffff1663a9059cbb33846000604051602001526040518363ffffffff167c0100000000000000000000000000000000000000000000000000000000028152600401808373ffffffffffffffffffffffffffffffffffffffff1673ffffffffffffffffffffffffffffffffffffffff16815260200182815260200192505050602060405180830381600087803b1515611f4057600080fd5b6102c65a03f11515611f5157600080fd5b505050604051805190501515611f6657600080fd5b81600260003373ffffffffffffffffffffffffffffffffffffffff1673ffffffffffffffffffffffffffffffffffffffff168152602001908152602001600020600082825403925050819055503373ffffffffffffffffffffffffffffffffffffffff167f2c88837e03c4eee367d64fb379bbf7dad76a371c52622230bcf8b79728b9c532836040518082815260200191505060405180910390a25050565b600061201082612067565b151561201b57600080fd5b61202482610c96565b15156120485760016000838152602001908152602001600020600301549050612062565b600160008381526020019081526020016000206004015490505b919050565b6000612072826113f3565b151561207d57600080fd5b61209c6001600084815260200190815260200160002060010154611dea565b9050919050565b6000806000806120b287612067565b15156120bd57600080fd5b6120c788886112ba565b15156120d257600080fd5b84806120e357506120e287610c96565b5b6120ee5760006120f1565b60015b60ff16925082866040518083815260200182815260200192505050604051809103902091506121208888611cfa565b90508060001916826000191614151561213857600080fd5b6121428888611c0d565b9350505050949350505050565b600560009054906101000a900473ffffffffffffffffffffffffffffffffffffffff1681565b60a060405190810160405280600081526020016000815260200160008152602001600081526020016000815250905600a165627a7a723058203cff15fa09b769b747a249923bc6b61f2055ed90f0c1d7af9b3889cad0b127b10029",
  "source": "pragma solidity ^0.4.19;\n\nimport \"./installed_contracts/tokens/contracts/eip20/EIP20.sol\";\nimport \"./installed_contracts/attrstore/contracts/AttributeStore.sol\";\nimport \"./installed_contracts/dll/contracts/DLL.sol\";\n\n/**\n@title Partial-Lock-Commit-Reveal Voting scheme with ERC20 tokens\n@author Team: Aspyn Palatnick, Cem Ozer, Yorke Rhodes\n*/\ncontract PLCRVoting {\n\n  // ============\n  // EVENTS:\n  // ============\n\n  event VoteCommitted(address indexed voter, uint indexed pollID, uint numTokens);\n  event VoteRevealed(address indexed voter, uint indexed pollID, uint numTokens, uint choice);\n  event PollCreated(uint voteQuorum, uint commitDuration, uint revealDuration, uint indexed pollID);\n  event VotingRightsGranted(address indexed voter, uint numTokens);\n  event VotingRightsWithdrawn(address indexed voter, uint numTokens);\n\n  // ============\n  // DATA STRUCTURES:\n  // ============\n\n  using AttributeStore for AttributeStore.Data;\n  using DLL for DLL.Data;\n\n  struct Poll {\n    uint commitEndDate;     /// expiration date of commit period for poll\n    uint revealEndDate;     /// expiration date of reveal period for poll\n    uint voteQuorum;\t    /// number of votes required for a proposal to pass\n    uint votesFor;\t\t    /// tally of votes supporting proposal\n    uint votesAgainst;      /// tally of votes countering proposal\n  }\n\n  // ============\n  // STATE VARIABLES:\n  // ============\n\n  uint constant public INITIAL_POLL_NONCE = 0;\n  uint public pollNonce;\n\n  mapping(uint => Poll) internal pollMap; // maps pollID to Poll struct\n\n  // --------\n  // Basic Poll Getters\n  // --------\n\n  function getPollCommitEndDate(uint _pollID) public view returns (uint) {\n    return pollMap[_pollID].commitEndDate;\n  }\n\n  function getPollRevealEndDate(uint _pollID) public view returns (uint) {\n    return pollMap[_pollID].revealEndDate;\n  }\n\n  function getPollVoteQuorum(uint _pollID) public view returns (uint) {\n    return pollMap[_pollID].voteQuorum;\n  }\n\n  function getPollVotesFor(uint _pollID) public view returns (uint) {\n    return pollMap[_pollID].votesFor;\n  }\n\n  function getPollVotesAgainst(uint _pollID) public view returns (uint) {\n    return pollMap[_pollID].votesAgainst;\n  }\n\n  mapping(address => uint) public voteTokenBalance; // maps user's address to voteToken balance\n\n  mapping(address => DLL.Data) dllMap;\n  AttributeStore.Data store;\n\n  EIP20 public token;\n\n  // ============\n  // CONSTRUCTOR:\n  // ============\n\n  /**\n  @dev Initializes voteQuorum, commitDuration, revealDuration, and pollNonce in addition to token contract and trusted mapping\n  @param _tokenAddr The address where the ERC20 token contract is deployed\n  */\n  function PLCRVoting(address _tokenAddr) public {\n    token = EIP20(_tokenAddr);\n    pollNonce = INITIAL_POLL_NONCE;\n  }\n\n  // ================\n  // TOKEN INTERFACE:\n  // ================\n\n  /**\n  @notice Loads _numTokens ERC20 tokens into the voting contract for one-to-one voting rights\n  @dev Assumes that msg.sender has approved voting contract to spend on their behalf\n  @param _numTokens The number of votingTokens desired in exchange for ERC20 tokens\n  */\n  function requestVotingRights(uint _numTokens) external {\n    require(token.balanceOf(msg.sender) >= _numTokens);\n    require(token.transferFrom(msg.sender, this, _numTokens));\n    voteTokenBalance[msg.sender] += _numTokens;\n    VotingRightsGranted(msg.sender, _numTokens);\n  }\n\n  /**\n  @notice Withdraw _numTokens ERC20 tokens from the voting contract, revoking these voting rights\n  @param _numTokens The number of ERC20 tokens desired in exchange for voting rights\n  */\n  function withdrawVotingRights(uint _numTokens) external {\n    uint availableTokens = voteTokenBalance[msg.sender] - getLockedTokens(msg.sender);\n    require(availableTokens >= _numTokens);\n    require(token.transfer(msg.sender, _numTokens));\n    voteTokenBalance[msg.sender] -= _numTokens;\n    VotingRightsWithdrawn(msg.sender, _numTokens);\n  }\n\n  /**\n  @dev Unlocks tokens locked in unrevealed vote where poll has ended\n  @param _pollID Integer identifier associated with the target poll\n  */\n  function rescueTokens(uint _pollID) external {\n    require(pollEnded(_pollID));\n    require(!hasBeenRevealed(msg.sender, _pollID));\n\n    dllMap[msg.sender].remove(_pollID);\n  }\n\n  // =================\n  // VOTING INTERFACE:\n  // =================\n\n  /**\n  @notice Commits vote using hash of choice and secret salt to conceal vote until reveal\n  @param _pollID Integer identifier associated with target poll\n  @param _secretHash Commit keccak256 hash of voter's choice and salt (tightly packed in this order)\n  @param _numTokens The number of tokens to be committed towards the target poll\n  @param _prevPollID The ID of the poll that the user has voted the maximum number of tokens in which is still less than or equal to numTokens\n  */\n  function commitVote(uint _pollID, bytes32 _secretHash, uint _numTokens, uint _prevPollID) external {\n    require(commitPeriodActive(_pollID));\n    require(voteTokenBalance[msg.sender] >= _numTokens); // prevent user from overspending\n    require(_pollID != 0);                // prevent user from committing to zero node placeholder\n\n    // TODO: Move all insert validation into the DLL lib\n    // Check if _prevPollID exists\n    require(_prevPollID == 0 || getCommitHash(msg.sender, _prevPollID) != 0);\n\n    uint nextPollID = dllMap[msg.sender].getNext(_prevPollID);\n\n    // if nextPollID is equal to _pollID, _pollID is being updated,\n    nextPollID = (nextPollID == _pollID) ? dllMap[msg.sender].getNext(_pollID) : nextPollID;\n\n    require(validPosition(_prevPollID, nextPollID, msg.sender, _numTokens));\n    dllMap[msg.sender].insert(_prevPollID, _pollID, nextPollID);\n\n    bytes32 uuid = attrUUID(msg.sender, _pollID);\n\n    store.setAttribute(uuid, \"numTokens\", _numTokens);\n    store.setAttribute(uuid, \"commitHash\", uint(_secretHash));\n\n    VoteCommitted(msg.sender, _pollID, _numTokens);\n  }\n\n  /**\n  @dev Compares previous and next poll's committed tokens for sorting purposes\n  @param _prevID Integer identifier associated with previous poll in sorted order\n  @param _nextID Integer identifier associated with next poll in sorted order\n  @param _voter Address of user to check DLL position for\n  @param _numTokens The number of tokens to be committed towards the poll (used for sorting)\n  @return valid Boolean indication of if the specified position maintains the sort\n  */\n  function validPosition(uint _prevID, uint _nextID, address _voter, uint _numTokens) public constant returns (bool valid) {\n    bool prevValid = (_numTokens >= getNumTokens(_voter, _prevID));\n    // if next is zero node, _numTokens does not need to be greater\n    bool nextValid = (_numTokens <= getNumTokens(_voter, _nextID) || _nextID == 0);\n    return prevValid && nextValid;\n  }\n\n  /**\n  @notice Reveals vote with choice and secret salt used in generating commitHash to attribute committed tokens\n  @param _pollID Integer identifier associated with target poll\n  @param _voteOption Vote choice used to generate commitHash for associated poll\n  @param _salt Secret number used to generate commitHash for associated poll\n  */\n  function revealVote(uint _pollID, uint _voteOption, uint _salt) external {\n    // Make sure the reveal period is active\n    require(revealPeriodActive(_pollID));\n    require(!hasBeenRevealed(msg.sender, _pollID));                        // prevent user from revealing multiple times\n    require(keccak256(_voteOption, _salt) == getCommitHash(msg.sender, _pollID)); // compare resultant hash from inputs to original commitHash\n\n    uint numTokens = getNumTokens(msg.sender, _pollID);\n\n    if (_voteOption == 1) { // apply numTokens to appropriate poll choice\n      pollMap[_pollID].votesFor += numTokens;\n    } else {\n      pollMap[_pollID].votesAgainst += numTokens;\n    }\n\n    dllMap[msg.sender].remove(_pollID); // remove the node referring to this vote upon reveal\n\n    VoteRevealed(msg.sender, _pollID, numTokens, _voteOption);\n  }\n\n  /**\n  @param _pollID Integer identifier associated with target poll\n  @param _salt Arbitrarily chosen integer used to generate secretHash\n  @return correctVotes Number of tokens voted for winning option\n  */\n  function getNumPassingTokens(address _voter, uint _pollID, uint _salt, bool _overturned) public constant returns (uint correctVotes) {\n    require(pollEnded(_pollID));\n    require(hasBeenRevealed(_voter, _pollID));\n\n    uint winningChoice = (_overturned || isPassed(_pollID)) ? 1 : 0;\n    bytes32 winnerHash = keccak256(winningChoice, _salt);\n    bytes32 commitHash = getCommitHash(_voter, _pollID);\n\n    require(winnerHash == commitHash);\n\n    return getNumTokens(_voter, _pollID);\n  }\n\n  // ==================\n  // POLLING INTERFACE:\n  // ==================\n\n  /**\n  @dev Initiates a poll with canonical configured parameters at pollID emitted by PollCreated event\n  @param _voteQuorum Type of majority (out of 100) that is necessary for poll to be successful\n  @param _commitDuration Length of desired commit period in seconds\n  @param _revealDuration Length of desired reveal period in seconds\n  */\n  function startPoll(uint _voteQuorum, uint _commitDuration, uint _revealDuration) public returns (uint pollID) {\n    pollNonce = pollNonce + 1;\n\n    pollMap[pollNonce] = Poll({\n      voteQuorum: _voteQuorum,\n      commitEndDate: block.timestamp + _commitDuration,\n      revealEndDate: block.timestamp + _commitDuration + _revealDuration,\n      votesFor: 0,\n      votesAgainst: 0\n    });\n\n    PollCreated(_voteQuorum, _commitDuration, _revealDuration, pollNonce);\n    return pollNonce;\n  }\n\n  /**\n  @notice Determines if proposal has passed\n  @dev Check if votesFor out of totalVotes exceeds votesQuorum (requires pollEnded)\n  @param _pollID Integer identifier associated with target poll\n  */\n  function isPassed(uint _pollID) constant public returns (bool passed) {\n    require(pollEnded(_pollID));\n\n    Poll memory poll = pollMap[_pollID];\n    return (100 * poll.votesFor) > (poll.voteQuorum * (poll.votesFor + poll.votesAgainst));\n  }\n\n  // ----------------\n  // POLLING HELPERS:\n  // ----------------\n\n  /**\n  @dev Gets the total winning votes for reward distribution purposes\n  @param _pollID Integer identifier associated with target poll\n  @return Total number of votes committed to the winning option for specified poll\n  */\n  function getTotalNumberOfTokensForWinningOption(uint _pollID) constant public returns (uint numTokens) {\n    require(pollEnded(_pollID));\n\n    if (isPassed(_pollID)) {\n      return pollMap[_pollID].votesFor;\n    }\n\n    return pollMap[_pollID].votesAgainst;\n  }\n\n  /**\n  @dev Gets the total winning votes for reward distribution purposes\n  @param _pollID Integer identifier associated with target poll\n  @return Total number of votes committed to the losing option for specified poll\n  */\n  function getTotalNumberOfTokensForLosingOption(uint _pollID) constant public returns (uint numTokens) {\n    require(pollEnded(_pollID));\n\n    if (!isPassed(_pollID)) {\n      return pollMap[_pollID].votesFor;\n    }\n\n    return pollMap[_pollID].votesAgainst;\n  }\n\n  /**\n  @notice Determines if poll is over\n  @dev Checks isExpired for specified poll's revealEndDate\n  @return Boolean indication of whether polling period is over\n  */\n  function pollEnded(uint _pollID) constant public returns (bool ended) {\n    require(pollExists(_pollID));\n\n    return isExpired(pollMap[_pollID].revealEndDate);\n  }\n\n  /**\n  @notice Checks if the commit period is still active for the specified poll\n  @dev Checks isExpired for the specified poll's commitEndDate\n  @param _pollID Integer identifier associated with target poll\n  @return Boolean indication of isCommitPeriodActive for target poll\n  */\n  function commitPeriodActive(uint _pollID) constant public returns (bool active) {\n    require(pollExists(_pollID));\n\n    return !isExpired(pollMap[_pollID].commitEndDate);\n  }\n\n  /**\n  @notice Checks if the reveal period is still active for the specified poll\n  @dev Checks isExpired for the specified poll's revealEndDate\n  @param _pollID Integer identifier associated with target poll\n  */\n  function revealPeriodActive(uint _pollID) constant public returns (bool active) {\n    require(pollExists(_pollID));\n\n    return !isExpired(pollMap[_pollID].revealEndDate) && !commitPeriodActive(_pollID);\n  }\n\n  /**\n  @dev Checks if user has already revealed for specified poll\n  @param _voter Address of user to check against\n  @param _pollID Integer identifier associated with target poll\n  @return Boolean indication of whether user has already revealed\n  */\n  function hasBeenRevealed(address _voter, uint _pollID) constant public returns (bool revealed) {\n    require(pollExists(_pollID));\n\n    return !dllMap[_voter].contains(_pollID);\n  }\n\n  /**\n  @dev Checks if a poll exists, throws if the provided poll is in an impossible state\n  @param _pollID The pollID whose existance is to be evaluated.\n  @return Boolean Indicates whether a poll exists for the provided pollID\n  */\n  function pollExists(uint _pollID) constant public returns (bool exists) {\n    uint commitEndDate = pollMap[_pollID].commitEndDate;\n    uint revealEndDate = pollMap[_pollID].revealEndDate;\n\n    assert(!(commitEndDate == 0 && revealEndDate != 0));\n    assert(!(commitEndDate != 0 && revealEndDate == 0));\n\n    if (commitEndDate == 0 || revealEndDate == 0) {\n      return false;\n    }\n    return true;\n  }\n\n  // ---------------------------\n  // DOUBLE-LINKED-LIST HELPERS:\n  // ---------------------------\n\n  /**\n  @dev Gets the bytes32 commitHash property of target poll\n  @param _voter Address of user to check against\n  @param _pollID Integer identifier associated with target poll\n  @return Bytes32 hash property attached to target poll\n  */\n  function getCommitHash(address _voter, uint _pollID) constant public returns (bytes32 commitHash) {\n    return bytes32(store.getAttribute(attrUUID(_voter, _pollID), \"commitHash\"));\n  }\n\n  /**\n  @dev Wrapper for getAttribute with attrName=\"numTokens\"\n  @param _voter Address of user to check against\n  @param _pollID Integer identifier associated with target poll\n  @return Number of tokens committed to poll in sorted poll-linked-list\n  */\n  function getNumTokens(address _voter, uint _pollID) constant public returns (uint numTokens) {\n    return store.getAttribute(attrUUID(_voter, _pollID), \"numTokens\");\n  }\n\n  /**\n  @dev Gets top element of sorted poll-linked-list\n  @param _voter Address of user to check against\n  @return Integer identifier to poll with maximum number of tokens committed to it\n  */\n  function getLastNode(address _voter) constant public returns (uint pollID) {\n    return dllMap[_voter].getPrev(0);\n  }\n\n  /**\n  @dev Gets the numTokens property of getLastNode\n  @param _voter Address of user to check against\n  @return Maximum number of tokens committed in poll specified\n  */\n  function getLockedTokens(address _voter) constant public returns (uint numTokens) {\n    return getNumTokens(_voter, getLastNode(_voter));\n  }\n\n  /**\n  @dev Gets the prevNode a new node should be inserted after given the sort factor\n  @param _voter The voter whose DLL will be searched\n  @param _numTokens The value for the numTokens attribute in the node to be inserted\n  @return the node which the propoded node should be inserted after\n  */\n  function getInsertPointForNumTokens(\n    address _voter,\n    uint _numTokens)\n    constant public returns (uint prevNode)\n  {\n    uint nodeID = getLastNode(_voter);\n    uint tokensInNode = getNumTokens(_voter, nodeID);\n\n    while (tokensInNode != 0) {\n      tokensInNode = getNumTokens(_voter, nodeID);\n      if (tokensInNode < _numTokens) {\n        return nodeID;\n      }\n      nodeID = dllMap[_voter].getPrev(nodeID);\n    }\n\n    return nodeID;\n  }\n\n  // ----------------\n  // GENERAL HELPERS:\n  // ----------------\n\n  /**\n  @dev Checks if an expiration date has been reached\n  @param _terminationDate Integer timestamp of date to compare current timestamp with\n  @return expired Boolean indication of whether the terminationDate has passed\n  */\n  function isExpired(uint _terminationDate) constant public returns (bool expired) {\n    return (block.timestamp > _terminationDate);\n  }\n\n  /**\n  @dev Generates an identifier which associates a user and a poll together\n  @param _pollID Integer identifier associated with target poll\n  @return UUID Hash which is deterministic from _user and _pollID\n  */\n  function attrUUID(address _user, uint _pollID) public pure returns (bytes32 uuid) {\n    return keccak256(_user, _pollID);\n  }\n}\n",
  "sourcePath": "/Users/walkerflynn/civil/Civil/packages/contracts/contracts/tcr/PLCRVoting.sol",
  "compiler": {
    "name": "solc",
    "version": "0.4.19+commit.c4cbbb05.Emscripten.clang"
  },
  "schemaVersion": "2.0.0",
  "updatedAt": "2018-04-19T02:12:18.243Z"
}