{
  "contractName": "ACL",
  "abi": [
    {
      "constant": false,
      "inputs": [],
      "name": "renounceOwnership",
      "outputs": [],
      "payable": false,
      "stateMutability": "nonpayable",
      "type": "function"
    },
    {
      "constant": true,
      "inputs": [],
      "name": "owner",
      "outputs": [
        {
          "name": "",
          "type": "address"
        }
      ],
      "payable": false,
      "stateMutability": "view",
      "type": "function"
    },
    {
      "constant": false,
      "inputs": [
        {
          "name": "_newOwner",
          "type": "address"
        }
      ],
      "name": "transferOwnership",
      "outputs": [],
      "payable": false,
      "stateMutability": "nonpayable",
      "type": "function"
    },
    {
      "inputs": [],
      "payable": false,
      "stateMutability": "nonpayable",
      "type": "constructor"
    },
    {
      "anonymous": false,
      "inputs": [
        {
          "indexed": true,
          "name": "granter",
          "type": "address"
        },
        {
          "indexed": true,
          "name": "grantee",
          "type": "address"
        },
        {
          "indexed": false,
          "name": "role",
          "type": "string"
        }
      ],
      "name": "RoleAdded",
      "type": "event"
    },
    {
      "anonymous": false,
      "inputs": [
        {
          "indexed": true,
          "name": "granter",
          "type": "address"
        },
        {
          "indexed": true,
          "name": "grantee",
          "type": "address"
        },
        {
          "indexed": false,
          "name": "role",
          "type": "string"
        }
      ],
      "name": "RoleRemoved",
      "type": "event"
    },
    {
      "anonymous": false,
      "inputs": [
        {
          "indexed": true,
          "name": "previousOwner",
          "type": "address"
        }
      ],
      "name": "OwnershipRenounced",
      "type": "event"
    },
    {
      "anonymous": false,
      "inputs": [
        {
          "indexed": true,
          "name": "previousOwner",
          "type": "address"
        },
        {
          "indexed": true,
          "name": "newOwner",
          "type": "address"
        }
      ],
      "name": "OwnershipTransferred",
      "type": "event"
    },
    {
      "constant": true,
      "inputs": [
        {
          "name": "user",
          "type": "address"
        },
        {
          "name": "role",
          "type": "string"
        }
      ],
      "name": "hasRole",
      "outputs": [
        {
          "name": "",
          "type": "bool"
        }
      ],
      "payable": false,
      "stateMutability": "view",
      "type": "function"
    },
    {
      "constant": true,
      "inputs": [
        {
          "name": "user",
          "type": "address"
        }
      ],
      "name": "isOwner",
      "outputs": [
        {
          "name": "",
          "type": "bool"
        }
      ],
      "payable": false,
      "stateMutability": "view",
      "type": "function"
    }
  ],
  "bytecode": "0x608060405234801561001057600080fd5b5060008054600160a060020a03191633179055610355806100326000396000f30060806040526004361061006c5763ffffffff7c0100000000000000000000000000000000000000000000000000000000600035041663217fe6c681146100715780632f54bf6e146100ec578063715018a61461010d5780638da5cb5b14610124578063f2fde38b14610155575b600080fd5b34801561007d57600080fd5b5060408051602060046024803582810135601f81018590048502860185019096528585526100d8958335600160a060020a03169536956044949193909101919081908401838280828437509497506101769650505050505050565b604080519115158252519081900360200190f35b3480156100f857600080fd5b506100d8600160a060020a03600435166101fa565b34801561011957600080fd5b5061012261020e565b005b34801561013057600080fd5b5061013961027a565b60408051600160a060020a039092168252519081900360200190f35b34801561016157600080fd5b50610122600160a060020a0360043516610289565b60006001826040518082805190602001908083835b602083106101aa5780518252601f19909201916020918201910161018b565b51815160209384036101000a600019018019909216911617905292019485525060408051948590038201909420600160a060020a0397909716600090815296905250509092205460ff1692915050565b600054600160a060020a0390811691161490565b600054600160a060020a0316331461022557600080fd5b60008054604051600160a060020a03909116917ff8df31144d9c2f0f6b59d69b8b98abd5459d07f2742c4df920b25aae33c6482091a26000805473ffffffffffffffffffffffffffffffffffffffff19169055565b600054600160a060020a031681565b600054600160a060020a031633146102a057600080fd5b6102a9816102ac565b50565b600160a060020a03811615156102c157600080fd5b60008054604051600160a060020a03808516939216917f8be0079c531659141344cd1fd0a4f28419497f9722a3daafe3b4186f6b6457e091a36000805473ffffffffffffffffffffffffffffffffffffffff1916600160a060020a03929092169190911790555600a165627a7a72305820b55624f9823a8598d2272ca6a6dca0a4f4d4a5381d6f99567ae0f215004fac200029",
  "source": "pragma solidity ^0.4.19;\nimport \"../zeppelin-solidity/ownership/Ownable.sol\";\n\n/**\n@title String-based Access Control List\n@author The Civil Media Company\n@dev The owner of this smart-contract overrides any role requirement in the requireRole modifier,\nand so it is important to use the modifier instead of checking hasRole when creating actual requirements.\nThe internal functions are not secured in any way and should be extended in the deriving contracts to define\nrequirements that suit that specific domain.\n*/\ncontract ACL is Ownable {\n  event RoleAdded(address indexed granter, address indexed grantee, string role);\n  event RoleRemoved(address indexed granter, address indexed grantee, string role);\n\n  mapping(string => RoleData) private roles;\n\n  modifier requireRole(string role) {\n    require(isOwner(msg.sender) || hasRole(msg.sender, role));\n    _;\n  }\n\n  function ACL() Ownable() public {\n  }\n\n  /**\n  @notice Returns whether a specific addres has a role. Keep in mind that the owner can override role checks\n  @param user The address for which role check is done\n  @param role A constant name of the role being checked\n  */\n  function hasRole(address user, string role) public view returns (bool) {\n    return roles[role].actors[user];\n  }\n\n  /**\n  @notice Returns if the specified address is owner of this smart-contract and thus can override any role checks\n  @param user The checked address\n  */\n  function isOwner(address user) public view returns (bool) {\n    return user == owner;\n  }\n\n  function _addRole(address grantee, string role) internal {\n    roles[role].actors[grantee] = true;\n    emit RoleAdded(msg.sender, grantee, role);\n  }\n\n  function _removeRole(address grantee, string role) internal {\n    delete roles[role].actors[grantee];\n    emit RoleRemoved(msg.sender, grantee, role);\n  }\n\n  struct RoleData {\n    mapping(address => bool) actors;\n  }\n}\n",
  "sourcePath": "/Users/ritave/Documents/Praca/Civil/Civil/packages/contracts/contracts/newsroom/ACL.sol",
  "compiler": {
    "name": "solc",
    "version": "0.4.24+commit.e67f0147.Emscripten.clang"
  },
  "schemaVersion": "2.0.1",
  "updatedAt": "2018-10-24T13:09:43.635Z"
}