{
  "contractName": "EventStorage",
  "abi": [
    {
      "anonymous": false,
      "inputs": [
        {
          "indexed": true,
          "name": "dataHash",
          "type": "bytes32"
        },
        {
          "indexed": false,
          "name": "data",
          "type": "string"
        }
      ],
      "name": "StringStored",
      "type": "event"
    },
    {
      "constant": false,
      "inputs": [
        {
          "name": "data",
          "type": "string"
        }
      ],
      "name": "store",
      "outputs": [],
      "payable": false,
      "stateMutability": "nonpayable",
      "type": "function"
    }
  ],
  "bytecode": "0x608060405234801561001057600080fd5b506101bc806100206000396000f3006080604052600436106100405763ffffffff7c0100000000000000000000000000000000000000000000000000000000600035041663131a06808114610045575b600080fd5b34801561005157600080fd5b506040805160206004803580820135601f810184900484028501840190955284845261009e9436949293602493928401919081908401838280828437509497506100a09650505050505050565b005b806040518082805190602001908083835b602083106100d05780518252601f1990920191602091820191016100b1565b51815160209384036101000a60001901801990921691161790526040805192909401829003822081835287518383015287519096507f2162a3c4a129c520b65f2837a045d97d2119710c87276c5ca08ed28155daa13a95508794929350839283019185019080838360005b8381101561015357818101518382015260200161013b565b50505050905090810190601f1680156101805780820380516001836020036101000a031916815260200191505b509250505060405180910390a2505600a165627a7a723058205cf8793243833fa802857252f356ea844ce47845701187cc03111f8247b405310029",
  "source": "pragma solidity ^0.4.19;\n\n/**\n@title Event Storage Archive\n@notice This smart-contract uses events to cheaply store content on the blockchain.\n@dev For most use-cases, using events to store strings than using the \"Storage\" memory model is cheaper\nAdditionally the keccak256 is also calculated for easier filtering of events for which we're looking for\n*/\ncontract EventStorage {\n  event StringStored(bytes32 indexed dataHash, string data);\n\n  function store(string data) public {\n    emit StringStored(keccak256((data)), data);\n  }\n}\n",
  "sourcePath": "/Users/ritave/Documents/Praca/Civil/Civil/packages/contracts/contracts/newsroom/EventStorage.sol",
  "compiler": {
    "name": "solc",
    "version": "0.4.24+commit.e67f0147.Emscripten.clang"
  },
  "schemaVersion": "2.0.1",
  "updatedAt": "2018-10-24T13:18:57.235Z"
}