{
  "contractName": "NewsroomFactory",
  "abi": [
    {
      "constant": true,
      "inputs": [
        {
          "name": "",
          "type": "address"
        }
      ],
      "name": "isInstantiation",
      "outputs": [
        {
          "name": "",
          "type": "bool"
        }
      ],
      "payable": false,
      "stateMutability": "view",
      "type": "function"
    },
    {
      "constant": true,
      "inputs": [],
      "name": "multisigFactory",
      "outputs": [
        {
          "name": "",
          "type": "address"
        }
      ],
      "payable": false,
      "stateMutability": "view",
      "type": "function"
    },
    {
      "constant": true,
      "inputs": [
        {
          "name": "",
          "type": "address"
        },
        {
          "name": "",
          "type": "uint256"
        }
      ],
      "name": "instantiations",
      "outputs": [
        {
          "name": "",
          "type": "address"
        }
      ],
      "payable": false,
      "stateMutability": "view",
      "type": "function"
    },
    {
      "constant": true,
      "inputs": [
        {
          "name": "creator",
          "type": "address"
        }
      ],
      "name": "getInstantiationCount",
      "outputs": [
        {
          "name": "",
          "type": "uint256"
        }
      ],
      "payable": false,
      "stateMutability": "view",
      "type": "function"
    },
    {
      "inputs": [
        {
          "name": "multisigFactoryAddr",
          "type": "address"
        }
      ],
      "payable": false,
      "stateMutability": "nonpayable",
      "type": "constructor"
    },
    {
      "anonymous": false,
      "inputs": [
        {
          "indexed": false,
          "name": "sender",
          "type": "address"
        },
        {
          "indexed": false,
          "name": "instantiation",
          "type": "address"
        }
      ],
      "name": "ContractInstantiation",
      "type": "event"
    },
    {
      "constant": false,
      "inputs": [
        {
          "name": "name",
          "type": "string"
        },
        {
          "name": "charterUri",
          "type": "string"
        },
        {
          "name": "charterHash",
          "type": "bytes32"
        },
        {
          "name": "initialOwners",
          "type": "address[]"
        },
        {
          "name": "initialRequired",
          "type": "uint256"
        }
      ],
      "name": "create",
      "outputs": [
        {
          "name": "newsroom",
          "type": "address"
        }
      ],
      "payable": false,
      "stateMutability": "nonpayable",
      "type": "function"
    }
  ],
  "bytecode": "0x608060405234801561001057600080fd5b506040516020806128f8833981016040525160028054600160a060020a031916600160a060020a039092169190911790556128a8806100506000396000f300608060405260043610620000725763ffffffff7c01000000000000000000000000000000000000000000000000000000006000350416632f4f3316811462000077578063421b58d614620000af57806357183c8214620000e357806360bb9dab146200010a5780638f83847814620001e6575b600080fd5b3480156200008457600080fd5b506200009b600160a060020a03600435166200021c565b604080519115158252519081900360200190f35b348015620000bc57600080fd5b50620000c762000231565b60408051600160a060020a039092168252519081900360200190f35b348015620000f057600080fd5b50620000c7600160a060020a036004351660243562000240565b3480156200011757600080fd5b506040805160206004803580820135601f8101849004840285018401909552848452620000c794369492936024939284019190819084018382808284375050604080516020601f89358b018035918201839004830284018301909452808352979a99988101979196509182019450925082915084018382808284375050604080516020808901358a01803580830284810184018652818552999c8b359c909b909a9501985092965081019450909250829190850190849080828437509497505093359450620002789350505050565b348015620001f357600080fd5b506200020a600160a060020a036004351662000506565b60408051918252519081900360200190f35b60006020819052908152604090205460ff1681565b600254600160a060020a031681565b6001602052816000526040600020818154811015156200025c57fe5b600091825260209091200154600160a060020a03169150829050565b600254604080517ff8f7380800000000000000000000000000000000000000000000000000000000815260248101849052600481019182528451604482015284516000938493600160a060020a039091169263f8f7380892889288929091829160640190602080870191028083838c5b8381101562000302578181015183820152602001620002e8565b505050509050019350505050602060405180830381600087803b1580156200032957600080fd5b505af11580156200033e573d6000803e3d6000fd5b505050506040513d60208110156200035557600080fd5b5051905086868662000366620005b9565b60408101829052606080825284519082015283518190602080830191608084019188019080838360005b83811015620003aa57818101518382015260200162000390565b50505050905090810190601f168015620003d85780820380516001836020036101000a031916815260200191505b50838103825285518152855160209182019187019080838360005b838110156200040d578181015183820152602001620003f3565b50505050905090810190601f1680156200043b5780820380516001836020036101000a031916815260200191505b5095505050505050604051809103906000f08015801562000460573d6000803e3d6000fd5b50915081600160a060020a031663f2fde38b826040518263ffffffff167c01000000000000000000000000000000000000000000000000000000000281526004018082600160a060020a0316600160a060020a03168152602001915050600060405180830381600087803b158015620004d857600080fd5b505af1158015620004ed573d6000803e3d6000fd5b50505050620004fc8262000521565b5095945050505050565b600160a060020a031660009081526001602052604090205490565b600160a060020a038116600081815260208181526040808320805460ff19166001908117909155338085528184528285208054928301815585529383902001805473ffffffffffffffffffffffffffffffffffffffff19168517905580519283529082019290925281517f4fb057ad4a26ed17a57957fa69c306f11987596069b89521c511fc9a894e6161929181900390910190a150565b6040516122b280620005cb83390190560060806040523480156200001157600080fd5b50604051620022b2380380620022b2833981016040908152815160208301519183015160008054600160a060020a0319163317905590830192919091019062000063836401000000006200009b810204565b620000918282600060206040519081016040528060008152506200018c640100000000026401000000009004565b50505050620009f2565b600054600160a060020a03163314620000b357600080fd5b8051600010620000c257600080fd5b8051620000d79060059060208401906200094d565b5060408051602080825260058054600260001961010060018416150201909116049183018290527f4737457377f528cc8afd815f73ecb8b05df80d047dbffc41c17750a4033592bc939092918291820190849080156200017b5780601f106200014f576101008083540402835291602001916200017b565b820191906000526020600020905b8154815290600101906020018083116200015d57829003601f168201915b50509250505060405180910390a150565b6000806040805190810160405280600681526020017f656469746f720000000000000000000000000000000000000000000000000000815250620001df336200034a640100000000026401000000009004565b80620001fb5750620001fb33826401000000006200035e810204565b15156200020757600080fd5b60048054600181019091559150600160a060020a0385161580156200022b57508351155b806200024b5750600160a060020a038516158015906200024b5750835115155b15156200025757600080fd5b60008281526002602052604090206001018054600160a060020a031916600160a060020a0387161790556200029882888887640100000000620003e4810204565b508133600160a060020a03167f1ede735f9b446d8014022fed176848ac3894c54942bef9ff452f7ae42b50d5ae896040518080602001828103825283818151815260200191508051906020019080838360005b8381101562000305578181015183820152602001620002eb565b50505050905090810190601f168015620003335780820380516001836020036101000a031916815260200191505b509250505060405180910390a35095945050505050565b600054600160a060020a0390811691161490565b60006001826040518082805190602001908083835b60208310620003945780518252601f19909201916020918201910162000373565b51815160209384036101000a600019018019909216911617905292019485525060408051948590038201909420600160a060020a0397909716600090815296905250509092205460ff1692915050565b600080600060045487101515620003fa57600080fd5b861515620004225762000416336401000000006200034a810204565b15156200042257600080fd5b50506000858152600260209081526040808320805482516080810184528881528085018a815242948201949094526060810188905260018083018085558488529686902082516004850290910190815594518051949793969395929492936200049293928501929101906200094d565b506040820151600282015560608201518051620004ba9160038401916020909101906200094d565b50505050600182015482546200050691600160a060020a0316908990859085908110620004e357fe5b9060005260206000209060040201620005fd640100000000026401000000009004565b156200054b576001820154604051600160a060020a0390911690829089907f605611fc50d3effbe4af88e82f5daebfcffe0fb8f3b34ed32f1a746290ccbc6190600090a45b808733600160a060020a03167f18b6b5c485f8822a270464dd544d0715597dc8f1a007ee2b0252b62b8b9fb390896040518080602001828103825283818151815260200191508051906020019080838360005b83811015620005b85781810151838201526020016200059e565b50505050905090810190601f168015620005e65780820380516001836020036101000a031916815260200191505b509250505060405180910390a45050949350505050565b60008080600160a060020a03861615806200062d5750600384015460026000196101006001841615020190911604155b156200066057600384015460026000196101006001841615020190911604156200065657600080fd5b60009250620007bc565b8354604080516c0100000000000000000000000030028152601481019290925251908190036034019020620006a390640100000000620015dc620007c582021704565b600385018054604080516020601f60026000196101006001881615020190951694909404938401819004810282018101909252828152939550600160a060020a038a1693620007629390929091830182828015620007455780601f10620007195761010080835404028352916020019162000745565b820191906000526020600020905b8154815290600101906020018083116200072757829003601f168201915b508894935050640100000000620016866200087182021704915050565b600160a060020a0316146200077657600080fd5b506000818152600360205260409020805460ff1615806200079a5750848160010154145b1515620007a657600080fd5b805460ff19166001908117825581810186905592505b50509392505050565b604080517f19457468657265756d205369676e6564204d6573736167653a0a333200000000602080830191909152603c80830185905283518084039091018152605c909201928390528151600093918291908401908083835b602083106200083f5780518252601f1990920191602091820191016200081e565b5181516020939093036101000a6000190180199091169216919091179052604051920182900390912095945050505050565b600080600080845160411415156200088d576000935062000944565b50505060208201516040830151606084015160001a601b60ff82161015620008b357601b015b8060ff16601b14158015620008cc57508060ff16601c14155b15620008dc576000935062000944565b60408051600080825260208083018085528a905260ff8516838501526060830187905260808301869052925160019360a0808501949193601f19840193928390039091019190865af115801562000937573d6000803e3d6000fd5b5050506020604051035193505b50505092915050565b828054600181600116156101000203166002900490600052602060002090601f016020900481019282601f106200099057805160ff1916838001178555620009c0565b82800160010185558215620009c0579182015b82811115620009c0578251825591602001919060010190620009a3565b50620009ce929150620009d2565b5090565b620009ef91905b80821115620009ce5760008155600101620009d9565b90565b6118b08062000a026000396000f3006080604052600436106100fb5763ffffffff7c010000000000000000000000000000000000000000000000000000000060003504166306fdde0381146101005780630b7ad54c1461018a5780631bfe03081461029f578063217fe6c6146102ce5780632f54bf6e146103495780635614bdc81461036a5780636192e3e81461039457806365462d96146103af578063715018a6146103e45780637d72aa65146103f957806384a1176c146104265780638da5cb5b146104d3578063a54d198814610504578063c47f00271461051f578063cc45969614610578578063e45e1c7d1461058d578063efc97390146105c1578063f2fde38b146105d9575b600080fd5b34801561010c57600080fd5b506101156105fa565b6040805160208082528351818301528351919283929083019185019080838360005b8381101561014f578181015183820152602001610137565b50505050905090810190601f16801561017c5780820380516001836020036101000a031916815260200191505b509250505060405180910390f35b34801561019657600080fd5b506101a2600435610688565b60408051868152908101849052600160a060020a038316606082015260a060208083018281528751928401929092528651608084019160c08501919089019080838360005b838110156101ff5781810151838201526020016101e7565b50505050905090810190601f16801561022c5780820380516001836020036101000a031916815260200191505b50838103825284518152845160209182019186019080838360005b8381101561025f578181015183820152602001610247565b50505050905090810190601f16801561028c5780820380516001836020036101000a031916815260200191505b5097505050505050505060405180910390f35b3480156102ab57600080fd5b506102cc60048035600160a060020a031690602480359081019101356106c1565b005b3480156102da57600080fd5b5060408051602060046024803582810135601f8101859004850286018501909652858552610335958335600160a060020a03169536956044949193909101919081908401838280828437509497506107479650505050505050565b604080519115158252519081900360200190f35b34801561035557600080fd5b50610335600160a060020a03600435166107cb565b34801561037657600080fd5b506103826004356107df565b60408051918252519081900360200190f35b3480156103a057600080fd5b506101a26004356024356107f1565b3480156103bb57600080fd5b506102cc60048035906024803591600160a060020a03604435169160643590810191013561098c565b3480156103f057600080fd5b506102cc610b03565b34801561040557600080fd5b506102cc60048035600160a060020a03169060248035908101910135610b6f565b34801561043257600080fd5b506040805160206004803580820135601f810184900484028501840190955284845261038294369492936024939284019190819084018382808284375050604080516020888301358a018035601f8101839004830284018301909452838352979a89359a8a830135600160a060020a03169a91999098506060909101965091945090810192508190840183828082843750949750610bef9650505050505050565b3480156104df57600080fd5b506104e8610d78565b60408051600160a060020a039092168252519081900360200190f35b34801561051057600080fd5b50610335600435602435610d87565b34801561052b57600080fd5b506040805160206004803580820135601f81018490048402850184019095528484526102cc943694929360249392840191908190840183828082843750949750610de19650505050505050565b34801561058457600080fd5b50610382610eca565b34801561059957600080fd5b506102cc60048035906024803580820192908101359160443591606435918201910135610ed0565b3480156105cd57600080fd5b50610335600435610f8a565b3480156105e557600080fd5b506102cc600160a060020a0360043516610fae565b6005805460408051602060026001851615610100026000190190941693909304601f810184900484028201840190925281815292918301828280156106805780601f1061065557610100808354040283529160200191610680565b820191906000526020600020905b81548152906001019060200180831161066357829003601f168201915b505050505081565b6000818152600260205260408120546060908290819083906106af908790600019016107f1565b939a9299509097509550909350915050565b604080518082019091526006815260008051602061186583398151915260208201526106ec336107cb565b806106fc57506106fc3382610747565b151561070757600080fd5b6107418484848080601f01602080910402602001604051908101604052809392919081815260200183838082843750610fd1945050505050565b50505050565b60006001826040518082805190602001908083835b6020831061077b5780518252601f19909201916020918201910161075c565b51815160209384036101000a600019018019909216911617905292019485525060408051948590038201909420600160a060020a0397909716600090815296905250509092205460ff1692915050565b600054600160a060020a0390811691161490565b60009081526002602052604090205490565b600082815260026020526040812080546060918391829184918390881061081757600080fd5b815482908990811061082557fe5b600091825260209182902060049190910201805460028083015460018781015481860180546040805161010095831615959095026000190190911695909504601f810189900489028401890190955284835295975093959193600160a060020a03169260038801928691908301828280156108e15780601f106108b6576101008083540402835291602001916108e1565b820191906000526020600020905b8154815290600101906020018083116108c457829003601f168201915b5050845460408051602060026001851615610100026000190190941693909304601f81018490048402820184019092528181529599508694509250840190508282801561096f5780601f106109445761010080835404028352916020019161096f565b820191906000526020600020905b81548152906001019060200180831161095257829003601f168201915b505050505090509650965096509650965050509295509295909350565b6000806040805190810160405280600681526020016000805160206118658339815191528152506109bc336107cb565b806109cc57506109cc3382610747565b15156109d757600080fd5b60045488106109e557600080fd5b60008881526002602052604090206001810154909350600160a060020a03161580610a1f57506001830154600160a060020a038781169116145b1515610a2a57600080fd5b82548710610a3757600080fd5b871515610a5257610a47336107cb565b1515610a5257600080fd5b60018301805473ffffffffffffffffffffffffffffffffffffffff1916600160a060020a0388161790558254839088908110610a8a57fe5b600091825260209091206004909102019150610aaa60038301868661175b565b50610ab68689846110eb565b1515610ac157600080fd5b85600160a060020a031687897f605611fc50d3effbe4af88e82f5daebfcffe0fb8f3b34ed32f1a746290ccbc6160405160405180910390a45050505050505050565b600054600160a060020a03163314610b1a57600080fd5b60008054604051600160a060020a03909116917ff8df31144d9c2f0f6b59d69b8b98abd5459d07f2742c4df920b25aae33c6482091a26000805473ffffffffffffffffffffffffffffffffffffffff19169055565b60408051808201909152600681526000805160206118658339815191526020820152610b9a336107cb565b80610baa5750610baa3382610747565b1515610bb557600080fd5b6107418484848080601f0160208091040260200160405190810160405280939291908181526020018383808284375061128e945050505050565b600080604080519081016040528060068152602001600080516020611865833981519152815250610c1f336107cb565b80610c2f5750610c2f3382610747565b1515610c3a57600080fd5b60048054600181019091559150600160a060020a038516158015610c5d57508351155b80610c7b5750600160a060020a03851615801590610c7b5750835115155b1515610c8657600080fd5b6000828152600260205260409020600101805473ffffffffffffffffffffffffffffffffffffffff1916600160a060020a038716179055610cc98288888761136e565b508133600160a060020a03167f1ede735f9b446d8014022fed176848ac3894c54942bef9ff452f7ae42b50d5ae896040518080602001828103825283818151815260200191508051906020019080838360005b83811015610d34578181015183820152602001610d1c565b50505050905090810190601f168015610d615780820380516001836020036101000a031916815260200191505b509250505060405180910390a35095945050505050565b600054600160a060020a031681565b600082815260026020526040812080548310610da257600080fd5b8083815481101515610db057fe5b6000918252602090912060036004909202010154600260001961010060018416150201909116041515949350505050565b600054600160a060020a03163314610df857600080fd5b8051600010610e0657600080fd5b8051610e199060059060208401906117d9565b5060408051602080825260058054600260001961010060018416150201909116049183018290527f4737457377f528cc8afd815f73ecb8b05df80d047dbffc41c17750a4033592bc93909291829182019084908015610eb95780601f10610e8e57610100808354040283529160200191610eb9565b820191906000526020600020905b815481529060010190602001808311610e9c57829003601f168201915b50509250505060405180910390a150565b60045481565b60408051808201909152600681526000805160206118658339815191526020820152610efb336107cb565b80610f0b5750610f0b3382610747565b1515610f1657600080fd5b610f808787878080601f0160208091040260200160405190810160405280939291908181526020018383808284375050604080516020601f8c018190048102820181019092528a81528c955093508a9250899150819084018382808284375061136e945050505050565b5050505050505050565b600081815260026020526040812054610fa890839060001901610d87565b92915050565b600054600160a060020a03163314610fc557600080fd5b610fce8161155f565b50565b6001816040518082805190602001908083835b602083106110035780518252601f199092019160209182019101610fe4565b51815160209384036101000a6000190180199092169116179052920194855250604080519485900382018520600160a060020a0388166000818152918452828220805460ff19169055838752875187850152875190963396507f6a52fb0cb0e75e6a6721483d2e539b38273ec6fe95b648a41e1a901594aeccb895508894909384939084019291860191908190849084905b838110156110ad578181015183820152602001611095565b50505050905090810190601f1680156110da5780820380516001836020036101000a031916815260200191505b509250505060405180910390a35050565b60008080600160a060020a038616158061111a5750600384015460026000196101006001841615020190911604155b1561114a576003840154600260001961010060018416150201909116041561114157600080fd5b60009250611285565b8354604080516c010000000000000000000000003002815260148101929092525190819003603401902061117d906115dc565b600385018054604080516020601f60026000196101006001881615020190951694909404938401819004810282018101909252828152939550600160a060020a038a169361122e939092909183018282801561121a5780601f106111ef5761010080835404028352916020019161121a565b820191906000526020600020905b8154815290600101906020018083116111fd57829003601f168201915b50889493505063ffffffff61168616915050565b600160a060020a03161461124157600080fd5b506000818152600360205260409020805460ff1615806112645750848160010154145b151561126f57600080fd5b805460ff19166001908117825581810186905592505b50509392505050565b600180826040518082805190602001908083835b602083106112c15780518252601f1990920191602091820191016112a2565b51815160209384036101000a6000190180199092169116179052920194855250604080519485900382018520600160a060020a0389166000818152918452828220805460ff191698151598909817909755828652875186840152875133967fa40c1dc2b34f6b51c3ea614b688f243e50047ed9fa3ea19010303d70dac781ed96508995509384938401929086019190819084908490838110156110ad578181015183820152602001611095565b60008060006004548710151561138357600080fd5b86151561139e57611393336107cb565b151561139e57600080fd5b50506000858152600260209081526040808320805482516080810184528881528085018a8152429482019490945260608101889052600180830180855584885296869020825160048502909101908155945180519497939693959294929361140c93928501929101906117d9565b5060408201516002820155606082015180516114329160038401916020909101906117d9565b505050506001820154825461146c91600160a060020a031690899085908590811061145957fe5b90600052602060002090600402016110eb565b156114b0576001820154604051600160a060020a0390911690829089907f605611fc50d3effbe4af88e82f5daebfcffe0fb8f3b34ed32f1a746290ccbc6190600090a45b808733600160a060020a03167f18b6b5c485f8822a270464dd544d0715597dc8f1a007ee2b0252b62b8b9fb390896040518080602001828103825283818151815260200191508051906020019080838360005b8381101561151b578181015183820152602001611503565b50505050905090810190601f1680156115485780820380516001836020036101000a031916815260200191505b509250505060405180910390a45050949350505050565b600160a060020a038116151561157457600080fd5b60008054604051600160a060020a03808516939216917f8be0079c531659141344cd1fd0a4f28419497f9722a3daafe3b4186f6b6457e091a36000805473ffffffffffffffffffffffffffffffffffffffff1916600160a060020a0392909216919091179055565b604080517f19457468657265756d205369676e6564204d6573736167653a0a333200000000602080830191909152603c80830185905283518084039091018152605c909201928390528151600093918291908401908083835b602083106116545780518252601f199092019160209182019101611635565b5181516020939093036101000a6000190180199091169216919091179052604051920182900390912095945050505050565b600080600080845160411415156116a05760009350611752565b50505060208201516040830151606084015160001a601b60ff821610156116c557601b015b8060ff16601b141580156116dd57508060ff16601c14155b156116eb5760009350611752565b60408051600080825260208083018085528a905260ff8516838501526060830187905260808301869052925160019360a0808501949193601f19840193928390039091019190865af1158015611745573d6000803e3d6000fd5b5050506020604051035193505b50505092915050565b828054600181600116156101000203166002900490600052602060002090601f016020900481019282601f1061179c5782800160ff198235161785556117c9565b828001600101855582156117c9579182015b828111156117c95782358255916020019190600101906117ae565b506117d5929150611847565b5090565b828054600181600116156101000203166002900490600052602060002090601f016020900481019282601f1061181a57805160ff19168380011785556117c9565b828001600101855582156117c9579182015b828111156117c957825182559160200191906001019061182c565b61186191905b808211156117d5576000815560010161184d565b905600656469746f720000000000000000000000000000000000000000000000000000a165627a7a723058202839f646fe6314a6158bddc6cb9d0a25d159faf220d24e08d21da9879c8d4ef30029a165627a7a72305820646b7e95d0e4596c24087e4e6ffcbcc666ce96282cb2ca2e09f6b20bc33380ac0029",
  "source": "pragma solidity ^0.4.19;\n// TODO(ritave): Think of a way to not require contracts out of package\nimport \"../multisig/Factory.sol\";\n\nimport \"../interfaces/IMultiSigWalletFactory.sol\";\nimport \"./Newsroom.sol\";\n\n/**\n@title Newsroom with Board of Directors factory\n@notice This smart-contract creates the full multi-smart-contract structure of a Newsroom in a single transaction\nAfter creation the Newsroom is owned by the Board of Directors which is represented by a multisig-gnosis-based wallet\n*/\ncontract NewsroomFactory is Factory {\n  IMultiSigWalletFactory public multisigFactory;\n\n  function NewsroomFactory(address multisigFactoryAddr) public {\n    multisigFactory = IMultiSigWalletFactory(multisigFactoryAddr);\n  }\n\n  /**\n  @notice Creates a fully-set-up newsroom, a multisig wallet and transfers it's ownership straight to the wallet at hand\n  */\n  function create(string name, string charterUri, bytes32 charterHash, address[] initialOwners, uint initialRequired)\n    public\n    returns (Newsroom newsroom)\n  {\n    address wallet = multisigFactory.create(initialOwners, initialRequired);\n    newsroom = new Newsroom(name, charterUri, charterHash);\n    newsroom.transferOwnership(wallet);\n    register(newsroom);\n  }\n}\n",
  "sourcePath": "/Users/ritave/Documents/Praca/Civil/Civil/packages/contracts/contracts/newsroom/NewsroomFactory.sol",
  "compiler": {
    "name": "solc",
    "version": "0.4.24+commit.e67f0147.Emscripten.clang"
  },
  "schemaVersion": "2.0.1",
  "updatedAt": "2018-10-24T13:17:57.383Z"
}